:100000000C9480000C94A1000C94A1000C94A1000D
:100010000C94A1000C94A1000C94A1000C94A100DC
:100020000C94A1000C94A1000C94A1000C94A100CC
:100030000C94541C0C94A1000C94A1000C94A100ED
:100040000C94A1000C94A1000C94A1000C94A100AC
:100050000C94A1000C94A1000C94A1000C94A1009C
:100060000C94A1000C94A1000C94A1000C94A1008C
:100070000C94A1000C94A1000C94A1000C94A1007C
:100080000C94A1000C94A1000C94A1000C94A1006C
:100090000C94A1000C94A1000C94A1000C94A1005C
:1000A0000C94A1000C94A1000C94A1000C94A1004C
:1000B0000C94A1000C94A1000C94A1000C94A1003C
:1000C0000C94A1000C94A1000C94A1000C94A1002C
:1000D0000C94A1000C94A1000C94A1000C94A1001C
:1000E0000C94A1000C94A3000C9434190C94730B81
:1000F0000C94ED190C94AF190C94DB190C94F319B2
:1001000011241FBECFEFD1E2DEBFCDBF00E00CBF98
:1001100012E0A0E0B2E0E6E6FBE300E00BBF02C0C5
:1001200007900D92A032B107D9F722E0A0E2B2E029
:1001300001C01D92AD3EB207E1F70E94581C0C941D
:10014000A81D0C940000279A85B1805885B983E0DA
:1001500090E00E943610F8CF809120029091210209
:10016000A0912202B09123020196A11DB11D80939E
:10017000200290932102A0932202B09323020895BB
:100180000895279A0895CF92DF92EF92FF921F93DE
:10019000CF93DF936C01162FF42E8AE190E00E943A
:1001A000D71AEC018FEF209709F456C080912402F2
:1001B00090912502892B21F5D0932502C09324022A
:1001C0008CE492E00E94130485E592E00E941304FF
:1001D00083E492E00E9413048AE392E00E941304F5
:1001E0008DE292E00E94130483E492E0909339023E
:1001F000809338028AE392E090933702809336022C
:10020000111111E0198E188E1E8BFF8AFE01C1920A
:10021000D1927F01CF010E942104CE010C960E9451
:100220002104D987C887DB8BCA8B82E090E0811BD1
:1002300091099D878C878E8990912C02981710F4D4
:1002400080932C02F9E08F9FC0011124B701845BD9
:100250009D4F0E94250481E0DF91CF911F91FF9077
:10026000EF90DF90CF9008950F931F93CF93DF937C
:10027000EB0100912A0210912B02080F191F8091A7
:1002800024029091250202960E9474046091240237
:1002900070912502FB011383028380912A029091C1
:1002A0002B026E5F7F4F08171907A8F48091360262
:1002B000909137020E944504209791F060912402AA
:1002C00070912502645F7F4FCE01DF91CF911F9126
:1002D0000F910C9445048091380290913902EACF35
:1002E000DF91CF911F910F910895FF920F931F936C
:1002F000CF93DF938091380290913902892B09F4D2
:1003000040C099E0F92E80912D02811140C00E94D9
:10031000340E2091280230912902821B930B909376
:1003200027028093260289E0F82E20912602309140
:10033000270280912A0290912B022115310509F0A4
:1003400048C0909329028093280280912C02282F84
:1003500030E0E9E0E89FD0011124A45BBD4F9C91FF
:1003600091118BC0882359F08150282F30E0E89FED
:10037000F0011124E45BFD4F908191117EC08093C8
:100380002C02DF91CF911F910F91FF900895F89467
:10039000E0913202F0913302C681D781CE010C96F2
:1003A0000E94740478948E010E5F1F4FC8010E9452
:1003B00074048E8990912C02981710F480932C026B
:1003C0008F9DC0011124B801845B9D4F0E942504BC
:1003D0009ACF019690932B0280932A0221503109E3
:1003E0003093270220932602892B81F480913802D2
:1003F00090913902209136023091370230933902C0
:10040000209338029093370280933602E0913802AD
:10041000F0913902808120912A0230912B028823A9
:1004200009F483CF0580F681E02DC681D7818A81CA
:100430009B812817390708F478CFF8948E010E5F56
:100440001F4FC8010E9474048C899D89892B21F05B
:10045000CE010C960E94740478948E8990912C029F
:10046000981710F480932C028F9DC0011124B801BD
:10047000845B9D4F0E942504C9CF80932C0249E0E4
:10048000429FC001439F900D1124FC01E45BFD4F8E
:10049000A181B28112960D90BC91A02DB283A1834F
:1004A000815B9D4FA817B90729F412968D919C91F5
:1004B0009283818389E0829FF001839FF00D112454
:1004C000E45BFD4F0180F281E02D8681978190935E
:1004D000250280932402DC01ED91FC91119757963F
:1004E0006C91DF91CF911F910F91FF9019940F9311
:1004F0001F93CF93DF93DC011596ED91FC91C6819C
:10050000D7818E01045F1F4FC8010E947404B80197
:100510008DE292E00E942504E0912402F0912502F0
:1005200081E02E899689291708F480E0DF91CF9128
:100530001F910F910895CF93DF938BE090E00E947D
:10054000D71AEC01009731F0FC0111921192CF0102
:100550000E941304CE01DF91CF9108958F929F9254
:10056000AF92BF92CF92DF92EF92FF920F931F93C1
:10057000CF93DF937C016B01942E822E58010E9451
:100580002E0EF701C081D181CE018C219D218110D9
:1005900042C0892B09F043C0A114B10489F060E086
:1005A00071E0911002C070E060E0811074606C290D
:1005B0007D29A501C70102960E940811D0E0C0E084
:1005C0000E944B0FAB28C9F0811102C00E94461B4C
:1005D0000E943914EC0191FD0FC00FB6F8940F92F0
:1005E000F701C081D181C6018C239D23811024C0D5
:1005F000892B29F50F900FBEDD27CE01DF91CF911A
:100600001F910F91FF90EF90DF90CF90BF90AF9030
:100610009F908F900895C816D90609F0BDCF9920F4
:1006200041F0C601809590958C239D23F70191831D
:100630008083B12CA12CC4CFC816D906D9F6992035
:10064000C9F29601209530952C233D23F701318383
:100650002083D0CFFC019B010FB6F8940F928081CC
:1006600091812095309528233923318320830F9061
:100670000FBE0895FC01808191810895CF92DF9291
:10068000EF92FF920F931F93CF93DF93EC018B01B7
:100690007C0185E0E80EF11C0E942E0EEF81F885AA
:1006A00088819981802B912B9983888310E000E0C9
:1006B00068817981EE15FF0599F400951095062360
:1006C0001723198308830E944B0F88819981DF913A
:1006D000CF911F910F91FF90EF90DF90CF900895F1
:1006E000C280D38020813181C9019927AC01462382
:1006F000572332FD04C0452B29F4F601D9CF8417C6
:100700009507D9F730FF02C0082B192B7260CF0173
:100710000E942E12F2CFAF92BF92CF92DF92EF9251
:10072000FF920F931F93CF93DF937C01EB018A011C
:1007300069010E942E0EF701A080B180BE01C701A1
:100740000E943E03CA29DB29CE0180239123801712
:10075000910709F03BC0F7018081918198012095B4
:1007600030958223932391838083D12CC12C0E94C6
:100770004B0FCD28F9F0811102C00E94461B0E9448
:100780003914EC0191FD15C00FB6F8940F92F701E2
:10079000C081D181C8018C239D238017910739F432
:1007A0009801209530952C233D23318320830F9091
:1007B0000FBEDD27CE01DF91CF911F910F91FF90EA
:1007C000EF90DF90CF90BF90AF900895C114D10407
:1007D00051F0A601B8017560C70102960E94081188
:1007E000D0E0C0E0C4CFF701C081D181C0CFCF93AA
:1007F000DF93EC010E942E0E8A81811107C0CE0189
:100800000E94EA1ADF91CF910C944B0F60E072E0E6
:100810008F8198850E942E12EFCFBA010C943E036F
:10082000BA010C942A03FC010396928381832FEF73
:100830003FEF348323839683858390878783108259
:100840000895FC01118610860895CF93DF939C01D3
:10085000FB01DC011196CD91DC91D383C2838C81A5
:100860009D81958384838C819D81DC0113967C938B
:100870006E9312977D836C8331872087F901808185
:100880008F5F8083DF91CF910895CF93DF93DC0159
:10089000FB01208131812F3F3207C9F417966D91FA
:1008A0007C911897EB018A819B8193838283EC0171
:1008B000FD83EC8375836483EB01FB83EA83B1875B
:1008C000A0878C918F5F8C93DF91CF910895CD019C
:1008D0000396BC01EC018A819B81EC01488159811E
:1008E00024173507B0F7DECFCF93DF93FC01A08547
:1008F000B1858281938124813581EC013D832C83F4
:10090000C481D5819B838A8311968D919C91129786
:100910008E179F0721F41296DC93CE9311971186C0
:1009200010868C9181508C938C91DF91CF9108959A
:10093000FC010FB6F8940F92928D0F900FBE81E0DC
:10094000911180E008950F931F93CF93DF93EC01F3
:10095000142F0A8D4C8D411114C088819981892BE7
:1009600009F046C08C819D810E948713182F1D823B
:100970001C820F5F0A8F812FDF91CF911F910F9102
:10098000089550E0111115C08A819B810E949F1D1E
:100990002C8D8A819B81820F911D9B838A832C8160
:1009A0003D818217930728F3888199819B838A83ED
:1009B000E0CF8E819F810E949F1D2C8D30E04427C7
:1009C0005527421B530B8E819F81821B930B9F8364
:1009D0008E83288139818217930730F48C819D8121
:1009E000840F951F9F838E83123011F401110150E3
:1009F00010E0BFCFFC01CB01448D4423A1F050E0B7
:100A000026813781240F351F3783268364817581C2
:100A10002617370720F020813181378326836681AE
:100A200077810C949F1D0895EF92FF921F93CF93AF
:100A3000DF93EC010FB6F8940F921E8D7C0181E1DB
:100A4000E80EF11C1116C4F08FEF8E8F0F900FBEC1
:100A50000FB6F8940F921D8D7E0188E0E80EF11C10
:100A60001116ACF08FEF8D8F0F900FBEDF91CF91ED
:100A70001F91FF90EF9008958989882329F3C7017A
:100A80000E948D1181110E94F8121150DBCF8885D0
:100A9000882341F3C7010E948D1181110E94F81231
:100AA0001150DECFCF93DF93EC01892B09F43EC0C8
:100AB0008B8D882309F43AC00FB6F8940F92888181
:100AC00099812B8D4C8DFC01249FE00DF11D11248B
:100AD000FD83EC831A8E9B838A832150330B429FC4
:100AE000F001439FF00D11248E0F9F1F9F838E8373
:100AF0008FEF8D8F8E8F611110C08885882339F01C
:100B0000CE0108960E948D1181110E94461B0F9004
:100B10000FBE81E0DF91CF910895CE0108960E942B
:100B20001304CE0141960E941304F1CF80E0F2CF6E
:100B30000F931F93CF93DF93082F162F811108C0B7
:100B4000D0E0C0E0CE01DF91CF911F910F910895C9
:100B5000869FC00111244F960E94D71AEC0100977E
:100B600079F3111109C0998388830B8F1C8F61E081
:100B7000CE010E945205E6CF4F9699838883F5CF28
:100B8000AF92BF92DF92EF92FF920F931F93CF939A
:100B9000DF9300D00F920F92CDB7DEB78C01E62E17
:100BA000D72E5D834C83F22E80E0580198E0A90E89
:100BB000B11C0FB6F8940F92F801228D938D29176E
:100BC00018F0F2E0FF1223C04F2D6E2D7D2DC801CD
:100BD0000E94A304F8019189992321F0C80141964C
:100BE0000E948D1181110E94461B0F900FBE81E063
:100BF0000F900F900F900F900F90DF91CF911F915A
:100C00000F91FF90EF90DF90BF90AF9008952C81EF
:100C10003D81232B21F40F900FBE80E0E9CF81119D
:100C200004C0CE0101960E94BD120F900FBE0E941B
:100C30002E0E0FB6F8940F92F801858D8F3F09F4B0
:100C4000158EF801868D8F3F09F4168E0F900FBE1A
:100C5000BE016C5F7F4FCE0101960E94C8128111C8
:100C600020C00FB6F8940F92F801928D838D0F90EB
:100C70000FBE981310C06C817D81C5010E94F510D4
:100C8000C8010E9414050E944B0F811102C00E94EE
:100C9000461B81E08ECFC8010E9414050E944B0FB5
:100CA000F8CFC8010E9414050E944B0FB6CFCF9316
:100CB000DF938FE190E00E94D71AEC010097B1F02A
:100CC0009983888381E08B8F1C8E61E0CE010E9426
:100CD00052051D821C82198218821E8220E050E07B
:100CE00040E070E060E0CE010E94C005CE01DF91DF
:100CF000CF9108950F931F93CF93DF93EC010C8155
:100D00001D810E94FC120817190779F48E81815009
:100D10008E83811108C020E050E040E070E060E088
:100D2000CE010E94C00581E001C080E0DF91CF913B
:100D30001F910F910895EF92FF921F93CF93DF932E
:100D4000EC017A01422F9A8D8B8D981718F080E074
:100D50002230C1F41E8D8A8DCE010E94A3041F3F54
:100D6000B9F48989811102C081E00CC0CE0141969D
:100D70000E948D118823C1F3E114F104A9F381E0ED
:100D8000F7018083DF91CF911F91FF90EF9008953D
:100D90001F5F1E8FE9CFCF93DF93FC01EB01928D94
:100DA000838D9817D0F4868D9F5F928F8F3F91F43B
:100DB0008189811102C081E00AC0CF0141960E9461
:100DC0008D118823C1F32097B1F381E08883DF91EF
:100DD000CF9108958F5F868FEECF80E0F8CFAF92EE
:100DE000BF92DF92EF92FF920F931F93CF93DF9307
:100DF00000D00F920F92CDB7DEB78C01E62ED72E22
:100E00005D834C8380E0580191E1A90EB11C0FB6BF
:100E1000F8940F92F801F28CFF2021F16E2D7D2DB8
:100E2000C8010E94FA04FA94F801F28E80858823A2
:100E300039F0C80108960E948D1181110E94461B4D
:100E40000F900FBE81E00F900F900F900F900F90BA
:100E5000DF91CF911F910F91FF90EF90DF90BF90A6
:100E6000AF9008952C813D81232B21F40F900FBE6C
:100E700080E0E9CF811104C0CE0101960E94BD122D
:100E80000F900FBE0E942E0E0FB6F8940F92F8012D
:100E9000858D8F3F09F4158EF801868D8F3F09F4FB
:100EA000168E0F900FBEBE016C5F7F4FCE01019674
:100EB0000E94C81281111BC0C8010E949804882397
:100EC00081F06C817D81C5010E94F510C8010E94EE
:100ED00014050E944B0F811102C00E94461B81E045
:100EE00096CFC8010E9414050E944B0FF8CFC8018D
:100EF0000E9414050E944B0FC8010E949804882389
:100F000071F3B6CFCF92DF92FF920F931F93CF93DF
:100F1000DF9300D00F920F92CDB7DEB78C017D83A7
:100F20006C83F12C90E0680181E1C80ED11C0FB6F2
:100F3000F8940F92D8015A968C915A97882359F1B8
:100F400081505A968C935A978D919C91892B29F4B4
:100F50000E945014F80195838483D80118968C91CF
:100F6000882339F0C80108960E948D1181110E94D2
:100F7000461B0F900FBEFF24F3948F2D0F900F9000
:100F80000F900F900F90DF91CF911F910F91FF90D5
:100F9000DF90CF9008952C813D81232B21F40F9079
:100FA0000FBEF12CEACF911104C0CE0101960E9430
:100FB000BD120F900FBE0E942E0E0FB6F8940F9226
:100FC000F801858D8F3F09F4158ED8015E968C91BE
:100FD0005E978F3F11F45E961C920F900FBEBE017C
:100FE0006C5F7F4FCE0101960E94C81281112AC00A
:100FF000C8010E9498048823F9F0F801808191814A
:10100000892B51F40FB6F8940F92848195810E9438
:101010000F13F82E0F900FBE6C817D81C6010E94C8
:10102000F510C8010E9414050E944B0F811102C0E7
:101030000E94461B91E07BCFC8010E9414050E94CC
:101040004B0FF8CFC8010E9414050E944B0FC80136
:101050000E949804882371F3FF2009F48ECF0FB605
:10106000F8940F92F8016189662331F00688F789B8
:10107000E02D808164E0681BD80114968D919C91CD
:101080000E94DA138CCFEF92FF920F931F93CF93AE
:10109000DF93EC018B01EC80FD800E94FC12E816CE
:1010A000F90659F48E818F5F8E8381E0DF91CF91B5
:1010B0001F910F91FF90EF900895B801CE010E940B
:1010C0008207882399F39E819F5F9E83EFCFCF9203
:1010D000DF92EF92FF920F931F93CF93DF9300D095
:1010E0000F920F92CDB7DEB78C01F62EE72E5D83FF
:1010F0004C8380E0680191E1C90ED11C0FB6F894D1
:101100000F92F801928D992329F1C680D7806F2D17
:101110007E2DC8010E94FA04F801D782C682818917
:10112000882339F0C80141960E948D1181110E94D7
:10113000461B0F900FBE81E00F900F900F900F9005
:101140000F90DF91CF911F910F91FF90EF90DF9063
:10115000CF9008952C813D81232B21F40F900FBE59
:1011600080E0EACF811104C0CE0101960E94BD1239
:101170000F900FBE0E942E0E0FB6F8940F92F8013A
:10118000858D8F3F09F4158EF801868D8F3F09F408
:10119000168E0F900FBEBE016C5F7F4FCE01019681
:1011A0000E94C81281111BC0C8010E9498048823A4
:1011B00081F06C817D81C6010E94F510C8010E94FA
:1011C00014050E944B0F811102C00E94461B81E052
:1011D00095CFC8010E9414050E944B0FF8CFC8019B
:1011E0000E9414050E944B0FC8010E949804882396
:1011F00071F3B6CFEF92FF920F931F93CF93DF93CC
:10120000EC017A010A8D80E00023C9F01D8DCE012A
:101210000E94FA0401500A8F1F3FC1F48885811192
:1012200002C081E00CC0CE0108960E948D11882377
:10123000C1F3E114F104A9F381E0F7018083DF91A8
:10124000CF911F910F91FF90EF9008951F5F1D8F19
:10125000E8CF0F931F93CF93DF93EC018A8D882300
:1012600069F00E811F81CE010E94FA041F830E8354
:1012700081E0DF91CF911F910F91089580E0F9CF28
:10128000FC010FB6F8940F92828D0F900FBE089557
:10129000FC010FB6F8940F92928D838D891B0F90ED
:1012A0000FBE0895FC01828D0895FC01928D81E0AE
:1012B000911180E00895FC01928D81E0238D291326
:1012C00080E00895CF93DF93EC01CA01F8940FB644
:1012D000F8940F923A8D2B8D0F900FBE32130FC0E2
:1012E000009751F0BE01685F7F4F0E9434017894EF
:1012F0008CEFDF91CF910895789480E0FACF7894C5
:10130000F8949A8D8B8D981790F440E0CE010E944E
:10131000A3048989811103C081E07894EACFCE01CA
:1013200041960E9477028823B9F38BEFF6CF80E0D5
:10133000F4CFCF93DF93EC01CB019A01F8944A8D5F
:10134000411111C02115310559F0BE016F5E7F4F6B
:10135000C9010E94340178948CEFDF91CF910895F8
:10136000789480E0FACF7894F8942A8D222331F192
:101370004C8D50E02E813F81240F351F3F832E83FB
:101380006C817D812617370720F0288139813F83C2
:101390002E832A8D21502A8F6E817F810E949F1D6E
:1013A0008885811103C081E07894D7CFCE0108965B
:1013B0000E9477028823B9F38BEFF6CF80E0F4CF59
:1013C0001F93CF93DF93EC01142F9A8D8B8D981779
:1013D00088F440E0CE010E94A30411110BC089895A
:1013E000882341F0CE0141960E94770211E08111DD
:1013F00001C010E0812FDF91CF911F9108950F93CD
:101400001F93CF93DF93EC01CB018A012A8D222316
:1014100079F14C8D50E02E813F81240F351F3F83A1
:101420002E836C817D812617370720F02881398132
:101430003F832E832A8D21502A8F6E817F810E94C7
:101440009F1DF8018081882331F081E0DF91CF91E9
:101450001F910F91089588858823B9F3CE010896CE
:101460000E947702882389F381E0F8018083EECF20
:1014700080E0ECCF9C01CB01009779F140916002B4
:101480005091610224173507E1F040915E025091BE
:101490005F02EEE5F2E0452B11F0F0E0E0E0409174
:1014A00064025091650224173507C1F0309789F422
:1014B0004091620250916302452B79F4E2E6F2E03A
:1014C00008C0F0E0E0E0EE0FFF1FEE0FFF1FE25A52
:1014D000FD4F91838083338322830895E1E0F0E020
:1014E000F2CF9C0180916002909161022817390728
:1014F00099F080916402909165022817390779F478
:1015000081E090E0880F991F880F991FFC01E25A33
:10151000FD4F80819181089590E080E0F3CF90E0CD
:1015200080E008959C0180916002909161022817EB
:10153000390751F08091640290916502E1E0F0E09A
:101540002817390719F00895F0E0E0E0EE0FFF1FCB
:10155000EE0FFF1FE25AFD4F11821082138212829A
:10156000F2CFCF93DF93D82FC92F0E94920A8D2FED
:101570009C2FDF91CF910C94EA1ACF93DF93EC016B
:101580000FB6F8940F928D8D8F3F09F41D8E8E8DBE
:101590008F3F09F41E8E0F900FBE8A8D811104C0FB
:1015A000CE0141960E944D11CE01DF91CF910C9456
:1015B0001405EF92FF921F93CF93DF93EC01162F48
:1015C000E0907402F090750280916602909167023B
:1015D00002960E947404CF3FDC07E9F51123D9F18C
:1015E000E0917802F0917902A0916602B0916702D1
:1015F0001596FC93EE931497A0916602B091670242
:101600008481958117969C938E931697809166029C
:1016100090916702A481B581029613969C938E9354
:101620001297809166029091670202969583848357
:10163000E0916602F091670287E792E093878287E4
:10164000809177028F5F80937702DF91CF911F9116
:10165000FF90EF900895CE0DDF1DE0916602F091AE
:101660006702D383C2836091660270916702CE15D0
:10167000DF0568F480919302909194026E5F7F4F32
:10168000DF91CF911F91FF90EF900C9445048091D2
:101690009502909196026E5F7F4F0E944504809163
:1016A0006B0290916C02C817D90778F6D0936C0240
:1016B000C0936B02CACFE0919502F09196028081AF
:1016C000811107C08FEF9FEF90936C0280936B02A4
:1016D0000895E0919502F09196020580F681E02D43
:1016E00080819181F1CF80918002811109C0809128
:1016F000A902823010F00E94461B0E94AC00F3CF7A
:101700000FB6F8940F92E0918602F0918702C6819D
:10171000D781CE0102960E94740480917602815096
:1017200080937602809180028150809380020F9096
:101730000FBE8F89988D0E94EA1ACE010E94EA1A84
:10174000D2CF5F926F927F928F929F92AF92BF9211
:10175000CF92DF92EF92FF920F931F93CF93DF937D
:10176000782E192F6B015A01622E532E4701CA01A0
:101770000E94D71A7C01892B89F088E290E00E94B0
:10178000D71AEC01009739F0F88EEF8AC114D10412
:10179000B1F4198E29C0C7010E94EA1A8FEFDF91B8
:1017A000CF911F910F91FF90EF90DF90CF90BF905E
:1017B000AF909F908F907F906F905F900895F6010B
:1017C000AC01475E5F4FC60108962191DA012D9367
:1017D000AD019F0121503109D9012C91222319F02B
:1017E0008E179F0791F718A2043008F003E00E8BC4
:1017F00009A31AA26E01B2E0CB0ED11CC6010E9451
:101800002104CE010C960E942104D987C88784E068
:1018100090E0801B91099D878C87DB8BCA8B84E0CD
:10182000FE01B396DF011D928A95E9F71FA2C5015B
:101830000197462D552D672D712F8E0D9F1D0E94EE
:10184000FB1A998388838114910419F0F401D183E0
:10185000C0830FB6F8940F92809176028F5F8093C9
:1018600076028091660290916702892B09F079C017
:10187000D0936702C093660280917602813081F531
:1018800089EA92E00E94130482EB92E00E94130422
:101890008BEB92E00E94130484EC92E00E9413040C
:1018A00080EA92E00E94130487E992E00E94130408
:1018B0008AE892E00E94130481E892E00E941304F7
:1018C00087E792E00E94130480EA92E090939602E8
:1018D0008093950287E992E090939402809393021B
:1018E00080916D028F5F80936D02EE89809173020B
:1018F0008E1710F4E093730289E0E89FF001112441
:101900009F0127553D4FF901A181B281BD83AC8371
:1019100014968D919C9115979F838E8314968D912B
:101920009C911597FC01D382C2821596DC92CE92CF
:1019300014973B872A87D9018C918F5F8C930F90E6
:101940000FBE80917202882351F0E0916602F091FF
:10195000670296898E89981710F40E94461B81E0D1
:101960001ECF809172028111BBCFE0916602F0918F
:10197000670296898E89891708F4B2CFD0936702DF
:10198000C0936602ADCF0F931F93CF93DF93EC010B
:101990000FB6F8940F92892B21F4C0916602D09172
:1019A00067028E010E5F1F4FC8010E9474048C896C
:1019B0009D89892B21F0CE010C960E9474048091A0
:1019C0006D028F5F80936D02809166029091670235
:1019D0008C179D07F1F4B80181E892E00E9425047C
:1019E000809180028F5F809380020F900FBE809164
:1019F0007202882349F080916602909167028C17E9
:101A00009D0711F40E94461BDF91CF911F910F910A
:101A10000895809176028150809376028F89988D07
:101A20000E94EA1ACE010E94EA1A0E945B0BDDCFE7
:101A3000EF92FF921F93CF93DF93EC01643008F095
:101A400063E00FB6F8940F92209721F4C0916602DC
:101A5000D091670299A1691709F465C020916602C7
:101A600030916702961768F42C173D0741F0E0911A
:101A70006602F091670211E08689681730F410E081
:101A800004C011E02C173D07D1F78E89981301C0CF
:101A90006E8B69A32C853D8537FD06C024E030E0C0
:101AA000261B31093D872C8729E0829FC001112424
:101AB00087559D4F2A853B852817390789F57E0173
:101AC00082E0E80EF11CC7010E947404EE89809147
:101AD00073028E1710F4E093730229E0E29FF00185
:101AE00011249F0127553D4FF901A181B281BD838A
:101AF000AC8314968D919C9115979F838E83149639
:101B00008D919C911597FC01F382E2821596FC92CF
:101B1000EE9214973B872A87F90180818F5F80833B
:101B200011110E94461B0F900FBEDF91CF911F91A4
:101B3000FF90EF9008950F931F93CF93DF93EC01E5
:101B400080916602909167028C179D0709F44FC03F
:101B5000209709F44CC00FB6F8940F928A859B85A4
:101B60008757924009F041C08C899D89E2E08A380C
:101B70009E07D9F1892BC9F58E010E5F1F4FC80151
:101B80000E9474048E8990917302981710F48093C8
:101B9000730229E0829FF0011124AF0147555D4F88
:101BA000FA01A181B281BD83AC8314962D913C9141
:101BB00015973F832E8314962D913C911597F9012B
:101BC0001383028315961C930E9314975B874A87A1
:101BD000FA0190819F5F9083E0916602F091670225
:101BE0009689891710F00E94461B0F900FBEDF9157
:101BF000CF911F910F910895EF92FF920F9389E675
:101C0000E82E82E0F82E00E030E020E04EE650E0E2
:101C10006DE072E083E79BE00E94A10B813099F4B4
:101C20000E94F719813079F4F8942FEF3FEF309349
:101C30006C0220936B0280937202109275021092D4
:101C400074020E940E1B809100020F91FF90EF9092
:101C50000895F894109272020C94451B80916802CA
:101C60008F5F8093680208950FB6F8940F92809169
:101C70007402909175020F900FBE089580917402C6
:101C80009091750208958091760208959C01892BA8
:101C900021F42091660230916702C90149960895A6
:101CA000DF92EF92FF920F931F93CF93DF93809178
:101CB00068028111E3C000917402109175020F5FF8
:101CC0001F4F109375020093740201151105B9F4AA
:101CD0008091950290919602209193023091940206
:101CE00030939602209395029093940280939302EE
:101CF00080916E028F5F80936E020E945B0B8091D9
:101D00006B0290916C02D12C0817190738F5E091FD
:101D10006602F0916702E689D9E0ED9FF001112497
:101D2000E755FD4F8081823010F0DD24D3948091FF
:101D3000700290917102892B11F40E94C000809171
:101D40006F02882311F0DD24D3948D2DDF91CF9184
:101D50001F910F91FF90EF90DF90089569E0E0915F
:101D60009502F09196028081811107C08FEF9FEF5D
:101D700090936C0280936B02CACFE0919502F09130
:101D800096020580F681E02D0680F781E02D8281A4
:101D900093810817190760F3A285B38524813581E3
:101DA00086819781E9019D838C8386819781EC01EF
:101DB0003B832A83AF014E5F5F4F11962D913C917B
:101DC00012972417350721F412969C938E9311973E
:101DD000138612868C9181508C93A489B5891097B3
:101DE000F1F08685978520893189EC013D832C832C
:101DF00020893189E9019B838A831196ED90FC90BB
:101E00001297CF010C96E816F90621F412963C932E
:101E10002E931197158A148A8C9181508C93868900
:101E200090917302981710F480937302689FD00109
:101E30001124A755BD4F11962D913C9112973583D2
:101E40002483E901EC80FD80F782E682EC80FD804E
:101E5000E7015B834A83E9015D834C83B387A287F3
:101E60009C919F5F9C93E0916602F0916702968936
:101E7000891708F474CFDD24D39471CF8091700258
:101E800090917102019690937102809370020E946A
:101E9000C000D12C5ACF0F931F93CF93DF930FB66F
:101EA000F8940F928091680281508093680280912B
:101EB0006802882341F080E00F900FBEDF91CF9140
:101EC0001F910F910895809176028823A1F3F0E08D
:101ED000E0E049E051E074C0E0918F02F09190029F
:101EE0000680F781E02DA489B589868597852089AC
:101EF0003189EC013D832C83C089D1899B838A83FE
:101F0000CF010C9611962D913C9112972817390705
:101F100021F41296DC93CE931197158A148A8C9132
:101F200081508C93A285B3858481958126813781E8
:101F3000EC013D832C83C681D7819B838A839F01DB
:101F40002E5F3F4F11968D919C91129782179307A8
:101F500021F41296DC93CE9311978C9181508C933F
:101F6000868990917302981710F480937302489FAA
:101F7000D00111248D0107551D4FD8011196CD9127
:101F8000DC91D583C4836C817D81778366836C818A
:101F90007D81DB0113963C932E9312973D832C8316
:101FA00013870287E80198819F5F9883A09166025A
:101FB000B091670256969C91891710F050936F026A
:101FC00080918A02811188CFEF2B11F00E945B0B68
:101FD000C0917002D0917102209761F011E00E94CF
:101FE000500E811110936F022197C9F71092710260
:101FF0001092700280916F02882309F45CCF0E94D6
:10200000461B81E059CF0F931F93CF93DF93EC01D1
:102010008B010E942E0E209174023091750248812E
:102020005981CA01800F911F99838883241735072E
:1020300080F48417950780F0C0E00E944B0F811157
:1020400002C00E94461B8C2FDF91CF911F910F91F0
:1020500008958417950718F02817390768F760E086
:10206000821B930B0E94D90AC1E0E7CFCF93DF9385
:10207000EC01892B29F40E94461BDF91CF91089532
:102080000E942E0E60E0CE010E94D90A0E944B0FE2
:10209000882389F3F2CFCF93DF93EC010E942E0EB9
:1020A00080917002909171028C0F9D1F909371022C
:1020B00080937002DF91CF910C944B0F8091680256
:1020C000882321F081E080936F02089510926F02BF
:1020D0008091730229E0482F50E0289FF0011124DD
:1020E000E755FD4F9081992349F1A181B281129664
:1020F0000D90BC91A02DB283A183829F90011124E9
:1021000024553D4FA217B30729F412962D913C9107
:102110003283218399E0949FF001959FF00D112463
:10212000E755FD4F0180F281E02D26813781309304
:102130006702209366028093730208958150CBCF8B
:102140000F931F93CF93DF93EC010FB6F8940F9288
:10215000892B21F4C0916602D09167028E010E5F37
:102160001F4FC8010E9474048C899D89892B21F01E
:10217000CE010C960E947404B80187E792E00E9499
:1021800025048FA1813009F41FA20F900FBE80910A
:102190007202882339F00FB6F8940F920E945B0BFD
:1021A0000F900FBE80916602909167028C179D0779
:1021B00031F480917202882339F00E94461BDF912E
:1021C000CF911F910F91089590917702809176029F
:1021D000981305C01092670210926602F0CFDF914B
:1021E000CF911F910F910C945E10CF93DF93D62F58
:1021F000C72F6091660270916702645F7F4F0E94F3
:10220000450461E08D2F9C2FDF91CF910C94D90A6A
:10221000CF93DF93FC01A0916602B09167027068D2
:102220001D967C936E931C97A181B281C09166022A
:10223000D0916702BF87AE87C0916602D0916702D6
:1022400014968D919C911597998B888B209166029D
:10225000309167021496CD91DC911597245F3F4F22
:102260003B832A832091660230916702245F3F4FAF
:1022700015963C932E931497A0916602B091670235
:102280005596FC93EE93549790819F5F908361E005
:10229000CA01DF91CF910C94D90ACF93DF93FC014F
:1022A000CB01642FA181B281C0916602D0916702F7
:1022B000BF87AE87C0916602D091670214962D91B8
:1022C0003C911597398B288B2091660230916702DB
:1022D0001496CD91DC911597245F3F4F3B832A8361
:1022E0002091660230916702245F3F4F15963C9320
:1022F0002E931497A0916602B09167025596FC93B5
:10230000EE93549720812F5F2083442311F08FEFA9
:102310009FEFDF91CF910C94D90ACF93DF93DC012B
:102320001596ED91FC910680F781E02DA489B58981
:102330008685978520893189EC013D832C83C0896E
:10234000D1899B838A83CF010C9611962D913C9164
:1023500012972817390721F41296DC93CE93119720
:10236000158A148A2C9121502C93209168022111F6
:1023700053C0A285B3858481958126813781EC0184
:102380003D832C83C681D7819B838A83CF010296AC
:1023900011962D913C9112972817390721F4129626
:1023A000DC93CE9311972C9121502C93A6892091E8
:1023B00073022A1710F4A0937302D9E0AD9FD001E5
:1023C0001124AD0147555D4FDA011196CD91DC9195
:1023D000D583C4832C813D81378326832C813D8125
:1023E000D90113969C938E9312979D838C83538768
:1023F0004287EA0188818F5F8883A0916602B0914D
:102400006702968956968C91891730F581E0809302
:102410006F02DF91CF910895A0918B02B0918C0251
:10242000B787A68714962D913C911597318B208BF9
:102430001496CD91DC9115979B838A8315969C9376
:102440008E9314978AE892E0958B848B80918A0210
:102450008F5F80938A02D1CF80E0DBCFCF93DF9371
:10246000FC01706871836083A681B78140855185C6
:102470002281338184819581E9019D838C838481CC
:102480009581EC013B832A83EA0129813A812E1749
:102490003F0711F49A83898311861086FA0180819F
:1024A000815080831A96ED91FC911B9714968D9123
:1024B0009C91159716962D913C911797EC013D83B1
:1024C0002C831696CD91DC9117979B838A839D016F
:1024D0002E5F3F4F818192818217930711F4D2833F
:1024E000C18380818150808356968C9156979091BC
:1024F0007302981710F480937302D9E08D9FF00156
:102500001124BF0167557D4FFB01C181D281159612
:10251000DC93CE9314974C815D8117965C934E9318
:1025200016974C815D81FA01338322833D832C838E
:102530001B967C936E931A97EB0198819F5F98830B
:10254000E0916602F09167029689981718F481E08D
:1025500080936F02DF91CF910895FC010FB6F8943C
:102560000F9280916E028083809174029091750227
:10257000928381830F900FBE0895FC0180916E02BB
:102580008083809174029091750292838183089573
:10259000FC01DB010FB6F8940F9240917402509148
:1025A00075022D913C9111972F3F3207F9F08181EF
:1025B000928160916E027081761749F04817590731
:1025C00030F01D921C9281E00F900FBE0895BA0169
:1025D000681B790B62177307A0F7241B350B280FB4
:1025E000391F2D933C93CF010E94BD1280E0ECCFA8
:1025F00081E080936F020895809166029091670256
:10260000089580917202882331F0809168028823B6
:1026100021F080E0089581E0089582E008950F930D
:102620001F93CF93DF93EC01892B09F46EC08E8941
:10263000E0916602F09167029689891708F05CC004
:102640002C853D8537FD0BC0E0916602F091670255
:10265000968924E030E0291B31093D872C8729E049
:10266000829FC001112487559D4F2A853B852817DD
:102670003907D9F58E010E5F1F4FC8010E947404FF
:10268000E0916602F0916702E689EE8B8091730219
:102690008E1710F4E093730289E0E89FF001112493
:1026A0009F0127553D4FF901A181B281BD83AC83C4
:1026B00014968D919C9115979F838E8314968D917E
:1026C0009C911597FC011383028315961C930E931E
:1026D00014973B872A87F90180818F5F808381E08F
:1026E000DF91CF911F910F910895E0916602F091D3
:1026F000670286898E8BF3CFE0916602F0916702C4
:1027000081E029A19689291758F380E0E9CF0F933A
:102710001F93CF93DF93EC01892B31F480E0DF919D
:10272000CF911F910F9108958AA181508AA32E897C
:1027300099A1291799F38111F1CF8E010E5F1F4FD7
:10274000C8010E94740489A18E8B482F50E024E0B8
:1027500030E0241B350B3D872C879091730298172E
:1027600010F48093730289E0849FF001859FF00D3F
:1027700011249F0127553D4FF901A181B281BD83ED
:10278000AC8314968D919C9115979F838E8314969C
:102790008D919C911597FC011383028315961C93D0
:1027A0000E9314973B872A87F90180818F5F80837E
:1027B00081E0B5CF0F931F93CF93DF93EC01892B6B
:1027C00009F452C099A1961708F4962F8E8989179B
:1027D00009F44AC02AA1213009F046C09E8B2C85FD
:1027E0003D8537FD06C024E030E0291B31093D87D7
:1027F0002C8729E0829FC001112487559D4F2A858F
:102800003B852817390781F58E010E5F1F4FC801E0
:102810000E947404EE89809173028E1710F4E09385
:10282000730289E0E89FF00111249F0127553D4F75
:10283000F901A181B281BD83AC8314968D919C91E5
:1028400015979F838E8314968D919C911597FC010B
:102850001383028315961C930E9314973B872A8744
:10286000F90180818F5F8083DF91CF911F910F915C
:102870000895E0916602F091670284859585A091A4
:102880006602B0916702E0916602F0916702569687
:102890004C9124E030E0241B3109358724870895CA
:1028A0008091660290916702892B39F0E09166026F
:1028B000F091670282A18F5F82A38091660290915E
:1028C00067020895CF92DF92EF92FF920F931F93CA
:1028D000CF93DF93C82FF62ECA010FB6F8940F924C
:1028E000E0916602F09167020C2F10E024E0C29F95
:1028F000E0011124EC0FFD1F43A154A165A176A1B5
:10290000452B462B472B79F4E0916602F091670244
:10291000E00FF11F21E027A3009729F061E00E945A
:10292000D90A0E94461B0F900FBE0FB6F8940F9263
:10293000E0916602F0916702EC0FFD1F63A174A1A4
:1029400085A196A1611571058105910561F0209120
:10295000660230916702C20FD31FFF20B1F01BA2A5
:102960001CA21DA21EA2E0916602F0916702E00F78
:10297000F11F17A20F900FBEDF91CF911F910F9102
:10298000FF90EF90DF90CF9008956B017C0121E0E4
:10299000C21AD108E108F108CBA2DCA2EDA2FEA286
:1029A000E2CF4F925F926F927F928F929F92AF92FF
:1029B000BF92CF92DF92EF92FF920F931F93CF932C
:1029C000DF93C82F2A013B01480159018701C60145
:1029D0000FB6F8940F92E0916602F0916702D0E092
:1029E000EC0FFD1F27A1223051F1E0916602F0911A
:1029F00067029E01220F331F220F331FE20FF31FC6
:102A000043A154A165A176A1409450946094709420
:102A1000442255226622772243A254A265A276A2BE
:102A2000E0916602F0916702EC0FFD1F21E027A301
:102A3000009729F061E00E94D90A0E94461B0F907E
:102A40000FBE0FB6F8940F9201151105A1F0E09199
:102A50006602F0916702CE01880F991F880F991FB7
:102A6000E80FF91F83A194A1A5A1B6A1F801808365
:102A70009183A283B383E0916602F0916702EC0F29
:102A8000FD1F87A18230B1F5E0916602F0916702E7
:102A9000CE01880F991F880F991FE80FF91F83A196
:102AA00094A1A5A1B6A180949094A094B0948821FB
:102AB0009921AA21BB2183A394A3A5A3B6A381E056
:102AC0002091660230916702C20FD31F1FA20F90A0
:102AD0000FBEDF91CF911F910F91FF90EF90DF908C
:102AE000CF90BF90AF909F908F907F906F905F90AE
:102AF0004F90089580E0E4CF8F929F92AF92BF9263
:102B0000EF92FF920F931F93CF93DF93DC01490164
:102B10005A01C801F7010FB6F8940F9270E0309790
:102B200079F0EB01CC0FDD1FCC0FDD1FCA0FDB1FCF
:102B30000BA11CA12DA13EA100831183228333830D
:102B4000FD01E60FF71F27A132E037A3833091057F
:102B5000E1F0B0F48130910501F1029791F121305B
:102B600009F443C081E00F900FBEDF91CF911F9118
:102B70000F91FF90EF90BF90AF909F908F9008952E
:102B8000049769F780E0223071F3660F771F660FB4
:102B9000771FFD01E60FF71F0FC0660F771F660F47
:102BA000771FFD01E60FF71F43A154A165A176A190
:102BB000842A952AA62AB72A83A294A2A5A2B6A2FD
:102BC000CECF660F771F660F771FFD01E60FF71F49
:102BD00043A154A165A176A14F5F5F4F6F4F7F4F17
:102BE00043A354A365A376A3BACF1A96ED91FC91A3
:102BF0001B9714968D919C91159716962D913C914B
:102C00001797EC013D832C831696CD91DC91179795
:102C10009B838A839D012E5F3F4F81819281821722
:102C2000930711F4D283C1838081815080835696AB
:102C30008C91569790917302981710F480937302B9
:102C4000D9E08D9FF0011124BF0167557D4FFB0135
:102C5000C181D2811596DC93CE9314974C815D810E
:102C600017965C934E9316974C815D81FA013383DE
:102C700022833D832C831B967C936E931A97EB01E2
:102C800098819F5F9883E0916602F0916702968930
:102C9000981708F067CF0E94461B64CF8F929F92CF
:102CA000AF92BF92CF92DF92EF92FF920F931F935A
:102CB000CF93DF93DC0149015A01C801E701760196
:102CC00070E0209781F09B01220F331F220F331FEA
:102CD0002A0F3B1FF90103A114A125A136A10883E6
:102CE00019832A833B83FD01E60FF71F27A132E0FA
:102CF00037A383309105E1F0B0F48130910501F103
:102D0000029791F1213009F443C081E0DF91CF9126
:102D10001F910F91FF90EF90DF90CF90BF90AF90F9
:102D20009F908F900895049769F780E0223071F3A7
:102D3000660F771F660F771FFD01E60FF71F0FC0A5
:102D4000660F771F660F771FFD01E60FF71F43A180
:102D500054A165A176A1842A952AA62AB72A83A21E
:102D600094A2A5A2B6A2CECF660F771F660F771FDB
:102D7000FD01E60FF71F43A154A165A176A14F5FA6
:102D80005F4F6F4F7F4F43A354A365A376A3BACF82
:102D900080916802811162C01A96ED91FC911B9797
:102DA00014962D913C91159716968D919C9117979D
:102DB000E9019D838C8316968D919C911797EC0168
:102DC0003B832A839D012E5F3F4F418152814217F1
:102DD000530711F4928381838081815080835696BA
:102DE000EC915697809173028E1710F4E093730262
:102DF000D9E0ED9FF0011124E755FD4F81819281CB
:102E000015969C938E931497EC014C815D811796D7
:102E10005C934E9316974C815D81EA013B832A8334
:102E2000EC013D832C831B96FC93EE931A978081D3
:102E30008F5F8083E0916602F091670256969C91C5
:102E40008689891708F061CFE114F10419F081E057
:102E5000F701808381E080936F0258CFE0918B026D
:102E6000F0918C021F96FC93EE931E9784819581BE
:102E700051969C938E93509724813581CD010C9669
:102E8000E9019B838A83958384838AE892E055963F
:102E90009C938E93549780918A028F5F80938A02CD
:102EA000C9CF0F931F93CF93DF93FC018A0170E08A
:102EB000860F971FDC0197962C91979732E0979693
:102EC0003C93DB01AA0FBB1FAA0FBB1FAE0FBF1F96
:102ED00093964D915D916D917C9196974F5F5F4F69
:102EE0006F4F7F4F93964D935D936D937C93969721
:102EF000213009F05AC08091680281115BC0A2851F
:102F0000B3852481358186819781E9019D838C83F6
:102F100086819781EC013B832A839F012E5F3F4F7F
:102F200011964D915C9112974217530721F4129616
:102F30009C938E9311978C9181508C93A68980914C
:102F400073028A1710F4A0937302D9E0AD9FD001E9
:102F50001124A755BD4F11968D919C911297958381
:102F60008483EC014C815D81578346834C815D8174
:102F7000EA013B832A83EC013D832C83B387A2873C
:102F80008C918F5F8C93A0916602B09167029689B5
:102F900056968C91891748F40115110519F081E0B6
:102FA000F801808381E080936F02DF91CF911F91C0
:102FB0000F910895A0918B02B0918C02B787A687DC
:102FC00014968D919C911597918B808B14962D91D1
:102FD0003C911597CF010C96E9019B838A83159646
:102FE0009C938E9314978AE892E0958B848B8091C2
:102FF0008A028F5F80938A02C6CFFC01892B21F45D
:10300000E0916602F09167020FB6F8940F92E60F16
:10301000F11D87A1823029F417A281E00F900FBE25
:10302000089580E0FBCFCF93DF9300D00F92CDB710
:10303000DEB7FC01C901DA01309721F4E0916602A4
:10304000F09167020FB6F8940F9224E0629FB001EE
:103050001124E60FF71F23A134A145A156A129830E
:103060003A834B835C8343A154A165A176A18095EB
:103070009095A095B09584239523A623B72383A389
:1030800094A3A5A3B6A30F900FBE69817A818B810B
:103090009C810F900F900F900F90DF91CF9108952A
:1030A0000FB6F8940F928091D1029091D202892BA1
:1030B00019F580EE92E00E94130487ED92E00E94E1
:1030C000130480EE92E09093D6028093D50287EDB0
:1030D00092E09093D4028093D30240E065E085E0D3
:1030E0000E9498059093D2028093D102009721F01C
:1030F00062E172E00E943A0A0F900FBE0895FC014F
:10310000CA0173836283F187E0874617570790F0FF
:10311000821B930B2485358582179307C8F4BF0162
:103120006E5F7F4F8091D3029091D4020E9445043C
:1031300080E008954217530718F46217730740F4AC
:10314000BF016E5F7F4F8091D5029091D602EECF86
:1031500081E00895EF92FF920F931F93CF93DF9337
:10316000EC018B017A016C857D85600F711F9801E0
:10317000A701CE010E947F18811107C0DF91CF9176
:103180001F910F91FF90EF9008958C859D85080FFA
:10319000191FE889F989CE011995E5CFEF92FF92C1
:1031A0000F931F93CF93DF938C017B01E091D502A6
:1031B000F091D6020580F681E02DC681D781CE013F
:1031C00002960E9474042A8922FF0FC0A701B80149
:1031D000CE010E94AA18E889F989CE01DF91CF912A
:1031E0001F910F91FF90EF9019942E7F2A8BF3CFB0
:1031F0000F931F93CF93DF938C010E94340EEC0149
:103200008091CD029091CE02C817D90750F5E09178
:10321000D502F091D6028081811119C08091D3022C
:103220009091D4029093D6028093D502F093D40269
:10323000E093D30281E0F8018083D093CE02C09363
:10324000CD02CE01DF91CF911F910F91089505809E
:10325000F681E02D6FEF7FEF808191810E94CE1883
:10326000D6CFF8011082E9CFCF93DF9300D000D002
:10327000CDB7DEB7CE0101967C010596B82EA92EFA
:10328000E091D502F091D602708000E010E0772046
:1032900029F00580F681E02D008111810E942E0E1B
:1032A000C7010E94F8186C0149814701411154C0BF
:1032B0007720D1F18017910708F43EC00E944B0F90
:1032C000B601C8010E94CE1840E050E0B4018091E0
:1032D000D1029091D2020E94EF06882389F289815F
:1032E00087FDF2CF0C811D81D8011A968D919C919A
:1032F000892B21F0C80102960E9474048B2D9A2D0F
:103300000E94F8186C01E981E150E930E8F60E2ED0
:10331000000CFF0BD80152969C9152978827E655D6
:10332000F24E8F4F0C946F1CE091D302F091D402B7
:10333000808141E0811140E0B8016C197D098091E4
:10334000D1029091D2020E94BD0A0E944B0F8111BE
:10335000BBCF0E94461BB8CF0E944B0FB5CF9160E8
:10336000F801928B2A813B8164857585620F731FFA
:10337000A601C8010E947F18882309F4A5CFD801AF
:1033800052968C91529782FF12C06A817B811C9663
:103390008D919C91680F791FA601C8010E94AA18FF
:1033A000D8015096ED91FC91C80119958DCF8E7F73
:1033B000F801828BF5CF916052969C9352976A8167
:1033C0007B811D967C936E931C976C0D7D1D9601E1
:1033D000A601C8010E947F1877CF91FD04C0C801E3
:1033E0000E94EA1A71CF9E7FF801928B6DCFEF9207
:1033F000FF920F930E9450188091D1029091D202B7
:10340000892B99F08FECE82E82E0F82E03E030E073
:1034100020E04CED50E067E172E084E399E10E9426
:10342000A10B0F91FF90EF90089580E0FACF9F924B
:10343000AF92BF92CF92DF92EF92FF920F931F93C2
:10344000CF93DF93982EA92EB62EC72EF42ED22E10
:10345000E32E83E190E00E94D71AEC01892BA1F0C2
:103460001A8A0E9450189882A982BC86CD86DE8670
:10347000EF86088B198BCE0102960E942104FF2053
:1034800019F08A8984608A8BCE01DF91CF911F91D8
:103490000F91FF90EF90DF90CF90BF90AF909F90F3
:1034A00008950F931F93CF93DF9300D00F920F9245
:1034B000CDB7DEB7782FF42FE52FA901A091D10267
:1034C000B091D20280E01097B9F06983FA83EB8360
:1034D0007C839D836630F4F40E940113282F809131
:1034E000D1029091D202223089F420E0A801BE01DD
:1034F0006F5F7F4F0E94C0050F900F900F900F904D
:103500000F90DF91CF911F910F91089520E050E02F
:1035100040E0EDCF20E0BE016F5F7F4FCD010E9404
:103520009B06EACF8091CF029091D0020895FC01D2
:10353000848595850895FC010FB6F8940F928289D1
:10354000662329F08460828B0F900FBE08958B7FD5
:10355000FACFFC010FB6F8940F92828982FB88277C
:1035600080F90F900FBE0895FC0182819381089528
:10357000FC01808191810895FC010FB6F8940F92AF
:10358000828981700F900FBE0895FC010FB6F894E8
:103590000F92868597850F900FBE0895FC010FB698
:1035A000F8940F92668777870F900FBE0895CF9398
:1035B000DF93D82FC92F0E942E0E8D2F9C2F0E9493
:1035C000771CD82FC92F0E944B0F8D2F9C2FDF9176
:1035D000CF910895CF93DF93EC01892B49F00E949E
:1035E0002E0ECE010E940D1DDF91CF910C944B0F3A
:1035F000DF91CF910895FC016083DC0111977C93EA
:1036000011971C92119780E88C9311971C925797F1
:103610004C9311975C93CF018397089588E190ECC8
:103620000FB6F894A895809360000FBE9093600049
:10363000A0916602B0916702CD91CDBFDD91DEBF52
:10364000FF91EF91DF91CF91BF91AF919F918F91BA
:103650007F916F915F914F913F912F911F910F91AA
:10366000FF90EF90DF90CF90BF90AF909F908F90A2
:103670007F906F905F904F903F902F901F900F9092
:103680000FBE0F90089581E0089508950F920FB630
:10369000F8940F921F9211242F923F924F925F92B3
:1036A0006F927F928F929F92AF92BF92CF92DF9252
:1036B000EF92FF920F931F932F933F934F935F933C
:1036C0006F937F938F939F93AF93BF93CF93DF932A
:1036D000EF93FF93A0916602B09167020DB60D9231
:1036E0000EB60D920E945E10A0916602B091670224
:1036F000CD91CDBFDD91DEBFFF91EF91DF91CF91F5
:10370000BF91AF919F918F917F916F915F914F91F9
:103710003F912F911F910F91FF90EF90DF90CF90ED
:10372000BF90AF909F908F907F906F905F904F90E1
:103730003F902F901F900F900FBE0F9008950F9203
:103740000FB6F8940F921F9211242F923F924F922E
:103750005F926F927F928F929F92AF92BF92CF9221
:10376000DF92EF92FF920F931F932F933F934F930C
:103770005F936F937F938F939F93AF93BF93CF93F9
:10378000DF93EF93FF93A0916602B09167020DB6AD
:103790000D920EB60D920E945E10A0916602B0913D
:1037A0006702CD91CDBFDD91DEBFFF91EF91DF913B
:1037B000CF91BF91AF919F918F917F916F915F91C9
:1037C0004F913F912F911F910F91FF90EF90DF90BC
:1037D000CF90BF90AF909F908F907F906F905F90B1
:1037E0004F903F902F901F900F900FBE0F90189505
:1037F0000F920FB6F8940F921F9211242F923F92BE
:103800004F925F926F927F928F929F92AF92BF92F0
:10381000CF92DF92EF92FF920F931F932F933F93DC
:103820004F935F936F937F938F939F93AF93BF93C8
:10383000CF93DF93EF93FF93A0916602B09167025D
:103840000DB60D920EB60D920E94500E81110E947F
:103850005E10A0916602B0916702CD91CDBFDD915F
:10386000DEBFFF91EF91DF91CF91BF91AF919F911B
:103870008F917F916F915F914F913F912F911F9108
:103880000F91FF90EF90DF90CF90BF90AF909F90FF
:103890008F907F906F905F904F903F902F901F90F0
:1038A0000F900FBE0F90189500000E94F81B1895FE
:1038B00040E064E081E00E949805892B79F0F12CCA
:1038C000E12C01E030E020E04EE650E067E072E0FD
:1038D00083EA90E00E94A10B0E94FC0DFFCFEE0F47
:1038E000FF1F881F8BBF0790F691E02D19940F934F
:1038F0001F93CF93DF939C01029710F422E030E0F6
:10390000E091E902F091EA0290E080E0B0E0A0E00E
:10391000309791F4009709F445C0821B930B8430D3
:103920009105B8F58A819B816115710569F1FB01EB
:1039300093838283FE0111C04081518102811381F2
:1039400042175307F0F04217530799F4109761F0AC
:1039500012960C93129713961C933296CF01DF9117
:10396000CF911F910F9108950093E9021093EA02FD
:10397000F4CF009719F04817590718F4CA01BD0190
:10398000EF01DF01F801C4CF9093EA028093E902CE
:10399000D1CFFE01E80FF91F21933193029799834C
:1039A0008883DCCF8091EB029091EC02892B41F46B
:1039B00080910302909104029093EC028093EB02B9
:1039C0008091010290910202009741F48DB79EB759
:1039D0004091050250910602841B950B4091EB0229
:1039E0005091EC024817590708F0B8CF841B950B8B
:1039F0008217930708F4B2CFB9016E5F7F4F861725
:103A0000970708F4ABCF640F751F7093EC026093B7
:103A1000EB02FA0121933193A1CFCF93DF939C0165
:103A20000097E9F0FC01329713821282C091E902FB
:103A3000D091EA02DE0190E080E02097A1F480813D
:103A40009181280F391F8091EB029091EC0282172F
:103A5000930709F067C0F093EC02E093EB02DF916B
:103A6000CF910895DA01AE17BF0708F041C0129652
:103A70004D915C911397CD014115510599F7DC01EA
:103A80001396FC93EE9312974D915D91A40FB51F81
:103A9000EA17FB0781F4208131812E5F3F4F240F0D
:103AA000351FDC0111963C932E93228133811396AE
:103AB0003C932E931297B0E0A0E08A819B810097FF
:103AC000B1F5FE0181919191E80FF91F8091EB0210
:103AD0009091EC028E179F0711F6109759F51092EE
:103AE000EA021092E902D093EC02C093EB02B7CF46
:103AF000B383A28340815181240F351FA217B307DE
:103B000071F44E5F5F4F2D913C911197420F531FFF
:103B10005183408312962D913C91338322830097E9
:103B200009F0ADCFF093EA02E093E90298CFDE010D
:103B3000EC01C3CF13961C921E921297D4CFFB01B7
:103B4000DC0102C001900D9241505040D8F7089519
:103B5000F894FFCFAF19AF19F319DB19ED19AF19AD
:063B6000AF19F319DB1997
:103B6600030000ED022000626C696E6B0049444C54
:103B76004500546D725100546D72205376630000F7
:00000001FF
