:100000000C9466020C9487020C9487020C9487026D
:100010000C9487020C9487020C9487020C9487023C
:100020000C9487020C9487020C9414050C9487029C
:100030000C9487020C9487020C9487020C9487021C
:100040000C9487020C9487020C9487020C9487020C
:100050000C9487020C94000A0C9487020C947E0581
:100060000C9487020C94CC070C9487020C94FE0627
:100070000C9487020C9489020C9487020C948702DA
:100080000C9487020C9487020C9487020C948702CC
:100090000C94A0070C9487020C94CD060C94870254
:1000A0000C9487020C9487020C9487020C948702AC
:1000B0000C9487020C9487020C9487020C9487029C
:1000C0000C9487020C9487020C9487020C9474079A
:1000D0000C9487020C949C060C9448070C9487029D
:1000E0000C946B06C601C60108020C022502C6016B
:1000F000C60108020C020C9425020C948F040C9487
:100100000C020C94B4030C9433020C9408020C946B
:100110008B000C94C601CF93DF93CDB7DEB72B973E
:100120000FB6F894DEBF0FBECDBFE091E603F091AD
:10013000E7031081112341F00780F085E02D408016
:1001400051806280738003C0412C512C32010E9487
:10015000D80F0E94C40D6B017C0180919703909190
:100160009803A0919903B0919A03C816D906EA069C
:10017000FB0620F40E94F20B81E001C080E0C092F7
:100180009703D0929803E0929903F0929A03811119
:1001900080C0112371F0C414D504E604F70480F084
:1001A0000E94D20DA7019601C301B2010E94B80BB3
:1001B000B3C0E091E403F091E503808141E0811157
:1001C00040E0A090E803B090E9030FB6F8940F92D6
:1001D000D50191968C9191978F3F11F491961C9235
:1001E000F50182A18F3F09F412A20F900FBED50135
:1001F0005E968C915E97811142C05496ED91FC9170
:100200005597A0914604B09147045396FC93EE9302
:100210005297A0914604B0914704868197815596E4
:100220009C938E9354978091460490914704A681A5
:10023000B7810E9615969C938E93149780914604E1
:10024000909147040E9697838683E0914604F0913F
:100250004704C5014396918F808FF50183898F5F95
:10026000838B411107C0C301B2016C197D098E094E
:100270009F0903C06FEF7FEFCB010E94720CC50195
:100280000E94E90F0E94D20D811146C00E94030A0C
:1002900043C00E94D20D40C040A141114AC011503C
:1002A000F501168F808581115EC00F900FBE1981F8
:1002B00017FD32C0AE80BF80D5011C968D919C91F8
:1002C0001D97892B21F0C50102960E94C80A0E9441
:1002D000C40D2B013C018091970390919803A0914C
:1002E0009903B0919A03481659066A067B0610F4E2
:1002F0000E94F20B409297035092980360929903E8
:1003000070929A03812F110F990BAA0BBB0BFC0162
:100310003197E930F10588F1A090E803B090E90346
:100320000FB6F8940F92F501168D112309F498C0B9
:10033000B3CF50E086819781840F951F9783868382
:10034000248135818217930720F0808191819783E2
:100350008683D50116966D917C911797CE010196F3
:100360000E9420149CCFC50108960E94180D882376
:1003700009F49BCF0E94030A98CFD50156969C9111
:100380008827EE58FF4F8F4F0C9418149160F50199
:10039000968B8A819B81AC81BD8188879987AA874A
:1003A000BB874685578560897189480F591F6A1F29
:1003B0007B1F6C017D0193018201C5010E94300BFE
:1003C000882309F4A9CFD50156968C91569782FFC0
:1003D00014C01E964D915D916D917C915197C8848A
:1003E000D984EA84FB844C0D5D1D6E1D7F1D930135
:1003F0008201C5010E94740B03C08E7FF501868BBC
:10040000D5015496ED91FC915597C501199584CF6E
:100410009E7FF501968B80CF9160D50156969C9377
:100420004A815B816C817D81F50146875787608BAE
:10043000718B440D551D661D771D7301620193017B
:100440008201C5010E94300B67CF91FD04C0C50138
:100450000E94240C61CF9E7FD50156969C935CCF61
:100460000F900FBE62CE00E010E08091CB03882396
:1004700009F10FB6F8940F92E0910804F091090485
:10048000C085D185CE0102960E94C80A8091480499
:100490008150809348048091CB0381508093CB039B
:1004A0000F900FBE8B8D9C8D0E94240CCE010E945C
:1004B000240CDBCF80911704823010F00E94030AD5
:1004C0000115110591F20E940000CFCF11241FBE2B
:1004D000CFEFD1E2DEBFCDBF00E00CBF13E0A0E064
:1004E000B2E0E6E3FEE200E00BBF02C007900D922F
:1004F000A039B107D9F724E0A0E9B3E001C01D920B
:10050000AE39B207E1F70E947F110C9419170C94D1
:1005100000001F920F920FB60F9211240BB60F928C
:100520002F933F934F935F936F937F938F939F93FB
:10053000AF93BF93CF93DF93EF93FF9380917800B6
:10054000909179002091C403E091C303F0E0EE0F95
:10055000FF1F222319F0E155FC4F02C0E556FC4F66
:10056000918380838091C3038F5F8093C3038091C5
:10057000C3038A3049F49091C40381E0911180E073
:100580008093C4031092C30380E090E00E94661140
:100590008091C30390E0009779F0FC01EE0FFF1FFC
:1005A000EF5EFD4F208131812130310539F022305D
:1005B000310531F0232B29F4889803C0899801C0B4
:1005C0008A98880F991FFC01ED5EFD4F20813181D3
:1005D0002F3F4FEF340769F02130310539F02230D9
:1005E000310531F0232B29F4889A03C0899A01C080
:1005F0008A9A20917C00207E20937C0020917C00B0
:10060000FC01E75FFD4F80818F71822B80937C001E
:1006100080917B00877F80937B0080917B0090811D
:1006200095FB992790F9C92F90E0D92F93E0CC0F33
:10063000DD1F9A95E1F7C82BC0937B008091C3031F
:10064000882329F080917A00806480937A00FF915A
:10065000EF91DF91CF91BF91AF919F918F917F915A
:100660006F915F914F913F912F910F900BBE0F9023
:100670000FBE0F901F901895DF92EF92FF920F938D
:100680001F93CF93DF93CDB7DEB7C054D1090FB618
:10069000F894DEBF0FBECDBF9F938F938E010F5F87
:1006A0001F4F1F930F930E9430140F900F900F90C5
:1006B0000F90F8948091D5039091D403891708F492
:1006C000805C891B7894F80101900020E9F731974C
:1006D000E01BF10B90E08E179F0780F40E94D80F6B
:1006E00040E063E070E080E090E00E94720C0E94C5
:1006F000D20D8111DECF0E94030ADBCF7E0182E49E
:10070000E80EF11CDD24D394F80161918F0166237A
:10071000E1F08091D603811108C040EA51ED61E01B
:1007200070E081E00E94C8050DC08091D70381115F
:1007300005C0D092D7036093CE0004C082ED93E051
:100740000E942F070E151F05F9F6C05CDF4F0FB68C
:10075000F894DEBF0FBECDBFDF91CF911F910F91F7
:10076000FF90EF90DF9008950F931F93CF93DF9347
:1007700040E051EE60E070E080E00E94C80540E09B
:1007800051EE60E070E081E00E94C8058FEF81B912
:1007900012B88DE192E00E943C0387E492E00E944F
:1007A0003C0381E792E00E943C038BE992E00E94C7
:1007B0003C0385EC92E00E943C038DE192E00E94B4
:1007C0003C038FEE92E00E943C038FE39CE901978B
:1007D000F1F700C0000083E093E00E943C038FE348
:1007E0009CE90197F1F700C00000279B279A2F98FA
:1007F0008FE396E09093A7008093A6001092A90043
:100800001092A8001092AB001092AA001092AD00B6
:100810001092AC008EEF8093A00089E18093A1003C
:100820008091A6009091A70087E193E00E943C038D
:1008300080E393E00E943C0300E010E021E040E010
:1008400051E066E473E08FE894E00E942B108CE4A2
:1008500093E00E943C030FB6F8940F92C0914604B7
:10086000D09147048E010E5F1F4FC8010E94C80A35
:10087000888D998D892B21F0CE010E960E94C80A91
:10088000809144048F5F809344048091460490914A
:100890004704C817D90709F5E0910204F091030451
:1008A000FF83EE838681978199878887A681B781A8
:1008B00015961C930E9314971783068381E094E09A
:1008C0009D878C87809101048F5F809301048091C4
:1008D000CB038F5F8093CB030EC08091480481507F
:1008E000809348048B8D9C8D0E94240CCE010E9425
:1008F000240C0E94530C0F900FBE80914504882356
:1009000049F08091460490914704C817D90711F423
:100910000E94030ADF91CF911F910F910895CF9309
:10092000DF93CDB7DEB7E2970FB6F894DEBF0FBE08
:10093000CDBF269A0E94C40D2B013C010E94D80F06
:1009400040E06AE070E080E090E00E94720C0E945B
:10095000D20D811102C00E94030A80E4982E00E5A6
:1009600013E09E012F5F3F4F5901139A85B18925EE
:1009700085B90E94C40D1F921F921F921F921F9251
:100980001F921F921F921F921F929F938F937F938C
:100990006F931F930F93BF92AF920E943014C501C3
:1009A0000E943C0313980E94D80F8091EA03909113
:1009B000EB03A091EC03B091ED037301620138E207
:1009C000C30ED11CE11CF11C0FB6F894DEBF0FBEA4
:1009D000CDBF84159505A605B70530F4C414D5041C
:1009E000E604F70458F405C0C414D504E604F7047B
:1009F00078F08C159D05AE05BF0550F00E94D20D14
:100A0000882319F026013701B0CF0E94030AFACFDC
:100A1000A7019601281B390B4A0B5B0BCA01B901D0
:100A200040E00E94720CEACF1F920F920FB60F9215
:100A300011240BB60F922F933F934F935F936F93B5
:100A40007F938F939F93AF93BF93CF93EF93FF9336
:100A5000809103018170C0910301C27090910102E5
:100A6000891731F08093010280E090E00E946611C6
:100A700080910002C81731F0C093000280E090E03E
:100A80000E946611FF91EF91CF91BF91AF919F911D
:100A90008F917F916F915F914F913F912F910F9027
:100AA0000BBE0F900FBE0F901F9018950F931F93C2
:100AB00000E010E021E040E051E06DE773E084EBFE
:100AC00093E00E942B101F910F910895FC014FB7E6
:100AD000F894238130E02F5F3F4F2F7333278281BB
:100AE00090E02817390739F0A081B181A20FB31F18
:100AF0008C91238301C080E04FBF08951F920F9215
:100B00000FB60F9211242F933F938F939F93AF9320
:100B1000BF938091800490918104A0918204B09150
:100B2000830430917F0423E0230F2D3720F40196B6
:100B3000A11DB11D05C026E8230F0296A11DB11D00
:100B400020937F048093800490938104A093820477
:100B5000B093830480917B0490917C04A0917D04E8
:100B6000B0917E040196A11DB11D80937B049093EA
:100B70007C04A0937D04B0937E04BF91AF919F91BC
:100B80008F913F912F910F900FBE0F901F9018954E
:100B9000EF92FF920F931F93CF93DF939A01AB01D4
:100BA000082F10E0C6E0C09FB001C19F700D112456
:100BB000FB01E453FC4F9481913009F482C0FB01A6
:100BC000E75BFB4F9481913009F47BC0813051F198
:100BD000B8F08230C9F1833009F075C060E472E486
:100BE0008FE090E00E94F6132150310930933501D7
:100BF0002093340188ED80933101C093320135C0D8
:100C000060E472E48FE090E00E94F6132150310915
:100C10003093C5002093C40088ED8093C100C09339
:100C2000C20023C060E472E48FE090E00E94F613FB
:100C3000215031093093CD002093CC0088ED809372
:100C4000C900C093CA0011C060E472E48FE090E074
:100C50000E94F613215031093093D5002093D4001F
:100C600088ED8093D100C093D20080E490E00E9490
:100C7000D5127C01892B39F186E0809FE001819FAC
:100C8000D00D1124FE01E453FC4FF182E082128268
:100C90000FE3038311E01483158280E490E00E9447
:100CA000D512009751F0FE01E75BFB4F91838083E3
:100CB000128203831483158204C0C7010E946D133E
:100CC00002C081E001C080E0DF91CF911F910F91C0
:100CD000FF90EF9008951F920F920FB60F9211247C
:100CE0000BB60F922F933F934F935F936F937F9326
:100CF0008F939F93AF93BF93EF93FF938EED93E00A
:100D00000E946605811103C01092E30302C0809324
:100D10003601FF91EF91BF91AF919F918F917F919C
:100D20006F915F914F913F912F910F900BBE0F905C
:100D30000FBE0F901F9018951F920F920FB60F9233
:100D400011240BB60F922F933F934F935F936F93A2
:100D50007F938F939F93AF93BF93EF93FF9388ED10
:100D600093E00E946605811103C01092DD0302C06A
:100D70008093D600FF91EF91BF91AF919F918F919A
:100D80007F916F915F914F913F912F910F900BBE8B
:100D90000F900FBE0F901F9018951F920F920FB6D5
:100DA0000F9211240BB60F922F933F934F935F93A3
:100DB0006F937F938F939F93AF93BF93EF93FF9323
:100DC00082ED93E00E946605811103C01092D70363
:100DD00002C08093CE00FF91EF91BF91AF919F91A0
:100DE0008F917F916F915F914F913F912F910F90D4
:100DF0000BBE0F900FBE0F901F9018951F920F9271
:100E00000FB60F9211240BB60F922F933F934F936F
:100E10005F936F937F938F939F93AF93BF93EF9362
:100E2000FF938CEC93E00E946605811103C0109241
:100E3000D10302C08093C600FF91EF91BF91AF91A3
:100E40009F918F917F916F915F914F913F912F91E2
:100E50000F900BBE0F900FBE0F901F901895FC01C6
:100E60008FB7F89492812381921779F0A081B18194
:100E7000A90FB11D6C93228130E02F5F3F4F2F737C
:100E8000332722838FBF81E008958FBF80E00895CC
:100E90001F920F920FB60F9211240BB60F922F9341
:100EA0003F934F935F936F937F938F939F93AF93F2
:100EB000BF93EF93FF93609136018BE594E00E941E
:100EC0002F07FF91EF91BF91AF919F918F917F91EC
:100ED0006F915F914F913F912F910F900BBE0F90AB
:100EE0000FBE0F901F9018951F920F920FB60F9282
:100EF00011240BB60F922F933F934F935F936F93F1
:100F00007F938F939F93AF93BF93EF93FF936091E2
:100F1000D60085E594E00E942F07FF91EF91BF91E5
:100F2000AF919F918F917F916F915F914F913F9181
:100F30002F910F900BBE0F900FBE0F901F90189522
:100F40001F920F920FB60F9211240BB60F922F9390
:100F50003F934F935F936F937F938F939F93AF9341
:100F6000BF93EF93FF936091CE008FE494E00E94D3
:100F70002F07FF91EF91BF91AF919F918F917F913B
:100F80006F915F914F913F912F910F900BBE0F90FA
:100F90000FBE0F901F9018951F920F920FB60F92D1
:100FA00011240BB60F922F933F934F935F936F9340
:100FB0007F938F939F93AF93BF93EF93FF93609132
:100FC000C60089E494E00E942F07FF91EF91BF9142
:100FD000AF919F918F917F916F915F914F913F91D1
:100FE0002F910F900BBE0F900FBE0F901F90189572
:100FF0000F920FB6F8940F920BB60F920CB60F9299
:101000001F9211242F923F924F925F926F927F9284
:101010008F929F92AF92BF92CF92DF92EF92FF9208
:101020000F931F932F933F934F935F936F937F93F0
:101030008F939F93AF93BF93CF93DF93EF93FF93E0
:10104000A0914604B09147040DB60D920EB60D92D4
:1010500013BE80919603811127C14091EA035091FC
:10106000EB036091EC037091ED034F5F5F4F6F4FA7
:101070007F4F4093EA035093EB036093EC0370932C
:10108000ED034115510561057105D9F58091F40312
:101090009091F5032091F2033091F3033093F5031F
:1010A0002093F4039093F3038093F20380919003D1
:1010B0008F5F80939003E091F403F091F5038081BA
:1010C00081110CC08FEF9FEFDC018093EE039093B2
:1010D000EF03A093F003B093F10313C0E091F40386
:1010E000F091F5030780F085E02D80819181A28148
:1010F000B3818093EE039093EF03A093F003B0933A
:10110000F1038091EE039091EF03A091F003B09171
:10111000F103481759076A077B0708F4B0C080E05D
:101120009BE0B92EE091F403F091F50390819111C9
:101130000CC04FEF5FEFBA014093EE035093EF0303
:101140006093F0037093F1039BC0E091F403F0917E
:10115000F5030780F085E02D0084F185E02D028104
:10116000138124813581401751076207730748F4C2
:101170000093EE031093EF032093F0033093F103F9
:101180007FC0A485B5852681378100851185E90159
:101190001F830E8300851185E8013D832C839F0109
:1011A0002E5F3F4F1196ED90FC901297E216F306DA
:1011B00021F412961C930E931197158614869C9118
:1011C00091509C93A08DB18D1097F9F002891389ED
:1011D000E488F588E801FF82EE82E488F588E7017B
:1011E0001D830C831196CD90DC9012978F01025FC6
:1011F0001F4FC016D10621F41296FC92EE92119761
:10120000118E108E9C9191509C93A28D90914304CD
:101210009A1710F4A0934304BA9ED0011124A95E3A
:10122000BB4F11960D90BC91A02DB783A683169647
:101230000D911C9117971187008716960D911C919F
:101240001797E8013D832C8317963C932E931697AE
:10125000A28DBA9ED0011124A95EBB4FB587A48789
:101260009C919F5F9C93A0914604B0914704228D6E
:101270005A969C91291708F455CF81E053CF80E00E
:10128000E0914604F0914704E28DDBE0ED9FF00130
:101290001124E95EFB4F9081923008F081E090913B
:1012A0009503911118C014C08091910390919203FD
:1012B000A0919303B09194030196A11DB11D809359
:1012C000910390939203A0939303B093940369C006
:1012D000882309F466C080919603882321F081E079
:1012E000809395035EC010929503A0914604B0913F
:1012F0004704E0914604F09147042D913C91838D81
:10130000948D82179307A8F080914604909147042A
:101310008091460490914704279A2F9A2FEF87EAED
:1013200091E6215080409040E1F700C000001F9AF4
:10133000F5CF809143046BE001C08150482F50E00D
:10134000649F9001659F300D1124F901E95EFB4F08
:101350009081992391F3A181B28114960D90BC9153
:10136000A02DB283A183265E3B4FA217B30731F4B1
:1013700014962D913C911597328321839BE0949F85
:10138000F001959FF00D1124E95EFB4F0180F28181
:10139000E02D2085318530934704209346048093C7
:1013A0004304A0914604B0914704CD91CDBFDD9197
:1013B000DEBFFF91EF91DF91CF91BF91AF919F91F0
:1013C0008F917F916F915F914F913F912F911F91DD
:1013D0000F91FF90EF90DF90CF90BF90AF909F90D4
:1013E0008F907F906F905F904F903F902F901F90C5
:1013F0000F900CBE0F900BBE0F900FBE0F90089574
:101400000E94F80718950F920FB6F8940F920BB63A
:101410000F920CB60F921F9211242F923F924F926F
:101420005F926F927F928F929F92AF92BF92CF9274
:10143000DF92EF92FF920F931F932F933F934F935F
:101440005F936F937F938F939F93AF93BF93CF934C
:10145000DF93EF93FF93A0914604B09147040DB63C
:101460000D920EB60D9280919603882321F081E0B3
:10147000809395035EC010929503A0914604B091AD
:101480004704E0914604F09147042D913C91838DEF
:10149000948D82179307A8F0809146049091470499
:1014A0008091460490914704279A2F9A2FEF87EA5C
:1014B00091E6215080409040E1F700C000001F9A63
:1014C000F5CF809143046BE001C08150482F50E07C
:1014D000649F9001659F300D1124F901E95EFB4F77
:1014E0009081992391F3A181B28114960D90BC91C2
:1014F000A02DB283A183265E3B4FA217B30731F420
:1015000014962D913C911597328321839BE0949FF3
:10151000F001959FF00D1124E95EFB4F0180F281EF
:10152000E02D208531853093470420934604809335
:101530004304A0914604B0914704CD91CDBFDD9105
:10154000DEBFFF91EF91DF91CF91BF91AF919F915E
:101550008F917F916F915F914F913F912F911F914B
:101560000F91FF90EF90DF90CF90BF90AF909F9042
:101570008F907F906F905F904F903F902F901F9033
:101580000F900CBE0F900BBE0F900FBE0F900895E2
:10159000CF93DF93FC01A285B38584819581268159
:1015A0003781EC013F832E83C681D7819D838C8355
:1015B00011968D919C911297E817F90721F41296D4
:1015C000DC93CE931197138612868C9181508C9365
:1015D0008C91DF91CF910895EF92FF920F931F931B
:1015E000CF93DF937C01FB01408151816281738144
:1015F0004F3F8FEF58076807780721F4E701A98567
:10160000BA8512C0D701139614968D919C911597A7
:10161000EC01088119812A813B814017510762073B
:10162000730710F0DC01F0CF14968D919C91159703
:1016300095838483EC01FF83EE83B783A68315969D
:10164000FC93EE931497F386E286F70180818F5F17
:101650008083DF91CF911F910F91FF90EF900895BC
:10166000CF92DF92EF92FF920F931F93FC01428380
:10167000538364837583938782870417150726072E
:101680003707A8F00C191D092E093F098685978593
:10169000A089B189081719072A073B07E8F4BF0199
:1016A0006E5F7F4F8091E4039091E50311C00C15AC
:1016B0001D052E053F0528F44C155D056E057F05BB
:1016C00058F4BF016E5F7F4F8091E6039091E7036E
:1016D0000E94EC0A80E001C081E01F910F91FF9011
:1016E000EF90DF90CF9008954F925F926F927F922C
:1016F0008F929F92AF92BF92CF92DF92EF92FF9222
:101700000F931F93CF93DF93EC014A015B012801F4
:1017100039014E855F8568897989480D591D6A1D93
:101720007B1D7501640193018201CE010E94300B83
:10173000882369F08E859F85A889B989880E991EAE
:10174000AA1EBB1EEC89FD89CE011995E2CFDF915F
:10175000CF911F910F91FF90EF90DF90CF90BF90AE
:10176000AF909F908F907F906F905F904F90089573
:101770008F929F92AF92BF92CF92DF92EF92FF92A1
:101780000F931F93CF93DF936B017C0149015A01A3
:10179000E091E603F091E7030780F085E02DC08536
:1017A000D185CE0102960E94C80A8E8982FF08C0A8
:1017B00095018401B701A601CE010E94740B02C0FD
:1017C0008E7F8E8BEC89FD89CE01DF91CF911F91A9
:1017D0000F91FF90EF90DF90CF90BF90AF909F90D0
:1017E0008F901994E091E603F091E70380818823BC
:1017F00069F00780F085E02D60817181828193819D
:101800002FEF3FEFA9010E94B80BECCF8091E403CA
:101810009091E5039093E7038093E603F093E5034B
:10182000E093E4030895FC010396928381834FEFD4
:101830005FEFBA0143835483658376839087878300
:101840009287818710820895CF93DF93009751F09C
:10185000EC010E94D80FCE010E946D13DF91CF9151
:101860000C94D20DDF91CF910895CF93DF93EC01CB
:101870000E94D80FCE010E94D512EC010E94D20D19
:10188000209769F4279A2F9A2FEF80E792E0215052
:1018900080409040E1F700C000001F9AF5CFCE01D4
:1018A000DF91CF910895E091F403F091F5038081E9
:1018B000811104C08FEF9FEFDC010BC0E091F403B6
:1018C000F091F5030780F085E02D80819181A28160
:1018D000B3818093EE039093EF03A093F003B09352
:1018E000F10308958F929F92AF92BF92CF92DF92B1
:1018F000EF92FF92CF936B017C01C42F8090EA039B
:101900009090EB03A090EC03B090ED03809146041F
:101910009091470402960E94C80A8FEFC816D80615
:10192000E806F806C1F5CC23B1F1E091F703F09198
:10193000F803A0914604B09147041796FC93EE93E8
:101940001697A0914604B091470486819781199615
:101950009C938E9318978091460490914704A6819A
:10196000B781029615969C938E93149780914604A6
:1019700090914704029697838683E0914604F09104
:10198000470486EF93E0958784878091F6038F5F05
:101990008093F60343C0C80CD91CEA1CFB1CE091E1
:1019A0004604F0914704C282D382E482F5826091BA
:1019B000460470914704C814D904EA04FB0488F46F
:1019C0008091F2039091F3036E5F7F4FCF91FF9070
:1019D000EF90DF90CF90BF90AF909F908F900C943E
:1019E000EC0A8091F4039091F5036E5F7F4F0E94A3
:1019F000EC0A8091EE039091EF03A091F003B09177
:101A0000F103C816D906EA06FB0640F4C092EE03BD
:101A1000D092EF03E092F003F092F103CF91FF90A8
:101A2000EF90DF90CF90BF90AF909F908F900895F0
:101A3000CF93DF93DC011796ED91FC91189700840A
:101A4000F185E02DA08DB18D828993892489358916
:101A5000EC013F832E83C489D5899D838C83CF017C
:101A60000E9611962D913C9112972817390721F463
:101A70001296DC93CE931197118E108E2C912150DB
:101A80002C932091960321114FC0A485B5858681A2
:101A9000978120853185EC013F832E83C085D185D8
:101AA0009D838C839F012E5F3F4F11968D919C915A
:101AB00012978217930721F41296DC93CE93119715
:101AC000158614868C9181508C93A28D809143044D
:101AD0008A1710F4A09343048BE08A9FD00111244D
:101AE000A95EBB4F11960D90BC91A02DB783A68324
:101AF00016964D915C911797518740871696CD9118
:101B0000DC9117973D832C8317963C932E93169761
:101B1000A28D8A9FD0011124A95EBB4FB587A487EF
:101B20008C918F5F8C931FC0A0910D04B0910E0417
:101B3000B38BA28B16962D913C911797358B248BE6
:101B40001696CD91DC9117979D838C8317969C9365
:101B50008E9316978CE094E0918F808F80910C0487
:101B60008F5F80930C04A0914604B0914704928D3E
:101B70005A968C91891720F481E08093950301C0D7
:101B800080E0DF91CF9108950FB6F8940F926091A5
:101B9000EA037091EB038091EC039091ED030F90B9
:101BA0000FBE08954F925F926F927F928F929F9295
:101BB000AF92BF92CF92DF92EF92FF920F931F935B
:101BC000CF93DF930FB6F8940F92809196038150D4
:101BD0008093960380919603882311F080E0D5C10D
:101BE000809148048823D1F3E0901304F09014040A
:101BF000E0E0F0E03BE041E080910C04882309F450
:101C000081C0D7011896ED91FC911997A08DB18DE7
:101C10006289738984899589EB019F838E83848986
:101C20009589EC017D836C83BF01625F7F4F1196C4
:101C30000D911C9112970617170721F412969C9389
:101C40008E931197118E108E8C9181508C93A48558
:101C5000B5858681978160857185EC017F836E8370
:101C600060857185EB019D838C83CF01029611966F
:101C70000D911C9112970817190721F412967C9365
:101C80006E931197158614862C9121502C93A28D5A
:101C9000209143042A1710F4A09343043A9FD001E3
:101CA0001124A95EBB4F11960D90BC91A02DB78356
:101CB000A68316966D917C9117977187608716960B
:101CC0006D917C911797EB019D838C8317969C9364
:101CD0008E931697A28D3A9FD0011124A95EBB4F17
:101CE000B587A4878C918F5F8C93A0914604B091A7
:101CF0004704928D5A968C91981708F47DCF4093A3
:101D000095037ACFEF2B11F00E94530C4090910372
:101D10005090920360909303709094034114510487
:101D20006104710409F429C11BE001E088248A944C
:101D3000982C5401809196038111F9C0C090EA0358
:101D4000D090EB03E090EC03F090ED03DFEFCD1AC1
:101D5000DD0AED0AFD0AC092EA03D092EB03E0929D
:101D6000EC03F092ED03C114D104E104F104B9F4E1
:101D70008091F4039091F5032091F2033091F303E5
:101D80003093F5032093F4039093F3038093F203CD
:101D9000809190038F5F809390030E94530C8091F9
:101DA000EE039091EF03A091F003B091F10340E0B6
:101DB000C816D906EA06FB0608F4A6C0E091F403AB
:101DC000F091F5038081811109C08092EE03909219
:101DD000EF03A092F003B092F10396C0E091F403F8
:101DE000F091F5030780F085E02D0084F185E02D6A
:101DF00082819381A481B581C816D906EA06FB06C3
:101E000048F48093EE039093EF03A093F003B09314
:101E1000F1037AC0A485B5858681978120853185B7
:101E2000EC013F832E83C085D1859D838C83CF01B8
:101E3000029611962D913C9112972817390721F49B
:101E40001296DC93CE931197158614862C9121500F
:101E50002C93A08DB18D1097F1F02289338964897C
:101E60007589E9017F836E83C489D5893D832C837D
:101E700011966D917C9112979F01225F3F4F6217DF
:101E8000730721F41296DC93CE931197118E108E66
:101E90002C9121502C93A28D209143042A1710F4E9
:101EA000A09343041A9FD0011124A95EBB4F119641
:101EB0000D90BC91A02DB783A68316962D913C91D1
:101EC0001797318720871696CD91DC9117979D83C0
:101ED0008C8317969C938E931697A28D1A9FD00190
:101EE0001124A95EBB4FB587A4878C918F5F8C931B
:101EF000A0914604B0914704928D5A968C91981700
:101F000008F45CCF41E05ACFE0914604F0914704D9
:101F1000E28D1E9FF0011124E95EFB4F808182302B
:101F200008F041E080919503811116C014C08091A2
:101F3000910390919203A0919303B0919403019621
:101F4000A11DB11D8093910390939203A0939303DD
:101F5000B093940303C0411100939503D1E04D1A4F
:101F600051086108710809F0E5CE109291031092B2
:101F70009203109293031092940380919503882307
:101F800009F42CCE0E94030A81E00F900FBEDF916E
:101F9000CF911F910F91FF90EF90DF90CF90BF9066
:101FA000AF909F908F907F906F905F904F9008952B
:101FB000809196038F5F8093960308950FB6F894EF
:101FC0000F92FC01968D0F900FBE81E0911180E081
:101FD0000895EF92FF920F931F93CF93DF93EC013D
:101FE0000FB6F8940F921AA17C0183E1E80EF11C60
:101FF00001E011165CF48B89882341F0C7010E942F
:10200000180D8111009395031150F3CF8FEF8AA320
:102010000F900FBE0FB6F8940F9219A17E0188E0C1
:10202000E80EF11C01E011165CF48885882341F06C
:10203000C7010E94180D8111009395031150F3CF31
:102040008FEF89A30F900FBEDF91CF911F910F915A
:10205000FF90EF9008957F928F929F92AF92BF92E0
:10206000CF92DF92EF92FF920F931F93CF93DF9364
:10207000782EA92E6B017A01B22ECA010E94350C6E
:102080004C01892B09F413C18CE290E00E94350CBD
:10209000EC01892BC1F09C8E8B8EA70165EA70E064
:1020A000C4010E94291481E0E81AF108EB8DFC8D2F
:1020B000EE0DFF1DC114D104D1F0CE014D96960155
:1020C000285F3F4F07C0C4010E94240CF0C0C21615
:1020D000D30659F0A601D6016D916D01DC016D9317
:1020E000CD01DA014C914111F2CF1CA201C01D8E2D
:1020F0008B2D843008F083E08A8F8DA31EA21D866D
:102100001C86198E188EDB87CA8744E050E060E099
:1021100070E06A017B01C81AD108E108F108CE8697
:10212000DF86E88AF98ADF8BCE8B84E09E01295D09
:102130003F4FD9011D928A95E9F71BA67082DF01F6
:102140001197AC9211971C9211971C92119780E8ED
:102150008C9311971C9211971C9211971C92579770
:102160001C9211971C92B697F983E883011511050B
:1021700019F0F801D183C0830FB6F8940F928091C3
:1021800048048F5F809348048091460490914704EF
:10219000892BD1F5D0934704C0934604809148041D
:1021A000813009F041C087E194E00E94130C82E283
:1021B00094E00E94130C8DE294E00E94130C88E3DB
:1021C00094E00E94130C8FE894E00E94130C84E8C2
:1021D00094E00E94130C8CE094E00E94130C81E0C8
:1021E00094E00E94130C86EF93E00E94130C8FE89A
:1021F00094E09093F5038093F40384E894E0909343
:10220000F3038093F20310C08091450481110CC048
:10221000E0914604F0914704928D8A8D891720F051
:10222000D0934704C0934604809144048F5F809309
:102230004404EA8D809143048E1710F4E093430424
:102240008BE08E9FF0011124E95EFB4F0180F2814B
:10225000E02DFF83EE832681378139872887A68189
:10226000B7819E012E5F3F4F15963C932E93149796
:1022700037832683EA8D8E9FF0011124E95EFB4FA0
:10228000FD87EC8780818F5F80830F900FBE8091E8
:102290004504882351F0E0914604F0914704928D63
:1022A0008A8D981710F40E94030A81E001C08FEF15
:1022B000DF91CF911F910F91FF90EF90DF90CF9022
:1022C000BF90AF909F908F907F900895FC01968D66
:1022D000878D981780F482A19F5F968F8F3F41F47E
:1022E0008389882351F0CF0143960E94180D05C0C1
:1022F0008F5F82A302C080E0089581E00895789402
:1023000084B5826084BD84B5816084BD85B58260FA
:1023100085BD85B5816085BD80916E0081608093AB
:102320006E00109281008091810082608093810014
:102330008091810081608093810080918000816024
:10234000809380008091B10084608093B10080917F
:10235000B00081608093B000809191008260809392
:102360009100809191008160809391008091900014
:102370008160809390008091A10082608093A10091
:102380008091A10081608093A1008091A000816074
:102390008093A0008091210182608093210180912F
:1023A00021018160809321018091200181608093CF
:1023B000200180917A00846080937A0080917A0075
:1023C000826080937A0080917A00816080937A00A5
:1023D00080917A00806880937A001092C1002091E9
:1023E0000702309108028FEF91E2821B930B9093CA
:1023F0000402809303020E94560509E714E020E0DE
:1024000040EC50E062E873E083E392E00E942B101E
:10241000813009F0BFC00FB6F8940F928091E803A5
:102420009091E903892B09F050C08CE694E00E945A
:10243000130C81E694E00E94130C8CE694E09093D8
:10244000E7038093E60381E694E09093E5038093AD
:10245000E40389E690E00E94350CEC01009789F1D5
:102460008396998388838AE08F8F87E088A30FB64D
:10247000F8940F92488159818F8D68A19A01869FA7
:10248000200D311D11243D832C831E8E5B834A83D6
:1024900090E00197689F9001699F300D1124CA0157
:1024A000820F931F9F838E838FEF89A38AA3CE0110
:1024B00008960E94130CCE0143960E94130C0F90B5
:1024C0000FBED093E903C093E8030F900FBE809135
:1024D000E8039091E903892B09F45CC007E714E055
:1024E00023E045E550E067E873E08BE890E00E9468
:1024F0002B10813009F04EC0F8944FEF5FEFBA0116
:102500004093EE035093EF036093F0037093F10355
:10251000809345041092EA031092EB031092EC03AF
:102520001092ED03A89582E084BD80936E0085E053
:1025300085BD8DE487BDA0914604B0914704CD913F
:10254000CDBFDD91DEBFFF91EF91DF91CF91BF91C4
:10255000AF919F918F917F916F915F914F913F913B
:102560002F911F910F91FF90EF90DF90CF90BF9030
:10257000AF909F908F907F906F905F904F903F9023
:102580002F901F900F900CBE0F900BBE0F900FBEA0
:102590000F900895809102020E945605C0E0D0E09D
:1025A0002097F1F30E940000FBCF0F931F93CF936E
:1025B000DF938230910510F482E090E0E0919C047A
:1025C000F0919D0420E030E0A0E0B0E0309719F1F8
:1025D000408151810281138148175907C8F084173F
:1025E000950769F4109731F012960C931297139691
:1025F0001C9327C000939C0410939D0422C02115B6
:10260000310519F04217530718F49A01BD01EF0183
:10261000DF01F801DBCF21153105F9F0281B390B5B
:102620002430310580F48A819B816115710521F088
:10263000FB019383828304C090939D0480939C0448
:10264000FE01329644C0FE01E20FF31F8193919385
:1026500022503109398328833AC020919A0430915D
:102660009B04232B41F42091050230910602309304
:102670009B0420939A0420910302309104022115B7
:10268000310541F42DB73EB7409107025091080241
:10269000241B350BE0919A04F0919B04E217F30799
:1026A000A0F42E1B3F0B2817390778F0AC014E5FC2
:1026B0005F4F2417350748F04E0F5F1F50939B0460
:1026C00040939A048193919302C0E0E0F0E0CF013F
:1026D000DF91CF911F910F910895CF93DF930097D2
:1026E00009F481C0FC01329713821282A0919C04EC
:1026F000B0919D04109781F420813181820F931F46
:1027000020919A0430919B042817390751F5F093D2
:102710009B04E0939A0467C0ED0120E030E0CE17FF
:10272000DF0740F44A815B819E0141155105F1F0BC
:10273000EA01F5CFD383C28340815181840F951F75
:10274000C817D90759F488819981840F951F02967B
:10275000918380838A819B819383828321153105B4
:1027600029F4F0939D04E0939C043DC0E901FB83B0
:10277000EA8349915991C40FD51FEC17FD0761F405
:1027800080819181840F951F0296E9019983888346
:10279000828193819B838A83E0E0F0E012968D91A1
:1027A0009C911397009719F0FD01DC01F7CF8D91F3
:1027B0009C9111979D012E5F3F4F820F931F209197
:1027C0009A0430919B042817390769F4309729F44B
:1027D00010929D0410929C0402C013821282B09346
:1027E0009B04A0939A04DF91CF910895A1E21A2E41
:1027F000AA1BBB1BFD010DC0AA1FBB1FEE1FFF1FA5
:10280000A217B307E407F50720F0A21BB30BE40BF4
:10281000F50B661F771F881F991F1A9469F760953B
:102820007095809590959B01AC01BD01CF010895F5
:10283000EE0FFF1F881F8BBF0790F691E02D1994B4
:10284000FB01DC0102C001900D9241505040D8F7CD
:102850000895DC0101C06D9341505040E0F70895A8
:102860000F931F93CF93DF93CDB7DEB72E970FB69D
:10287000F894DEBF0FBECDBF0E891F8986E08C8322
:102880001A8309838FEF9FE79E838D83AE01465E97
:102890005F4F688D798DCE0101960E945F14EF81A4
:1028A000F885E00FF11F10822E960FB6F894DEBF68
:1028B0000FBECDBFDF91CF911F910F9108952F9241
:1028C0003F924F925F926F927F928F929F92AF92C0
:1028D000BF92CF92DF92EF92FF920F931F93CF930D
:1028E000DF93CDB7DEB72B970FB6F894DEBF0FBEE0
:1028F000CDBF6C017B018A01FC01178216828381A6
:1029000081FFCCC1CE0101963C01F6019381F70114
:1029100093FD859193FF81917F01882309F4BAC1CA
:10292000853239F493FD859193FF81917F01853242
:1029300029F4B60190E00E947F16E7CF912C212C5C
:10294000312CFFE1F315D8F08B3279F038F4803276
:1029500079F08332A1F4232D20611DC08D3261F006
:10296000803369F4232D216016C0832D8260382EB8
:10297000E32DE4603E2E2AC0F32DF8601DC037FC25
:102980002DC020ED280F2A3040F08E32B9F436FCED
:1029900081C1232D2064322E19C036FE06C08AE084
:1029A000989E200D1124922E11C0EAE02E9E200D3B
:1029B0001124222EF32DF0623F2E08C08C3621F414
:1029C000832D8068382E02C0883641F4F70193FDCC
:1029D000859193FF81917F018111B3CF982F9F7DC6
:1029E0009554933028F40C5F1F4F9FE399830DC0DB
:1029F000833631F0833771F0833509F059C021C037
:102A0000F801808189830E5F1F4F88248394912C65
:102A1000530113C02801F2E04F0E511CF801A080B1
:102A2000B18036FE03C0692D70E002C06FEF7FEF0A
:102A3000C5010E9474164C018201F32DFF773F2ED1
:102A400016C0280122E0420E511CF801A080B1807E
:102A500036FE03C0692D70E002C06FEF7FEFC50145
:102A60000E9469164C01F32DF0683F2E820133FC61
:102A70001BC0822D90E088169906B0F4B60180E262
:102A800090E00E947F162A94F4CFF50137FC8591DF
:102A900037FE81915F01B60190E00E947F16211000
:102AA0002A9421E0821A91088114910471F7E8C0F8
:102AB000843611F0893641F5F80137FE07C0608190
:102AC0007181828193810C5F1F4F08C06081718189
:102AD000072E000C880B990B0E5F1F4FF32DFF760E
:102AE0003F2E97FF09C090958095709561957F4F17
:102AF0008F4F9F4FF0683F2E2AE030E0A3010E94E5
:102B0000BB16882E861845C0853731F4232D2F7EBD
:102B1000B22E2AE030E025C0932D997FB92E8F3652
:102B2000C1F018F4883579F0B5C0803719F08837CE
:102B300021F0B0C0E92FE061BE2EB4FE0DC0FB2D28
:102B4000F460BF2E09C034FE0AC0292F2660B22EC1
:102B500006C028E030E005C020E130E002C020E1FE
:102B600032E0F801B7FE07C06081718182819381F4
:102B70000C5F1F4F06C06081718180E090E00E5FA6
:102B80001F4FA3010E94BB16882E8618FB2DFF77CE
:102B90003F2E36FE0DC0232D2E7FA22E891458F411
:102BA00034FE0BC032FC09C0832D8E7EA82E05C0DA
:102BB000B82CA32C03C0B82C01C0B92CA4FE0FC0A4
:102BC000FE01E80DF11D8081803321F49A2D997E5C
:102BD000A92E09C0A2FE06C0B394B39404C08A2DE6
:102BE000867809F0B394A3FC11C0A0FE06C0B2140D
:102BF00088F4280C922C9B180EC0B21460F4B60115
:102C000080E290E00E947F16B394F7CFB21418F4DC
:102C10002B1802C0982C212CA4FE10C0B60180E312
:102C200090E00E947F16A2FE17C0A1FC03C088E7B7
:102C300090E002C088E590E0B6010CC08A2D86784D
:102C400059F0A1FE02C08BE201C080E2A7FC8DE238
:102C5000B60190E00E947F16891438F4B60180E333
:102C600090E00E947F169A94F7CF8A94F301E80DC2
:102C7000F11D8081B60190E00E947F168110F5CF92
:102C8000222009F442CEB60180E290E00E947F1635
:102C90002A94F6CFF6018681978102C08FEF9FEFCD
:102CA0002B960FB6F894DEBF0FBECDBFDF91CF914C
:102CB0001F910F91FF90EF90DF90CF90BF90AF905A
:102CC0009F908F907F906F905F904F903F902F904C
:102CD0000895FC010590615070400110D8F780956F
:102CE00090958E0F9F1F0895FC01615070400190D8
:102CF0000110D8F7809590958E0F9F1F08950F9320
:102D00001F93CF93DF93FB01238121FD03C08FEF3E
:102D10009FEF2CC022FF16C0468157812481358148
:102D20004217530744F4A081B1819D012F5F3F4FAB
:102D3000318320838C93268137812F5F3F4F3783E8
:102D4000268314C08B01EC01FB010084F185E02D8A
:102D50001995892BE1F6D80116968D919C911797BC
:102D6000019617969C938E931697CE01DF91CF9183
:102D70001F910F910895FA01AA27283051F12031AF
:102D800081F1E8946F936E7F6E5F7F4F8F4F9F4FFF
:102D9000AF4FB1E03ED0B4E03CD0670F781F891F41
:102DA0009A1FA11D680F791F8A1F911DA11D6A0F0F
:102DB000711D811D911DA11D20D009F468943F91C2
:102DC0002AE0269F11243019305D3193DEF6CF01C1
:102DD0000895462F4770405D4193B3E00FD0C9F787
:102DE000F6CF462F4F70405D4A3318F0495D31FDF4
:102DF0004052419302D0A9F7EACFB4E0A695979547
:102E0000879577956795BA95C9F70097610571051C
:102E100008959B01AC010A2E069457954795379566
:102E20002795BA95C9F7620F731F841F951FA01DC0
:062E30000895F894FFCFA5
:102E360002010300009E0420002300240025002632
:102E4600002700FFFFFFFFFFFFFFFFFFFF3D3D3DA8
:102E56003D3D3D3D3D3D3D3D3D3D3D3D3D3D3D3D9C
:102E66003D3D3D3D3D3D3D3D3D3D3D3D3D3D3D3D8C
:102E76003D3D3D3D3D0A007C7C2020202020202039
:102E860020202020204D61696E20436F6E74726F82
:102E96006C2020202020202020202020207C7C0A3E
:102EA600007C7C2020202020202020202020202084
:102EB6002020426F617264202020202020202020C4
:102EC600202020202020207C7C0A007C7C2D2D2D9B
:102ED6002D2D2D2D2D2D2D2D2D2D2D2D2D2D2D2D1C
:102EE6002D2D2D2D2D2D2D2D2D2D2D2D2D2D2D2D0C
:102EF6002D7C7C0A007C7C2020202020202020465F
:102F060069726D776172653A20323032312D313116
:102F16002D323220202020202020207C7C0A0055C3
:102F2600415254303A20696E697469616C697A65F8
:102F3600640A0055415254313A20696E69746961D8
:102F46006C697A65640A0050574D206D6F64756C24
:102F5600653A20696E697469616C697A65640A000C
:102F660063726561746520626C696E6B207461734F
:102F76006B2E2E2E2000426C696E6B004F4B0A00A2
:102F8600256C643A20746C3A2025642C2074723ABD
:102F96002025642C2063313A2025642C2063323AA4
:102FA6002025642C2063333A2025640A00494E49C3
:102FB600540049444C4500546D722053766300001A
:00000001FF
