:100000000C9401030C9422030C9422030C942203FD
:100010000C9422030C9422030C9422030C942203CC
:100020000C9422030C9422030C94BE0A0C94220319
:100030000C94851B0C9422030C9422030C94220331
:100040000C9422030C9422030C9422030C9422039C
:100050000C9422030C9422030C9422030C94450B61
:100060000C9422030C94AC0D0C9422030C94D80D28
:100070000C9422030C94670E0C9422030C9422031C
:100080000C9422030C9422030C9422030C9422035C
:100090000C944F0D0C9422030C947B0D0C942203B2
:1000A0000C9422030C9422030C9422030C9422033C
:1000B0000C9422030C9422030C9422030C9422032C
:1000C0000C9422030C9422030C9422030C94F20C43
:1000D0000C9422030C941E0D0C94950C0C9422038A
:1000E0000C94C10C76027602B802BC02D5027602EC
:1000F0007602B802BC0208000000BE922449123EFB
:10010000ABAAAA2ABECDCCCC4C3E00000080BEAB30
:10011000AAAAAA3E00000000BF000000803F000025
:10012000000000084178D3BB4387D1133D190E3C32
:10013000C3BD4282AD2B3E68EC8276BED98FE1A969
:100140003E4C80EFFFBE01C4FF7F3F000000000077
:100150000C945D060C94A5040C94ED060C94810A95
:100160000C94430A0C94F7000C9460030C949407CD
:100170000C9457050C94D5020C94C4000C94760290
:100180000C94BC020C94B80200E010E080916E0563
:10019000882309F10FB6F8940F92E091E205F091EF
:1001A000E305C085D185CE0102960E94F1168091AB
:1001B000220681508093220680916E0581508093A3
:1001C0006E050F900FBE8B8D9C8D0E944D18CE0139
:1001D0000E944D18DBCF8091F105823010F00E9413
:1001E0002C160115110591F20E940000CFCFCF937C
:1001F000DF93CDB7DEB764970FB6F894DEBF0FBEBE
:10020000CDBFE091C005F091C1051081112341F0EF
:100210000780F085E02D408051806280738003C0AC
:10022000412C512C32010E94F1100E94DD0E4B0135
:100230005C018091760590917705A0917805B09149
:10024000790588169906AA06BB0620F40E941B1899
:1002500081E001C080E08092760590927705A092BF
:100260007805B0927905811180C0112371F0841452
:100270009504A604B70480F00E94EB0EA50194013A
:10028000C301B2010E94E117F6C0E091BE05F091F2
:10029000BF05808141E0811140E00091C2051091CD
:1002A000C3050FB6F8940F92D80191968C9191974F
:1002B0008F3F11F491961C92F80182A18F3F09F4AF
:1002C00012A20F900FBED8015E968C915E9781119D
:1002D00042C05496ED91FC915597A0912006B091A3
:1002E00021065396FC93EE935297A0912006B0916D
:1002F00021068681978155969C938E935497809181
:10030000200690912106A681B7810E9615969C93A2
:100310008E93149780912006909121060E969783D4
:100320008683E0912006F0912106C8014396918FC3
:10033000808FF80183898F5F838B411107C0C301D0
:10034000B201681979098A099B0903C06FEF7FEF31
:10035000CB010E947C18C8010E947E110E94EB0E06
:10036000811189C00E942C1686C00E94EB0E83C0AA
:10037000811104C0CE0108960E9422190F900FBE71
:100380000E94F1100FB6F8940F92D80191968C91BB
:1003900091978F3F11F491961C92F80182A18F3FA3
:1003A00009F412A20F900FBEBE01635F7F4FCE0112
:1003B00008960E943319811118C1C8010E94731157
:1003C000882309F40CC14D855E856F857889C40149
:1003D0000E94C60EC8010E947E110E94EB0E882367
:1003E00009F4FAC081E00FB6F8940F92F801B68CC8
:1003F000BB2009F4E5C040A141114BC0BA94F801FB
:10040000B68E808581115FC00F900FBE198117FDD8
:1004100032C0AE80BF80D5011C968D919C911D97F6
:10042000892B21F0C50102960E94F1160E94DD0E73
:100430002B013C018091760590917705A09178057C
:10044000B0917905481659066A067B0610F40E9499
:100450001B1840927605509277056092780570924D
:100460007905812F110F990BAA0BBB0BFC0131975A
:10047000E930F10590F10091C2051091C3051D8688
:100480001E861F86188A80E04801B3E18B0E911CFE
:10049000AACF50E086819781840F951F978386832A
:1004A000248135818217930720F080819181978381
:1004B0008683D80116966D917C911797CE0101968F
:1004C0000E94B5209BCFC80108960E9485198823F9
:1004D00009F49ACF0E942C1697CFD50156969C917D
:1004E0008827EE58FF4F8F4F0C94AD209160F50197
:1004F000968B8A819B81AC81BD81898B9A8BAB8BDA
:10050000BC8B4685578560897189480F591F6A1FC2
:100510007B1F6C017D0193018201C5010E94591767
:10052000882309F4A8CFD50156968C91569782FF5F
:1005300014C01E964D915D916D917C915197C98823
:10054000DA88EB88FC884C0D5D1D6E1D7F1D9301C4
:100550008201C5010E949D1703C08E7FF501868B25
:10056000D5015496ED91FC915597C501199583CF0E
:100570009E7FF501968B7FCF9160D50156969C9317
:100580004A815B816C817D81F50146875787608B4D
:10059000718B440D551D661D771D7301620193011A
:1005A0008201C5010E94591766CF91FD04C0C501A3
:1005B0000E944D1860CF9E7FD50156969C935BCFCD
:1005C0004D855E856F857889452B462B472B09F035
:1005D000CFCE0F900FBE15CE0E942C1603CFC801B0
:1005E0000E947E110E94EB0EFDCEC8010E947E117A
:1005F0000E94EB0EC8010E947311882309F4F2CE09
:1006000000CE11241FBECFEFD1E2DEBFCDBF00E090
:100610000CBF15E0A0E0B2E0E0E6F7E400E00BBFBD
:1006200002C007900D92A834B107D9F726E0A8E4DC
:10063000B5E001C01D92A837B207E1F70E94881B00
:100640000C94AE230C9400000F931F93CF93DF9371
:10065000CDB7DEB7C054D1090FB6F894DEBF0FBED8
:10066000CDBF9F938F938E010F5F1F4F1F930F93EB
:100670000E94C5200F900F900F900F908CEA95E08C
:100680000E94090EF80101900020E9F73197E01B64
:10069000F10B90E08E179F0718F40E942C16EECFF6
:1006A000B80181E00E94320CC05CDF4F0FB6F894B5
:1006B000DEBF0FBECDBFDF91CF911F910F91089587
:1006C0000F931F93CF93DF9340E051EE60E070E013
:1006D00080E00E948F0B40E051EE60E070E081E02E
:1006E0000E948F0B8FEF81B912B88DE192E00E94CA
:1006F000240387E492E00E94240381E792E00E94B1
:1007000024038BE992E00E94240385EC92E00E948E
:1007100024038DE192E00E9424038FEE92E00E9478
:1007200024038FE39CE90197F1F700C0000083E008
:1007300093E00E9424038FE39CE90197F1F700C046
:100740000000279B279A2F988FE396E09093A700AD
:100750008093A6001092A9001092A8001092AB00FE
:100760001092AA001092AD001092AC008EEF809310
:10077000A00089E18093A1008091A6009091A7003C
:1007800090934D0580934C0587E193E00E942403EC
:1007900080E393E00E94240300E010E021E040E8C1
:1007A00050E066E473E08DE596E00E94311A8CE437
:1007B00093E00E94240380E593E00E94240321E05B
:1007C00040E850E069E673E087E595E00E94311A61
:1007D0008CE493E00E94240382E793E00E942403C8
:1007E00021E040E850E06DE973E083E49AE00E9484
:1007F000311A8CE493E00E94240386EA93E00E947D
:10080000240321E040E850E060ED73E081E89AE0E5
:100810000E94311A8CE493E00E94240389ED93E056
:100820000E94240321E040E850E066EF73E085EA8F
:1008300094E00E94311A8CE493E00E9424038CEF30
:1008400093E00E94240321E040E052E060E174E084
:1008500084E997E00E94311A8CE493E00E9424031B
:1008600084E194E00E94240323E040E051E06BE245
:1008700074E08DEE96E00E94311A8CE493E00E94C1
:1008800024030FB6F8940F92C0912006D091210650
:100890008E010E5F1F4FC8010E94F116888D998D41
:1008A000892B21F0CE010E960E94F11680911E0632
:1008B0008F5F80931E068091200690912106C817B5
:1008C000D90709F5E091DC05F091DD05FF83EE83A2
:1008D0008681978199878887A681B78115961C9311
:1008E0000E931497178306838BED95E09D878C8775
:1008F0008091DB058F5F8093DB0580916E058F5FB4
:1009000080936E050EC0809122068150809322064E
:100910008B8D9C8D0E944D18CE010E944D180E9417
:100920000D160F900FBE80911F06882349F080910D
:10093000200690912106C817D90711F40E942C16A1
:10094000DF91CF911F910F910895CF93DF93CDB792
:10095000DEB72E970FB6F894DEBF0FBECDBF0E9454
:10096000DD0E6B877C878D879E87C0905305B09086
:1009700052056AE070E080E090E00E94F71082E3A8
:10098000E82E84E0F82E8E010F5F1F4F149AD0904E
:100990005305CD14F1F1D090530580914E059091FF
:1009A0004F05A0915005B09151050A96A11DB11DAA
:1009B00080934E0590934F05A0935005B093510539
:1009C000BF93AF939F938F93FF92EF921F930F93D9
:1009D0000E94C5200FB6F894DEBF0FBECDBF86EAD9
:1009E00095E00E94090EF80101900020E9F7319787
:1009F000E01BF10B90E08E179F0738F461E070E088
:100A000080E090E00E94F710EACFB80180E00E94F9
:100A1000320CC0905205BC14F1F1C0905205809187
:100A20004E0590914F05A0915005B09151050A9641
:100A3000A11DB11D80934E0590934F05A0935005C5
:100A4000B0935105BF93AF939F938F93FF92EF9213
:100A50001F930F930E94C5200FB6F894DEBF0FBE00
:100A6000CDBF86EA95E00E94090EF80101900020B2
:100A7000E9F73197E01BF10B90E08E179F0738F4F0
:100A800061E070E080E090E00E94F710EACFB801EA
:100A900080E00E94320C149846E050E060E070E084
:100AA000CE010B960E941411BC2CCD2C6FCFCF938E
:100AB000DF9300D01F92CDB7DEB70E94DD0E6983B1
:100AC0007A838B839C83809104018E7F80930401C1
:100AD000809104018D7F80930401809105018160E4
:100AE00080930501809105018260809305018091CA
:100AF000680082608093680080916C0086608093BB
:100B00006C0080910101826080930101809102015B
:100B10008D7F8093020180910101886080930101A3
:100B200080910101806180930101809101018062C7
:100B30008093010100915305F09052056AE070E046
:100B400080E090E00E94F710119A8091530588236D
:100B500009F44BC080915305081761F080914C0552
:100B600090914D059093A9008093A80000915305A2
:100B70001AE042C0112311F011503EC0C090A800ED
:100B8000D090A90060914C0570914D0580E090E0F7
:100B90000E94E21E2DEC3CEC4CE45EE30E94C51F7B
:100BA0004B015C01B60180E090E00E94E21EA501CD
:100BB00094010E94701F18167CF46091A800709137
:100BC000A90080E090E00E94E21E20E030E040E0DA
:100BD0005FE30E94C51F02C0C501B4010E94B31E9D
:100BE0007093A9006093A80007C01092A90010920A
:100BF000A8000091530510E080915205882309F464
:100C00004CC080915205F81669F080914C05909186
:100C10004D059093AD008093AC00F09052058AE0B2
:100C2000E82E41C0EE2011F0EA943DC0C090AC0027
:100C3000D090AD0060914C0570914D0580E090E042
:100C40000E94E21E2DEC3CEC4CE45EE30E94C51FCA
:100C50004B015C01B60180E090E00E94E21EA5011C
:100C600094010E94701F18167CF46091AC00709182
:100C7000AD0080E090E00E94E21E20E030E040E025
:100C80005FE30E94C51F02C0C501B4010E94B31EEC
:100C90007093AD006093AC0006C01092AD0010924E
:100CA000AC00F0905205119843E050E060E070E035
:100CB000CE0101960E94141147CFCF93DF93CDB799
:100CC000DEB7E6970FB6F894DEBF0FBECDBF269A0B
:100CD0000E94DD0E6BAB7CAB8DAB9EAB6AE070E02F
:100CE00080E090E00E94F71080E4B82E97E3E92EB0
:100CF00094E0F92E8E010F5F1F4F139A85B18B255B
:100D000085B90E94DD0ED62EC72E20E030E048ECDB
:100D100052E460915405709155058091560590916B
:100D200057050E94C51F0E94AC1E7F936F9320E061
:100D300030E048EC52E4609158057091590580917B
:100D40005A0590915B050E94C51F0E94AC1E7F93BF
:100D50006F9320E030E048EC52E460915C057091C4
:100D60005D0580915E0590915F050E94C51F0E9400
:100D7000AC1E7F936F9360916005709161058091C7
:100D80006205909163050E94AC1E7F936F93609102
:100D900064057091650580916605909167050E94D4
:100DA000AC1E7F936F93CF92DF92FF92EF921F93CF
:100DB0000F930E94C520C8010E94240313984CE0A1
:100DC00050E060E070E0CE01C3960E9414110FB6AF
:100DD000F894DEBF0FBECDBF90CFCF93DF93CDB7DA
:100DE000DEB7C554D1090FB6F894DEBF0FBECDBF34
:100DF000839A8B9A83E1E3E6F4E0DE01D3960190D7
:100E00000D928A95E1F787E1E6E7F4E0DE015C9672
:100E100001900D928A95E1F78BE1EDE8F4E0DE01B7
:100E2000119601900D928A95E1F76EE170E080E0F5
:100E300090E00E94F71011E04EE350E060E070E0B7
:100E400080916805909169050E94C011109A8130C7
:100E500009F060C020E030E04CE852E460916405A5
:100E60007091650580916605909167050E94701FDD
:100E7000181684F020E030E04CE852E46091600500
:100E80007091610580916205909163050E94701FC9
:100E900018163CF48B98112309F443C0CE014C96EC
:100EA0003EC023E333E343E350E460915C0570917B
:100EB0005D0580915E0590915F050E94701F181678
:100EC00004F123E333E343E350E460915805709168
:100ED000590580915A0590915B050E94701F181664
:100EE00084F023E333E343E350E4609154057091CD
:100EF000550580915605909157050E94701F181650
:100F000034F48B98112369F0CE01C39608C08B9AF4
:100F100011E008C08B98112321F0CE0101960E94A8
:100F2000240310E0109888CFCF93DF93CDB7DEB7BE
:100F30002D970FB6F894DEBF0FBECDBF43E060E043
:100F400081E00E94B7139093690580936805892B0F
:100F500029F488EA94E00E942403FFCF43E060E094
:100F600081E00E94B71390937B0580937A05892BCB
:100F700029F483ED94E00E942403FFCF0E94DD0E4C
:100F80006A877B878C879D876AE070E080E090E0CD
:100F90000E94F71080917A00806880937A0080E444
:100FA00080937C0080917C008F7D80937C00809179
:100FB0007A008E6080937A0080917D0088618093B2
:100FC0007D0080917D00806E80937D008091A405DE
:100FD0000E94140E80917A00806480937A0084E0ED
:100FE000482E512C612C712C9BE0992E4FEF5FEF16
:100FF000BA0180917A0590917B050E94C011129AE6
:101000008091A505811115C06091900570919105A1
:10101000A0909205B0909305C0909405D09095054E
:10102000E0909605F090970500919805109199052C
:1010300014C060917C0570917D05A0907E05B090F4
:101040007F05C0908005D0908105E0908205F090EA
:10105000830500918405109185056F5F7F4F80E0C7
:1010600090E00E94E21E9B01AC0160E070EC8FE713
:1010700094E40E943A1E20E030E040E85FE30E94E2
:10108000CD1D9B01AC0160E070E48CE196E40E9410
:101090003A1E20E030E44CE156E40E943A1E0E94E1
:1010A0007D1F20E030ED47E755E40E943A1E2FE017
:1010B0003FEC4BE55BE30E94CE1D9B01AC0160E081
:1010C00070E080E89FE30E943A1E23E333E948E89A
:1010D00053E40E94CD1D6093640570936505809371
:1010E000660590936705B5016F5F7F4F80E090E0E4
:1010F0000E94E21E9B01AC0160E070EC8FE794E47B
:101100000E943A1E20E030E040E85FE30E94CD1DDF
:101110009B01AC0160E070E48CE196E40E943A1E11
:1011200020E030E44CE156E40E943A1E0E947D1F0C
:1011300020E030ED47E755E40E943A1E2FE03FECF7
:101140004BE55BE30E94CE1D9B01AC0160E070E0CB
:1011500080E89FE30E943A1E23E333E948E853E422
:101160000E94CD1D609360057093610580936205B8
:1011700090936305B6016F5F7F4F80E090E00E941F
:10118000E21E9B01AC0160E070EC8FE794E40E94EA
:101190003A1E20E030E040EA50E40E94C51F20E003
:1011A00030E040E351E40E943A1E60935C05709386
:1011B0005D0580935E0590935F05B7016F5F7F4F7C
:1011C00080E090E00E94E21E9B01AC0160E070ECC8
:1011D0008FE794E40E943A1E20E030E040EA50E4B9
:1011E0000E94C51F20E030E040E351E40E943A1E17
:1011F000609358057093590580935A0590935B0549
:10120000B8016F5F7F4F80E090E00E94E21E9B017B
:10121000AC0160E070EC8FE794E40E943A1E20E09D
:1012200030E040EA50E40E94C51F20E030E040E397
:1012300051E40E943A1E60935405709355058093C3
:1012400056059093570500916805109169051E8217
:101250001F821886198680E0780198E0E90EF11C5B
:101260000FB6F8940F92D8015E962C915E975F9618
:101270009C915F97291708F09EC05E96BC905E9780
:1012800090964C919097411168C08D919C91892BBB
:1012900009F07EC0F801E480F580E114F10411F456
:1012A00080E057C0D70196968C919697815096967C
:1012B0008C9396975A962C915A9795969C912917AC
:1012C00079F38111EDCF6701B2E0CB0ED11CC601DD
:1012D0000E94F116F70125A1228FD301C201821BC2
:1012E0009109A109B10986879787A08BB18B80915D
:1012F0001D06821710F420931D06929EF001112402
:10130000EF50FA4F0180F281E02DD7011796FC9340
:10131000EE9316978681978119969C938E931897D2
:10132000A681B7811596DC92CE921497D782C68299
:10133000D7015A96EC915A979E9EF0011124EF50D6
:10134000FA4F1D96FC93EE931C9780818F5F8083EC
:1013500081E0F801158214821CC050E060E070E06A
:10136000D80112968D919C9113970E94B520F80197
:1013700020A182819381820F911D93838283248196
:1013800035818217930720F0808191819383828336
:1013900080E0B394D8015E96BC925E9753969C9180
:1013A000992321F0C80143960E948519882359F09A
:1013B0000E942C1608C04E815F8168857985452B77
:1013C000462B472B19F40F900FBE4DC0811104C05E
:1013D000CE0101960E9422190F900FBE0E94F110BB
:1013E0000FB6F8940F92F80181A18F3F09F411A272
:1013F000D80192968C9192978F3F11F492961C92FD
:101400000F900FBEBE016A5F7F4FCE0101960E9412
:101410003319811123C00FB6F8940F92F801968DFD
:10142000878D0F900FBE981313C04E815F81688522
:101430007985C7010E94C60EC8010E947E110E94D4
:10144000EB0E882311F081E00BCF0E942C16FBCF0E
:10145000C8010E947E110E94EB0EF5CFC8010E94C8
:101460007E110E94EB0E129840E050E0BA01CE01CE
:101470000A960E941411129A80917A0080648093D7
:101480007A001298B3CDCF93DF9300D01F92CDB7DF
:10149000DEB743E060E081E00E94B71390936B05F4
:1014A00080936A05892B29F483E095E00E94240348
:1014B000FFCF0E94DD0E69837A838B839C836AE071
:1014C00070E080E090E00E94F71011E04FEF5FEFD6
:1014D000BA0180916A0590916B050E94C011169A1D
:1014E00043E050E060E070E0CE0101960E941411EC
:1014F000809103018695817081278093520516980B
:10150000E5CFCF93DF9300D01F92CDB7DEB743E096
:1015100060E081E00E94B71390936D0580936C05A5
:10152000892B29F483E095E00E942403FFCF0E94D9
:10153000DD0E69837A838B839C836AE070E080E0B0
:1015400090E00E94F71011E04FEF5FEFBA01809139
:101550006C0590916D050E94C011159A43E050E012
:1015600060E070E0CE0101960E94141180910301A9
:1015700081708127809353051598E6CF1F920F92B3
:101580000FB60F9211240BB60F922F933F934F93E8
:101590005F936F937F938F939F93AF93BF93CF93FB
:1015A000EF93FF93809103018170C0910301C2709A
:1015B00090910102891741F08093010280916C059E
:1015C00090916D050E946C1B80910002C81741F03C
:1015D000C093000280916A0590916B050E946C1B7C
:1015E000FF91EF91CF91BF91AF919F918F917F919B
:1015F0006F915F914F913F912F910F900BBE0F9084
:101600000FBE0F901F9018950F931F9300E010E0EE
:1016100021E040E051E065E375E080E693E00E9460
:10162000311A1F910F910895FC014FB7F89423814F
:1016300030E02F5F3F4F2F733327828190E02817D0
:10164000390739F0A081B181A20FB31F8C91238398
:1016500001C080E04FBF0895FC018FB7F8949281DC
:101660002381921779F0A081B181A90FB11D6C93EC
:10167000228130E02F5F3F4F2F73332722838FBFAC
:1016800081E008958FBF80E008951F920F920FB6FA
:101690000F9211242F933F938F939F93AF93BF93F8
:1016A00080915A0690915B06A0915C06B0915D0610
:1016B0003091590623E0230F2D3720F40196A11D08
:1016C000B11D05C026E8230F0296A11DB11D209370
:1016D000590680935A0690935B06A0935C06B093DC
:1016E0005D068091550690915606A0915706B091DF
:1016F00058060196A11DB11D80935506909356067C
:10170000A0935706B0935806BF91AF919F918F91C8
:101710003F912F910F900FBE0F901F901895EF9251
:10172000FF920F931F93CF93DF939A01AB01082F82
:1017300010E0C6E0C09FB001C19F700D1124FB01F5
:10174000EA55FA4F9481913009F482C0FB01ED5DB6
:10175000F94F9481913009F47BC0813051F1B8F098
:101760008230C9F1833009F075C060E472E48FE023
:1017700090E00E948B202150310930933501209355
:10178000340188ED80933101C093320135C060E4AB
:1017900072E48FE090E00E948B2021503109309359
:1017A000C5002093C40088ED8093C100C093C2009F
:1017B00023C060E472E48FE090E00E948B2021500F
:1017C00031093093CD002093CC0088ED8093C9007F
:1017D000C093CA0011C060E472E48FE090E00E9400
:1017E0008B20215031093093D5002093D40088ED0F
:1017F0008093D100C093D20080E490E00E94AC1CA2
:101800007C01892B39F186E0809FE001819FD00D1A
:101810001124FE01EA55FA4FF182E08212820FE3B1
:10182000038311E01483158280E490E00E94AC1CD5
:10183000009751F0FE01ED5DF94F91838083128294
:1018400003831483158204C0C7010E94441D02C093
:1018500081E001C080E0DF91CF911F910F91FF9057
:10186000EF9008958F929F92AF92BF92CF92DF92A6
:10187000EF92FF920F931F93CF93DF93982E8B01DC
:101880006B0181E4C80ED11CE6E09E9EE0011124AC
:10189000CA55DA4F5E01F4E0AF0EB11C7E0185E05F
:1018A000E80EF11C88248394F80161918F0166236E
:1018B00079F1E3E0E91548F1F5018081811108C073
:1018C00040EA51ED61E070E0892D0E948F0B1DC050
:1018D000F7018081811116C08082F2E09F1661F0CD
:1018E00083E0981661F0E1E09E1619F06093C6005F
:1018F0000CC06093CE0009C06093D60006C0609310
:10190000360103C0CE010E942C0B0C151D0561F69B
:10191000DF91CF911F910F91FF90EF90DF90CF90CB
:10192000BF90AF909F908F9008951F920F920FB627
:101930000F9211240BB60F922F933F934F935F9307
:101940006F937F938F939F93AF93BF93EF93FF9387
:101950006091360185E396E00E942C0BFF91EF9198
:10196000BF91AF919F918F917F916F915F914F91B7
:101970003F912F910F900BBE0F900FBE0F901F90B5
:1019800018951F920F920FB60F9211240BB60F925B
:101990002F933F934F935F936F937F938F939F9377
:1019A000AF93BF93EF93FF9388EB95E00E94140BE6
:1019B000811103C01092BD0502C080933601FF91D2
:1019C000EF91BF91AF919F918F917F916F915F91B7
:1019D0004F913F912F910F900BBE0F900FBE0F9024
:1019E0001F9018951F920F920FB60F9211240BB6ED
:1019F0000F922F933F934F935F936F937F938F93A8
:101A00009F93AF93BF93EF93FF936091D6008FE2C4
:101A100096E00E942C0BFF91EF91BF91AF919F91A7
:101A20008F917F916F915F914F913F912F910F9087
:101A30000BBE0F900FBE0F901F9018951F920F9224
:101A40000FB60F9211240BB60F922F933F934F9323
:101A50005F936F937F938F939F93AF93BF93EF9316
:101A6000FF9382EB95E00E94140B811103C010924A
:101A7000B70502C08093D600FF91EF91BF91AF915F
:101A80009F918F917F916F915F914F913F912F9196
:101A90000F900BBE0F900FBE0F901F9018951F92C6
:101AA0000F920FB60F9211240BB60F922F933F9304
:101AB0004F935F936F937F938F939F93AF93BF9356
:101AC000EF93FF936091CE0089E296E00E942C0B89
:101AD000FF91EF91BF91AF919F918F917F916F9106
:101AE0005F914F913F912F910F900BBE0F900FBEC2
:101AF0000F901F9018951F920F920FB60F921124FE
:101B00000BB60F922F933F934F935F936F937F93F7
:101B10008F939F93AF93BF93EF93FF938CEA95E0DE
:101B20000E94140B811103C01092B10502C0809372
:101B3000CE00FF91EF91BF91AF919F918F917F91D7
:101B40006F915F914F913F912F910F900BBE0F902E
:101B50000FBE0F901F9018951F920F920FB60F9205
:101B600011240BB60F922F933F934F935F936F9374
:101B70007F938F939F93AF93BF93EF93FF93609166
:101B8000C60083E296E00E942C0BFF91EF91BF917B
:101B9000AF919F918F917F916F915F914F913F9105
:101BA0002F910F900BBE0F900FBE0F901F901895A6
:101BB0001F920F920FB60F9211240BB60F922F9314
:101BC0003F934F935F936F937F938F939F93AF93C5
:101BD000BF93EF93FF9386EA95E00E94140B811167
:101BE00003C01092AB0502C08093C600FF91EF9135
:101BF000BF91AF919F918F917F916F915F914F9125
:101C00003F912F910F900BBE0F900FBE0F901F9022
:101C10001895FC01F89493818281981708F4905CE0
:101C2000981B892F7894089590E0009779F0FC0133
:101C3000EE0FFF1FEF5EFD4F408151814130510596
:101C400039F04230510531F0452B29F4889803C012
:101C5000899801C08A98880F991FFC01ED5EFD4F9D
:101C6000408151814F3F6FEF560769F04130510578
:101C700039F04230510531F0452B29F4889A03C0E0
:101C8000899A01C08A9A40917C00407E40937C00F2
:101C900040917C00FC01E75FFD4F80818F71842BB8
:101CA00080937C0080917B00877F80937B00809174
:101CB0007B00908195FB222720F930E093E0220FF2
:101CC000331F9A95E1F7282B20937B0008951F92EC
:101CD0000F920FB60F9211240BB60F922F933F93D2
:101CE0004F935F936F937F938F939F93AF93BF9324
:101CF000EF93FF9380917800909179002091A50552
:101D0000E091A405F0E0EE0FFF1F222319F0E05749
:101D1000FA4F02C0E458FA4F918380838091A40562
:101D20008F5F8093A4058091A4058A3049F4909137
:101D3000A50581E0911180E08093A5051092A4058E
:101D400080917A0590917B050E946C1B8091A4057F
:101D50000E94140E8091A405882329F080917A00B6
:101D6000806480937A00FF91EF91BF91AF919F9132
:101D70008F917F916F915F914F913F912F910F9034
:101D80000BBE0F900FBE0F901F901895CF92DF9251
:101D9000EF92FF926A017B0160912006709121060B
:101DA000625F7F4F0E94151741E0C701B601FF90A7
:101DB000EF90DF90CF900C947C180FB6F8940F92B0
:101DC0006091C4057091C5058091C6059091C705C5
:101DD0000F900FBE08954F925F926F927F928F92F5
:101DE0009F92AF92BF92CF92DF92EF92FF920F93AA
:101DF0001F93CF93DF930FB6F8940F9280917505E0
:101E000081508093750580917505882311F080E0DD
:101E1000D5C1809122068823D1F3E090ED05F090A2
:101E2000EE05E0E0F0E03BE041E08091E60588234C
:101E300009F481C0D7011896ED91FC911997A08DF6
:101E4000B18D6289738984899589EB019F838E8323
:101E500084899589EC017D836C83BF01625F7F4F2C
:101E600011960D911C9112970617170721F41296DF
:101E70009C938E931197118E108E8C9181508C9320
:101E8000A485B5858681978160857185EC017F8306
:101E90006E8360857185EB019D838C83CF010296F3
:101EA00011960D911C9112970817190721F412969B
:101EB0007C936E931197158614862C9121502C9348
:101EC000A28D20911D062A1710F4A0931D063A9F9B
:101ED000D0011124AF50BA4F11960D90BC91A02D96
:101EE000B783A68316966D917C911797718760874B
:101EF00016966D917C911797EB019D838C831796B5
:101F00009C938E931697A28D3A9FD0011124AF50C7
:101F1000BA4FB587A4878C918F5F8C93A0912006D0
:101F2000B0912106928D5A968C91981708F47DCF26
:101F3000409374057ACFEF2B11F00E940D1640905C
:101F40007005509071056090720570907305411492
:101F500051046104710409F429C11BE001E08824E3
:101F60008A94982C5401809175058111F9C0C09014
:101F7000C405D090C505E090C605F090C705DFEF19
:101F8000CD1ADD0AED0AFD0AC092C405D092C5053E
:101F9000E092C605F092C705C114D104E104F10432
:101FA000B9F48091CE059091CF052091CC05309168
:101FB000CD053093CF052093CE059093CD0580932A
:101FC000CC0580916F058F5F80936F050E940D1681
:101FD0008091C8059091C905A091CA05B091CB0523
:101FE00040E0C816D906EA06FB0608F4A6C0E09150
:101FF000CE05F091CF058081811109C08092C8057E
:102000009092C905A092CA05B092CB0596C0E09106
:10201000CE05F091CF050780F085E02D0084F18595
:10202000E02D82819381A481B581C816D906EA0684
:10203000FB0648F48093C8059093C905A093CA0590
:10204000B093CB057AC0A485B5858681978120851C
:102050003185EC013F832E83C085D1859D838C83A0
:10206000CF01029611962D913C91129728173907AE
:1020700021F41296DC93CE931197158614862C9139
:1020800021502C93A08DB18D1097F1F022893389C6
:1020900064897589E9017F836E83C489D5893D830D
:1020A0002C8311966D917C9112979F01225F3F4F77
:1020B0006217730721F41296DC93CE931197118E59
:1020C000108E2C9121502C93A28D20911D062A1741
:1020D00010F4A0931D061A9FD0011124AF50BA4FDF
:1020E00011960D90BC91A02DB783A68316962D91C5
:1020F0003C911797318720871696CD91DC911797E1
:102100009D838C8317969C938E931697A28D1A9F0E
:10211000D0011124AF50BA4FB587A4878C918F5F3F
:102120008C93A0912006B0912106928D5A968C91A5
:10213000981708F45CCF41E05ACFE0912006F09167
:102140002106E28D1E9FF0011124EF50FA4F80818D
:10215000823008F041E080917405811116C014C0EE
:102160008091700590917105A0917205B0917305F1
:102170000196A11DB11D8093700590937105A093E8
:102180007205B093730503C0411100937405D1E04B
:102190004D1A51086108710809F0E5CE10927005DA
:1021A000109271051092720510927305809174055A
:1021B000882309F42CCE0E942C1681E00F900FBECC
:1021C000DF91CF911F910F91FF90EF90DF90CF9013
:1021D000BF90AF909F908F907F906F905F904F9047
:1021E0000895809175058F5F809375050895CF924E
:1021F000DF92EF92FF926B017C01672B682B692BBA
:1022000019F40E942C160BC00E94F11040E0C70187
:10221000B6010E947C180E94EB0E882391F3FF9078
:10222000EF90DF90CF9008958F929F92AF92BF92E0
:10223000CF92DF92EF92FF920F931F93CF93DF9392
:10224000EC016A017B010E94F1108090C40590901E
:10225000C505A090C605B090C705088119812A81DF
:102260003B81D901C8018C0D9D1DAE1DBF1D80167F
:102270009106A206B30630F480179107A207B307B0
:1022800060F405C080179107A207B30740F011E082
:1022900088169906AA06BB0618F010E001C011E0E6
:1022A00088839983AA83BB83112349F0BC01CD01A4
:1022B000681979098A099B0940E00E947C180E94EC
:1022C000EB0E811102C00E942C16812FDF91CF915D
:1022D0001F910F91FF90EF90DF90CF90BF90AF9044
:1022E0009F908F9008950FB6F8940F92FC01968DF1
:1022F0000F900FBE81E0911180E00895EF92FF9260
:102300000F931F93CF93DF93EC010FB6F8940F92C6
:102310001AA17C0183E1E80EF11C01E011165CF4C6
:102320008B89882341F0C7010E9485198111009390
:1023300074051150F3CF8FEF8AA30F900FBE0FB625
:10234000F8940F9219A17E0188E0E80EF11C01E0DB
:1023500011165CF48885882341F0C7010E94851915
:102360008111009374051150F3CF8FEF89A30F9063
:102370000FBEDF91CF911F910F91FF90EF900895C5
:102380004F925F926F927F929F92AF92BF92CF9245
:10239000DF92EF92FF920F931F93CF93DF93CDB70E
:1023A000DEB729970FB6F894DEBF0FBECDBF8C0104
:1023B0004E835F8368877987D12C90E0580123E1B1
:1023C000A20EB11C8BE0982E24E0422E512C612CE1
:1023D000712C0FB6F8940F92D8015E968C915E978F
:1023E000882361F181505E968C935E978D919C91CC
:1023F000892BA1F48091200690912106892B39F038
:10240000E0912006F091210686A18F5F86A380913E
:10241000200690912106F80195838483D8011896AF
:102420008C91882339F0C80108960E948519811182
:102430000E942C160F900FBE81E083C14E815F81F8
:1024400068857985452B462B472B09F477C1911177
:1024500004C0CE0101960E9422190F900FBE0E9467
:10246000F1100FB6F8940F92F80181A18F3F09F493
:1024700011A2D80192968C9192978F3F11F4929667
:102480001C920F900FBEBE016A5F7F4FCE01019676
:102490000E9433198111B9C0C8010E9473118823A9
:1024A00009F4ADC0F80180819181892B09F094C0B5
:1024B0000FB6F8940F92E480F580E114F10409F46A
:1024C00088C0F701828DE0912006F0912106928D5F
:1024D000891708F072C0D7011E964D915D916D91DC
:1024E0007C91519777FD10C0E0912006F091210674
:1024F000928DB301A201491B510961097109F701CC
:1025000046875787608B718B989EC00111248F502E
:102510009A4FD7011C962D913C911D97281739078A
:1025200009F041C06701B2E0CB0ED11CC6010E9488
:10253000F116E0912006F0912106E28DD7015A961E
:10254000EC9380911D068E1710F4E0931D069E9E5D
:10255000F0011124EF50FA4F0180F281E02DD701F4
:102560001796FC93EE9316978681978119969C9304
:102570008E931897A681B7811596DC92CE92149708
:10258000D782C682D7015A96EC915A979E9EF00147
:102590001124EF50FA4F1D96FC93EE931C97808107
:1025A0008F5F808307C0E0912006F0912106828D25
:1025B000F701828FDD24D3940DC0E0912006F091C5
:1025C0002106DD24D394D70195969C91828D98178E
:1025D00008F0D12C0F900FBE4E815F816885798500
:1025E000C5010E94C60EC8010E947E110E94EB0E1A
:1025F000882311F091E0EDCE0E942C16FBCFC8018C
:102600000E947E110E94EB0EF5CFC8010E947E1140
:102610000E94EB0EC8010E947311882359F3DD203C
:1026200009F48EC00FB6F8940F92F80183898823BD
:1026300039F0028CF38DE02D908184E0891B01C07C
:1026400080E0D80114960D911C9115970115110584
:1026500009F474C0F80195A1981708F4982FD801CF
:102660005A968C915A97981709F468C096962C91AF
:102670009697213009F062C05A969C935A971E96FD
:102680004D915D916D917C91519777FD0DC044E026
:1026900050E060E070E0491B510961097109F801DF
:1026A00046875787608B718BFBE08F9FC001112499
:1026B0008F509A4FD8011C962D913C911D97281749
:1026C0003907E1F57801B2E0EB0EF11CC7010E9479
:1026D000F116D8015A96EC9180911D068E1710F4D0
:1026E000E0931D068BE08E9FF0011124EF50FA4F0E
:1026F0000180F281E02DD8011796FC93EE93169796
:102700002681378119963C932E931897A681B7811D
:102710001596FC92EE921497F782E682D8015A96AB
:10272000EC915A978E9FF0011124EF50FA4F1D96AD
:10273000FC93EE931C9780818F5F80830F900FBE78
:1027400080E029960FB6F894DEBF0FBECDBFDF91B3
:10275000CF911F910F91FF90EF90DF90CF90BF909E
:10276000AF909F907F906F905F904F9008950F93E0
:102770001F93CF93DF93811103C0C0E0D0E03FC02F
:10278000162F082F869FC001112483960E945E1881
:10279000EC01009791F3111103C09983888303C062
:1027A0008396998388830F8F18A30FB6F8940F929E
:1027B000488159818F8D68A19A01869F200D311D16
:1027C00011243D832C831E8E5B834A8390E0019706
:1027D000689F9001699F300D1124CA01820F931FD9
:1027E0009F838E838FEF89A38AA3CE0108960E94D0
:1027F0003C18CE0143960E943C180F900FBECE01AC
:10280000DF91CF911F910F9108950F920FB6F89419
:102810000F920BB60F920CB60F921F9211242F92AB
:102820003F924F925F926F927F928F929F92AF9260
:10283000BF92CF92DF92EF92FF920F931F932F934D
:102840003F934F935F936F937F938F939F93AF9338
:10285000BF93CF93DF93EF93FF93A0912006B091A6
:1028600021060DB60D920EB60D9213BE8091750520
:10287000811127C14091C4055091C5056091C605DD
:102880007091C7054F5F5F4F6F4F7F4F4093C405F7
:102890005093C5056093C6057093C7054115510552
:1028A00061057105D9F58091CE059091CF052091F4
:1028B000CC053091CD053093CF052093CE05909374
:1028C000CD058093CC0580916F058F5F80936F0558
:1028D000E091CE05F091CF05808181110CC08FEF82
:1028E0009FEFDC018093C8059093C905A093CA05AA
:1028F000B093CB0513C0E091CE05F091CF050780D2
:10290000F085E02D80819181A281B3818093C805FB
:102910009093C905A093CA05B093CB058091C805D3
:102920009091C905A091CA05B091CB0548175907E8
:102930006A077B0708F4B0C080E09BE0B92EE09105
:10294000CE05F091CF05908191110CC04FEF5FEF54
:10295000BA014093C8055093C9056093CA057093A6
:10296000CB059BC0E091CE05F091CF050780F085A7
:10297000E02D0084F185E02D0281138124813581D1
:10298000401751076207730748F40093C805109376
:10299000C9052093CA053093CB057FC0A485B585B2
:1029A0002681378100851185E9011F830E8300850B
:1029B0001185E8013D832C839F012E5F3F4F1196C7
:1029C000ED90FC901297E216F30621F412961C93F8
:1029D0000E931197158614869C9191509C93A08D0F
:1029E000B18D1097F9F002891389E488F588E80120
:1029F000FF82EE82E488F588E7011D830C8311963F
:102A0000CD90DC9012978F01025F1F4FC016D10648
:102A100021F41296FC92EE921197118E108E9C91D9
:102A200091509C93A28D90911D069A1710F4A0933B
:102A30001D06BA9ED0011124AF50BA4F11960D90C9
:102A4000BC91A02DB783A68316960D911C91179764
:102A50001187008716960D911C911797E8013D8309
:102A60002C8317963C932E931697A28DBA9ED00175
:102A70001124AF50BA4FB587A4879C919F5F9C9358
:102A8000A0912006B0912106228D5A969C9129177B
:102A900008F455CF81E053CF80E0E0912006F0911B
:102AA0002106E28DDBE0ED9FF0011124EF50FA4F9B
:102AB0009081923008F081E090917405911118C0D6
:102AC00014C08091700590917105A0917205B0912C
:102AD00073050196A11DB11D80937005909371053A
:102AE000A0937205B093730569C0882309F466C08A
:102AF00080917505882321F081E0809374055EC084
:102B000010927405A0912006B0912106E091200654
:102B1000F09121062D913C91838D948D821793071E
:102B2000A8F0809120069091210680912006909136
:102B30002106279A2F9A2FEF87EA91E621508040AD
:102B40009040E1F700C000001F9AF5CF80911D066C
:102B50006BE001C08150482F50E0649F9001659F59
:102B6000300D1124F901EF50FA4F9081992391F320
:102B7000A181B28114960D90BC91A02DB283A18346
:102B80002C503A4FA217B30731F414962D913C9173
:102B90001597328321839BE0949FF001959FF00D60
:102BA0001124EF50FA4F0180F281E02D208531850C
:102BB000309321062093200680931D06A0912006C5
:102BC000B0912106CD91CDBFDD91DEBFFF91EF9198
:102BD000DF91CF91BF91AF919F918F917F916F9135
:102BE0005F914F913F912F911F910F91FF90EF9027
:102BF000DF90CF90BF90AF909F908F907F906F901D
:102C00005F904F903F902F901F900F900CBE0F90B1
:102C10000BBE0F900FBE0F900895E091CE05F0917E
:102C2000CF058081811104C08FEF9FEFDC010BC0C5
:102C3000E091CE05F091CF050780F085E02D8081F1
:102C40009181A281B3818093C8059093C905A09317
:102C5000CA05B093CB0508950F920FB6F8940F9262
:102C60000BB60F920CB60F921F9211242F923F9227
:102C70004F925F926F927F928F929F92AF92BF928C
:102C8000CF92DF92EF92FF920F931F932F933F9378
:102C90004F935F936F937F938F939F93AF93BF9364
:102CA000CF93DF93EF93FF93A0912006B09121067D
:102CB0000DB60D920EB60D9280917505882321F008
:102CC00081E0809374055EC010927405A091200687
:102CD000B0912106E0912006F09121062D913C91C2
:102CE000838D948D82179307A8F080912006909190
:102CF00021068091200690912106279A2F9A2FEF86
:102D000087EA91E6215080409040E1F700C0000042
:102D10001F9AF5CF80911D066BE001C08150482FAE
:102D200050E0649F9001659F300D1124F901EF5030
:102D3000FA4F9081992391F3A181B28114960D905D
:102D4000BC91A02DB283A1832C503A4FA217B30798
:102D500031F414962D913C911597328321839BE099
:102D6000949FF001959FF00D1124EF50FA4F0180D0
:102D7000F281E02D208531853093210620932006B5
:102D800080931D06A0912006B0912106CD91CDBF64
:102D9000DD91DEBFFF91EF91DF91CF91BF91AF91B8
:102DA0009F918F917F916F915F914F913F912F9163
:102DB0001F910F91FF90EF90DF90CF90BF90AF9059
:102DC0009F908F907F906F905F904F903F902F904B
:102DD0001F900F900CBE0F900BBE0F900FBE0F9068
:102DE0000895CF93DF93FC01A285B38584819581FB
:102DF00026813781EC013F832E83C681D7819D8355
:102E00008C8311968D919C911297E817F90721F404
:102E10001296DC93CE931197138612868C91815073
:102E20008C938C91DF91CF910895EF92FF920F9345
:102E30001F93CF93DF937C01FB014081518162811D
:102E400073814F3F8FEF58076807780721F4E70138
:102E5000A985BA8512C0D701139614968D919C91BD
:102E60001597EC01088119812A813B814017510790
:102E70006207730710F0DC01F0CF14968D919C91DE
:102E8000159795838483EC01FF83EE83B783A68334
:102E90001596FC93EE931497F386E286F7018081F2
:102EA0008F5F8083DF91CF911F910F91FF90EF9003
:102EB0000895CF92DF92EF92FF920F931F93FC0140
:102EC000428353836483758393878287041715072E
:102ED00026073707A8F00C191D092E093F0986851A
:102EE0009785A089B189081719072A073B07E8F4D5
:102EF000BF016E5F7F4F8091BE059091BF0511C0ED
:102F00000C151D052E053F0528F44C155D056E05B5
:102F10007F0558F4BF016E5F7F4F8091C00590918F
:102F2000C1050E94151780E001C081E01F910F913B
:102F3000FF90EF90DF90CF9008954F925F926F9245
:102F40007F928F929F92AF92BF92CF92DF92EF9239
:102F5000FF920F931F93CF93DF93EC014A015B0124
:102F6000280139014E855F8568897989480D591D89
:102F70006A1D7B1D7501640193018201CE010E94CF
:102F80005917882369F08E859F85A889B989880E8D
:102F9000991EAA1EBB1EEC89FD89CE011995E2CFB0
:102FA000DF91CF911F910F91FF90EF90DF90CF9025
:102FB000BF90AF909F908F907F906F905F904F9059
:102FC00008958F929F92AF92BF92CF92DF92EF922D
:102FD000FF920F931F93CF93DF936B017C01490105
:102FE0005A01E091C005F091C1050780F085E02D00
:102FF000C085D185CE0102960E94F1168E8982FF8E
:1030000008C095018401B701A601CE010E949D1759
:1030100002C08E7F8E8BEC89FD89CE01DF91CF912E
:103020001F910F91FF90EF90DF90CF90BF90AF90E6
:103030009F908F901994E091C005F091C105808117
:10304000882369F00780F085E02D6081718182819D
:1030500093812FEF3FEFA9010E94E117ECCF809100
:10306000BE059091BF059093C1058093C005F09374
:10307000BF05E093BE050895FC010396928381830A
:103080004FEF5FEFBA014383548365837683908764
:1030900087839287818710820895CF93DF9300976B
:1030A00051F0EC010E94F110CE010E94441DDF910D
:1030B000CF910C94EB0EDF91CF910895CF93DF93D6
:1030C000EC010E94F110CE010E94AC1CEC010E94A8
:1030D000EB0E209769F4279A2F9A2FEF80E792E062
:1030E000215080409040E1F700C000001F9AF5CFCA
:1030F000CE01DF91CF9108958F929F92AF92BF92B0
:10310000CF92DF92EF92FF92CF936B017C01C42F9D
:103110008090C4059090C505A090C605B090C705E5
:10312000809120069091210602960E94F1168FEF61
:10313000C816D806E806F806C1F5CC23B1F1E0912F
:10314000D105F091D205A0912006B09121061796E5
:10315000FC93EE931697A0912006B09121068681EC
:10316000978119969C938E93189780912006909141
:103170002106A681B781029615969C938E9314978B
:103180008091200690912106029697838683E09194
:103190002006F091210680ED95E095878487809147
:1031A000D0058F5F8093D00543C0C80CD91CEA1CA2
:1031B000FB1CE0912006F0912106C282D382E482BA
:1031C000F5826091200670912106C814D904EA04A2
:1031D000FB0488F48091CC059091CD056E5F7F4F04
:1031E000CF91FF90EF90DF90CF90BF90AF909F90E6
:1031F0008F900C9415178091CE059091CF056E5F3E
:103200007F4F0E9415178091C8059091C905A09124
:10321000CA05B091CB05C816D906EA06FB0640F4EC
:10322000C092C805D092C905E092CA05F092CB05BC
:10323000CF91FF90EF90DF90CF90BF90AF909F9095
:103240008F90089520916F05FC0120834091C40563
:103250005091C5056091C6057091C70541835283A1
:10326000638374830895CF92DF92EF92FF920F935E
:103270001F93CF93DF93FB010FB6F8940F92009149
:10328000C4051091C5052091C6053091C705408140
:103290005181628173814F3FAFEF5A076A077A0706
:1032A00041F1EC01C980DA80EB80FC80A0916F05D0
:1032B000B881BA1759F00C151D052E053F0530F0E1
:1032C000108211821282138281E014C00C191D0930
:1032D0002E093F09041715072607370788F7401BF3
:1032E000510B620B730B40835183628373830E9483
:1032F000221980E00F900FBEDF91CF911F910F91A7
:10330000FF90EF90DF90CF900895CF93DF93DC0193
:103310001796ED91FC9118970084F185E02DA08D12
:10332000B18D8289938924893589EC013F832E836D
:10333000C489D5899D838C83CF010E9611962D91DA
:103340003C9112972817390721F41296DC93CE93FB
:103350001197118E108E2C9121502C932091750570
:1033600021114FC0A485B58586819781208531853F
:10337000EC013F832E83C085D1859D838C839F0183
:103380002E5F3F4F11968D919C9112978217930754
:1033900021F41296DC93CE931197158614868C91A6
:1033A00081508C93A28D80911D068A1710F4A093F2
:1033B0001D068BE08A9FD0011124AF50BA4F1196A1
:1033C0000D90BC91A02DB783A68316964D915C916C
:1033D0001797518740871696CD91DC9117973D83BB
:1033E0002C8317963C932E931697A28D8A9FD0011B
:1033F0001124AF50BA4FB587A4878C918F5F8C93FF
:103400001FC0A091E705B091E805B38BA28B16967B
:103410002D913C911797358B248B1696CD91DC918D
:1034200017979D838C8317969C938E93169786EEA1
:1034300095E0918F808F8091E6058F5F8093E60500
:10344000A0912006B0912106928D5A968C918917F1
:1034500020F481E08093740501C080E0DF91CF917A
:1034600008957F928F929F92AF92BF92CF92DF92F8
:10347000EF92FF920F931F93CF93DF93782EA92E95
:103480006B017A01B22ECA010E945E184C01892B91
:1034900009F413C18CE290E00E945E18EC01892BC4
:1034A000C1F09C8E8B8EA70165EA70E0C4010E947A
:1034B000BE2081E0E81AF108EB8DFC8DEE0DFF1DBA
:1034C000C114D104D1F0CE014D969601285F3F4F33
:1034D00007C0C4010E944D18F0C0C216D30659F0AF
:1034E000A601D6016D916D01DC016D93CD01DA016C
:1034F0004C914111F2CF1CA201C01D8E8B2D843046
:1035000008F083E08A8F8DA31EA21D861C86198E6B
:10351000188EDB87CA8744E050E060E070E06A0103
:103520007B01C81AD108E108F108CE86DF86E88A57
:10353000F98ADF8BCE8B84E09E01295D3F4FD90154
:103540001D928A95E9F71BA67082DF011197AC9254
:1035500011971C9211971C92119780E88C931197E8
:103560001C9211971C9211971C9257971C921197BD
:103570001C92B697F983E8830115110519F0F8013B
:10358000D183C0830FB6F8940F92809122068F5F8B
:10359000809322068091200690912106892BD1F5F7
:1035A000D0932106C093200680912206813009F035
:1035B00041C081EF95E00E943C188CEF95E00E949D
:1035C0003C1887E096E00E943C1882E196E00E9459
:1035D0003C1889E696E00E943C188EE596E00E9431
:1035E0003C1886EE95E00E943C188BED95E00E9419
:1035F0003C1880ED95E00E943C1889E696E0909397
:10360000CF058093CE058EE596E09093CD0580930F
:10361000CC0510C080911F0681110CC0E0912006DE
:10362000F0912106928D8A8D891720F0D093210682
:10363000C093200680911E068F5F80931E06EA8D40
:1036400080911D068E1710F4E0931D068BE08E9F6F
:10365000F0011124EF50FA4F0180F281E02DFF8339
:10366000EE832681378139872887A681B7819E011D
:103670002E5F3F4F15963C932E93149737832683E6
:10368000EA8D8E9FF0011124EF50FA4FFD87EC87F1
:1036900080818F5F80830F900FBE80911F068823EB
:1036A00051F0E0912006F0912106928D8A8D9817B5
:1036B00010F40E942C1681E001C08FEFDF91CF91B2
:1036C0001F910F91FF90EF90DF90CF90BF90AF9040
:1036D0009F908F907F900895FC01968D878D98170D
:1036E00080F482A19F5F968F8F3F41F48389882366
:1036F00051F0CF0143960E94851905C08F5F82A3C8
:1037000002C080E0089581E008950E940514189594
:10371000789484B5826084BD84B5816084BD85B5AC
:10372000826085BD85B5816085BD80916E008160B8
:1037300080936E001092810080918100826080935E
:103740008100809181008160809381008091800060
:103750008160809380008091B10084608093B1008B
:103760008091B00081608093B00080919100826070
:10377000809391008091910081608093910080916D
:1037800090008160809390008091A100826080937E
:10379000A1008091A10081608093A1008091A00090
:1037A00081608093A000809121018260809321013B
:1037B00080912101816080932101809120018160AD
:1037C0008093200180917A00846080937A008091B8
:1037D0007A00826080937A0080917A008160809381
:1037E0007A0080917A00806880937A001092C100FC
:1037F00020910702309108028FEF91E2821B930B18
:1038000090930402809303020E94040B03E516E0E8
:1038100020E040EC50E06AE375E084EC90E00E9428
:10382000311A813009F08DC00FB6F8940F92809153
:10383000C2059091C305892BE9F486E496E00E94C5
:103840003C188BE396E00E943C1886E496E0909347
:10385000C1058093C0058BE396E09093BF058093EC
:10386000BE0540E067E08AE00E94B7139093C3056D
:103870008093C2050F900FBE8091C2059091C30541
:10388000892B09F45EC001E516E023E045E550E030
:103890006FE375E087EF90E00E94311A813009F004
:1038A00050C0F8944FEF5FEFBA014093C8055093B2
:1038B000C9056093CA057093CB0580931F061092CB
:1038C000C4051092C5051092C6051092C705A895AB
:1038D00090EC88E10FB6F894A895809360000FBE35
:1038E00090936000A0912006B0912106CD91CDBFAC
:1038F000DD91DEBFFF91EF91DF91CF91BF91AF914D
:103900009F918F917F916F915F914F913F912F91F7
:103910001F910F91FF90EF90DF90CF90BF90AF90ED
:103920009F908F907F906F905F904F903F902F90DF
:103930001F900F900CBE0F900BBE0F900FBE0F90FC
:103940000895809102020E94040BC0E0D0E020970D
:10395000F1F30E940000FBCF0F931F93CF93DF93EF
:103960008230910510F482E090E0E0917606F091CB
:10397000770620E030E0A0E0B0E0309719F1408118
:1039800051810281138148175907C8F084179507A0
:1039900069F4109731F012960C93129713961C93BA
:1039A00027C0009376061093770622C021153105B3
:1039B00019F04217530718F49A01BD01EF01DF0116
:1039C000F801DBCF21153105F9F0281B390B243024
:1039D000310580F48A819B816115710521F0FB011D
:1039E0009383828304C09093770680937606FE01CA
:1039F000329644C0FE01E20FF31F8193919322504F
:103A00003109398328833AC02091740630917506B4
:103A1000232B41F420910502309106023093750664
:103A20002093740620910302309104022115310580
:103A300041F42DB73EB74091070250910802241B74
:103A4000350BE0917406F0917506E217F307A0F4C8
:103A50002E1B3F0B2817390778F0AC014E5F5F4FE4
:103A60002417350748F04E0F5F1F5093750640939B
:103A700074068193919302C0E0E0F0E0CF01DF9102
:103A8000CF911F910F910895CF93DF93009709F481
:103A900081C0FC01329713821282A0917606B09108
:103AA0007706109781F420813181820F931F209136
:103AB0007406309175062817390751F5F09375068D
:103AC000E093740667C0ED0120E030E0CE17DF0719
:103AD00040F44A815B819E0141155105F1F0EA01F4
:103AE000F5CFD383C28340815181840F951FC817BE
:103AF000D90759F488819981840F951F0296918383
:103B000080838A819B81938382832115310529F4E7
:103B1000F0937706E09376063DC0E901FB83EA83E4
:103B200049915991C40FD51FEC17FD0761F48081AD
:103B30009181840F951F0296E90199838883828180
:103B400093819B838A83E0E0F0E012968D919C91B3
:103B50001397009719F0FD01DC01F7CF8D919C912F
:103B600011979D012E5F3F4F820F931F2091740686
:103B7000309175062817390769F4309729F41092A7
:103B800077061092760602C013821282B0937506F1
:103B9000A0937406DF91CF9108955058BB27AA27B0
:103BA0000E94E51D0C94361F0E94281F38F00E94C9
:103BB0002F1F20F039F49F3F19F426F40C94251F91
:103BC0000EF4E095E7FB0C941F1FE92F0E94471F9E
:103BD00058F3BA17620773078407950720F079F442
:103BE000A6F50C94691F0EF4E0950B2EBA2FA02DAC
:103BF0000B01B90190010C01CA01A0011124FF279A
:103C0000591B99F0593F50F4503E68F11A16F04094
:103C1000A22F232F342F4427585FF3CF4695379593
:103C20002795A795F0405395C9F77EF41F16BA0B58
:103C3000620B730B840BBAF09150A1F0FF0FBB1F06
:103C4000661F771F881FC2F70EC0BA0F621F731F4F
:103C5000841F48F4879577956795B795F7959E3FAC
:103C600008F0B0CF9395880F08F09927EE0F97953D
:103C7000879508950E944E1E0C94361F0E942F1F98
:103C800058F00E94281F40F029F45F3F29F00C945F
:103C90001F1F51110C946A1F0C94251F0E94471F6F
:103CA00068F39923B1F3552391F3951B550BBB276B
:103CB000AA2762177307840738F09F5F5F4F220FB0
:103CC000331F441FAA1FA9F335D00E2E3AF0E0E8A7
:103CD00032D091505040E695001CCAF72BD0FE2FF1
:103CE00029D0660F771F881FBB1F26173707480785
:103CF000AB07B0E809F0BB0B802DBF01FF2793583D
:103D00005F4F3AF09E3F510578F00C941F1F0C94C2
:103D10006A1F5F3FE4F3983ED4F3869577956795E5
:103D2000B795F7959F5FC9F7880F911D9695879571
:103D300097F90895E1E0660F771F881FBB1F621790
:103D400073078407BA0720F0621B730B840BBA0B4E
:103D5000EE1F88F7E09508950E94B31E6894B11194
:103D60000C946A1F08950E944F1F88F09F5798F087
:103D7000B92F9927B751B0F0E1F0660F771F881F70
:103D8000991F1AF0BA95C9F714C0B13091F00E948A
:103D9000691FB1E008950C94691F672F782F882759
:103DA000B85F39F0B93FCCF3869577956795B395B1
:103DB000D9F73EF490958095709561957F4F8F4F20
:103DC0009F4F0895E89409C097FB3EF49095809525
:103DD000709561957F4F8F4F9F4F9923A9F0F92FD1
:103DE00096E9BB279395F695879577956795B7954F
:103DF000F111F8CFFAF4BB0F11F460FF1BC06F5F35
:103E00007F4F8F4F9F4F16C0882311F096E911C046
:103E1000772321F09EE8872F762F05C0662371F067
:103E200096E8862F70E060E02AF09A95660F771F7B
:103E3000881FDAF7880F9695879597F9089597F96F
:103E40009F6780E870E060E008959FEF80EC089540
:103E500000240A9416161706180609060895002469
:103E60000A9412161306140605060895092E0394E3
:103E7000000C11F4882352F0BB0F40F4BF2B11F457
:103E800060FF04C06F5F7F4F8F4F9F4F089557FDB6
:103E90009058440F551F59F05F3F71F04795880FB8
:103EA00097FB991F61F09F3F79F08795089512164F
:103EB00013061406551FF2CF4695F1DF08C01616FB
:103EC00017061806991FF1CF8695710561050894AC
:103ED0000895E894BB2766277727CB0197F90895C3
:103EE0000E94322008F48FEF089516F00C945620AB
:103EF0000C94251F68940C941F1F0E944F1FA8F359
:103F00009923C1F3AEF3DF93CF931F930F93FF92E7
:103F1000C92FDD2788232AF02197660F771F881F76
:103F2000DAF720E030E040E85FEB9FE3883920F0EB
:103F3000803E38F021968F770E94CE1DE6EFF0E0AC
:103F400004C00E94CE1DE3E2F1E00E9464208B01D8
:103F5000BE01EC01FB2E6F5771097595771F880B19
:103F6000990B0E94E41E28E132E741E35FE30E94DF
:103F7000D81FAF2D9801AE01FF900F911F91CF91E7
:103F8000DF910E94E51D0C94361F0E94D81F0C94EF
:103F9000361F0E94281F38F00E942F1F20F0952303
:103FA00011F00C941F1F0C94251F11240C946A1FF0
:103FB0000E94471F70F3959FC1F3950F50E0551F66
:103FC000629FF001729FBB27F00DB11D639FAA276E
:103FD000F00DB11DAA1F649F6627B00DA11D661FBD
:103FE000829F2227B00DA11D621F739FB00DA11DDE
:103FF000621F839FA00D611D221F749F3327A00D98
:10400000611D231F849F600D211D822F762F6A2F33
:1040100011249F5750409AF0F1F088234AF0EE0F98
:10402000FF1FBB1F661F771F881F91505040A9F7C5
:104030009E3F510580F00C941F1F0C946A1F5F3F38
:10404000E4F3983ED4F3869577956795B795F79501
:10405000E7959F5FC1F7FE2B880F911D9695879579
:1040600097F90895990F0008550FAA0BE0E8FEEFA5
:1040700016161706E807F907C0F012161306E4072C
:10408000F50798F0621B730B840B950B39F40A2625
:1040900061F0232B242B252B21F408950A2609F403
:1040A000A140A6958FEF811D811D08959F3F31F09E
:1040B000915020F4879577956795B795880F911D56
:1040C0009695879597F90895DF93CF931F930F9354
:1040D000FF92EF92DF927B018C01689406C0DA2E8A
:1040E000EF010E94D81FFE01E894A591259135911A
:1040F00045915591A6F3EF010E94E51DFE01970140
:10410000A801DA9469F7DF90EF90FF900F911F916B
:10411000CF91DF910895A1E21A2EAA1BBB1BFD01CE
:104120000DC0AA1FBB1FEE1FFF1FA217B307E40796
:10413000F50720F0A21BB30BE40BF50B661F771FEE
:10414000881F991F1A9469F76095709580959095CE
:104150009B01AC01BD01CF010895EE0FFF1F881F29
:104160008BBF0790F691E02D1994FB01DC0102C092
:1041700001900D9241505040D8F70895DC0101C0E4
:104180006D9341505040E0F708950F931F93CF93E4
:10419000DF93CDB7DEB72E970FB6F894DEBF0FBE14
:1041A000CDBF0E891F8986E08C831A8309838FEF28
:1041B0009FE79E838D83AE01465E5F4F688D798D4C
:1041C000CE0101960E94F420EF81F885E00FF11FE7
:1041D00010822E960FB6F894DEBF0FBECDBFDF91D2
:1041E000CF911F910F9108952F923F924F925F921E
:1041F0006F927F928F929F92AF92BF92CF92DF92F7
:10420000EF92FF920F931F93CF93DF93CDB7DEB75B
:104210002B970FB6F894DEBF0FBECDBF6C017B01AC
:104220008A01FC0117821682838181FFCCC1CE01F5
:1042300001963C01F6019381F70193FD859193FF6F
:1042400081917F01882309F4BAC1853239F493FD45
:10425000859193FF81917F01853229F4B60190E029
:104260000E941423E7CF912C212C312CFFE1F31570
:10427000D8F08B3279F038F4803279F08332A1F4BF
:10428000232D20611DC08D3261F0803369F4232D10
:10429000216016C0832D8260382EE32DE4603E2E0F
:1042A0002AC0F32DF8601DC037FC2DC020ED280F6B
:1042B0002A3040F08E32B9F436FC81C1232D2064BF
:1042C000322E19C036FE06C08AE0989E200D1124B9
:1042D000922E11C0EAE02E9E200D1124222EF32DE5
:1042E000F0623F2E08C08C3621F4832D8068382E72
:1042F00002C0883641F4F70193FD859193FF8191C7
:104300007F018111B3CF982F9F7D9554933028F46E
:104310000C5F1F4F9FE399830DC0833631F08337C5
:1043200071F0833509F059C021C0F801808189837B
:104330000E5F1F4F88248394912C530113C02801D2
:10434000F2E04F0E511CF801A080B18036FE03C090
:10435000692D70E002C06FEF7FEFC5010E94092355
:104360004C018201F32DFF773F2E16C0280122E079
:10437000420E511CF801A080B18036FE03C0692DA9
:1043800070E002C06FEF7FEFC5010E94FE224C017A
:10439000F32DF0683F2E820133FC1BC0822D90E08C
:1043A00088169906B0F4B60180E290E00E941423CA
:1043B0002A94F4CFF50137FC859137FE81915F0196
:1043C000B60190E00E94142321102A9421E0821A61
:1043D00091088114910471F7E8C0843611F0893690
:1043E00041F5F80137FE07C06081718182819381B8
:1043F0000C5F1F4F08C060817181072E000C880B75
:10440000990B0E5F1F4FF32DFF763F2E97FF09C0CC
:1044100090958095709561957F4F8F4F9F4FF06875
:104420003F2E2AE030E0A3010E945023882E8618F8
:1044300045C0853731F4232D2F7EB22E2AE030E09F
:1044400025C0932D997FB92E8F36C1F018F4883589
:1044500079F0B5C0803719F0883721F0B0C0E92F66
:10446000E061BE2EB4FE0DC0FB2DF460BF2E09C06E
:1044700034FE0AC0292F2660B22E06C028E030E0A4
:1044800005C020E130E002C020E132E0F801B7FED3
:1044900007C060817181828193810C5F1F4F06C0CC
:1044A0006081718180E090E00E5F1F4FA3010E9448
:1044B0005023882E8618FB2DFF773F2E36FE0DC029
:1044C000232D2E7FA22E891458F434FE0BC032FC0B
:1044D00009C0832D8E7EA82E05C0B82CA32C03C046
:1044E000B82C01C0B92CA4FE0FC0FE01E80DF11DCF
:1044F0008081803321F49A2D997EA92E09C0A2FED5
:1045000006C0B394B39404C08A2D867809F0B3949E
:10451000A3FC11C0A0FE06C0B21488F4280C922C93
:104520009B180EC0B21460F4B60180E290E00E94C5
:104530001423B394F7CFB21418F42B1802C0982C9C
:10454000212CA4FE10C0B60180E390E00E94142349
:10455000A2FE17C0A1FC03C088E790E002C088E576
:1045600090E0B6010CC08A2D867859F0A1FE02C0F9
:104570008BE201C080E2A7FC8DE2B60190E00E94D0
:104580001423891438F4B60180E390E00E941423C8
:104590009A94F7CF8A94F301E80DF11D8081B6015A
:1045A00090E00E9414238110F5CF222009F442CE1E
:1045B000B60180E290E00E9414232A94F6CFF6011F
:1045C0008681978102C08FEF9FEF2B960FB6F894EC
:1045D000DEBF0FBECDBFDF91CF911F910F91FF9036
:1045E000EF90DF90CF90BF90AF909F908F907F9093
:1045F0006F905F904F903F902F900895FC01059031
:10460000615070400110D8F7809590958E0F9F1FD4
:104610000895FC016150704001900110D8F7809519
:1046200090958E0F9F1F08950F931F93CF93DF9345
:10463000FB01238121FD03C08FEF9FEF2CC022FFE0
:1046400016C046815781248135814217530744F4AF
:10465000A081B1819D012F5F3F4F318320838C93D7
:10466000268137812F5F3F4F3783268314C08B010C
:10467000EC01FB010084F185E02D1995892BE1F611
:10468000D80116968D919C911797019617969C9339
:104690008E931697CE01DF91CF911F910F910895C0
:1046A000FA01AA27283051F1203181F1E8946F9363
:1046B0006E7F6E5F7F4F8F4F9F4FAF4FB1E03ED009
:1046C000B4E03CD0670F781F891F9A1FA11D680FA7
:1046D000791F8A1F911DA11D6A0F711D811D911DDA
:1046E000A11D20D009F468943F912AE0269F11244F
:1046F0003019305D3193DEF6CF010895462F4770B3
:10470000405D4193B3E00FD0C9F7F6CF462F4F700D
:10471000405D4A3318F0495D31FD4052419302D06B
:10472000A9F7EACFB4E0A695979587957795679511
:10473000BA95C9F700976105710508959B01AC0111
:104740000A2E06945795479537952795BA95C9F738
:10475000620F731F841F951FA01D0895F894FFCF4B
:104760000201030000780620002300240025002613
:10477000002700FFFFFFFFFFFFFFFFFFFF3D3D3D65
:104780003D3D3D3D3D3D3D3D3D3D3D3D3D3D3D3D59
:104790003D3D3D3D3D3D3D3D3D3D3D3D3D3D3D3D49
:1047A0003D3D3D3D3D0A007C7C20202020202020F6
:1047B00020202020204D61696E20436F6E74726F3F
:1047C0006C2020202020202020202020207C7C0AFB
:1047D000007C7C2020202020202020202020202041
:1047E0002020426F61726420202020202020202081
:1047F000202020202020207C7C0A007C7C2D2D2D58
:104800002D2D2D2D2D2D2D2D2D2D2D2D2D2D2D2DD8
:104810002D2D2D2D2D2D2D2D2D2D2D2D2D2D2D2DC8
:104820002D7C7C0A007C7C2020202020202020461B
:1048300069726D776172653A20323032312D3131D3
:104840002D323220202020202020207C7C0A005580
:10485000415254303A20696E697469616C697A65B5
:10486000640A0055415254313A20696E6974696195
:104870006C697A65640A0050574D206D6F64756CE1
:10488000653A20696E697469616C697A65640A00C9
:1048900063726561746520626C696E6B207461730C
:1048A0006B2E2E2E2000426C696E6B004F4B0A005F
:1048B00063726561746520736F6C656E6F696420E7
:1048C0007461736B2E2E2E2000536F6C656E6F69B2
:1048D000640063726561746520627574746F6E2024
:1048E000696E7075742068616E646C6572207461A5
:1048F000736B2072696768742E2E2E2000427574C7
:10490000746F6E5F720063726561746520627574A6
:10491000746F6E20696E7075742068616E646C656A
:1049200072207461736B206C6566742E2E2E2000CD
:10493000427574746F6E5F6C00637265617465209C
:1049400073636F7265207570646174652074617340
:104950006B2E2E2E200053636F72650063726561AB
:10496000746520616463207461736B2E2E2E2000A9
:1049700041444300637265617465207361666574C8
:1049800079207461736B2E2E2E200053616665743E
:104990007900256C750A0025643A20746C3A20254C
:1049A000642C2074723A2025642C2063313A20252F
:1049B000642C2063323A2025642C2063333A20256E
:1049C000640A004552523A2068696768206375722C
:1049D00072656E740A004552523A20686967682011
:1049E00074656D70657261747572650A0057524E18
:1049F0003A2063616E6E6F74206765742073656D15
:104A00006170686F72650A006661696C6564207424
:104A10006F206372656174652073656D6170686F86
:104A2000726520696E207361666574795F74617365
:104A30006B0A006661696C656420746F206372653F
:104A40006174652073656D6170686F726520696E51
:104A50002070726F636573735F6164635F74617309
:104A60006B0A006661696C656420746F206372650F
:104A70006174652073656D6170686F726520696E21
:104A800020636865636B5F696E7075745F6C5F74DB
:104A900061736B0A00494E49540049444C45005427
:084AA0006D72205376630000E3
:00000001FF
