:100000000C94CB020C94EC020C94EC020C94EC02D9
:100010000C94EC020C94EC020C94EC020C94EC02A8
:100020000C94EC020C94EC020C94560A0C94EC0226
:100030000C9497190C94EC020C94EC020C94EC02C6
:100040000C94EC020C94EC020C94EC020C94EC0278
:100050000C94EC020C94EC020C94EC020C94DD0A6F
:100060000C94EC020C94440D0C94EC020C94700D66
:100070000C94EC020C94FF0D0C94EC020C94EC022A
:100080000C94EC020C94EC020C94EC020C94EC0238
:100090000C94E70C0C94EC020C94130D0C94EC02F1
:1000A0000C94EC020C94EC020C94EC020C94EC0218
:1000B0000C94EC020C94EC020C94EC020C94EC0208
:1000C0000C94EC020C94EC020C94EC020C948A0C50
:1000D0000C94EC020C94B60C0C942D0C0C94EC02C9
:1000E0000C94590C64026402AA029102A4026402F4
:1000F0006402AA02910208000000BE922449123E46
:10010000ABAAAA2ABECDCCCC4C3E00000080BEAB30
:10011000AAAAAA3E00000000BF000000803F000025
:10012000000000084178D3BB4387D1133D190E3C32
:10013000C3BD4282AD2B3E68EC8276BED98FE1A969
:100140003E4C80EFFFBE01C4FF7F3F000000000077
:100150000C9419050C94A3060C94F7000C947104EC
:100160000C9464020C9446070C94E9090C942C033B
:100170000C9419060C94A4020C94C4000C94AA02CA
:100180000C94200A0C94910200E010E080916C0520
:10019000882309F10FB6F8940F92E091D405F091FD
:1001A000D505C681D781CE0102960E94B8158091EF
:1001B0000A06815080930A0680916C0581508093D5
:1001C0006C050F900FBE8F89988D0E94B816CE01D6
:1001D0000E94B816DBCF8091E105823010F00E94BA
:1001E000F3140115110591F20E940000CFCFCF93B7
:1001F000DF93CDB7DEB72A970FB6F894DEBF0FBEF8
:10020000CDBFE091BA05F091BB051081112331F00B
:100210000580F681E02DE080F18002C0E12CF12C18
:100220000E9444100E946F0E6C01809172059091A3
:100230007305C816D90620F40E948C1681E001C00F
:1002400080E0D0927305C0927205811178C01123AD
:1002500051F0CE14DF0470F00E94790EB601C70190
:100260000E946216F1C0E091B805F091B905808155
:1002700061E0811160E00091BC051091BD050FB6F1
:10028000F8940F92D8015D968C915D978F3F11F491
:100290005D961C92F801868D8F3F09F4168E0F90A3
:1002A0000FBED8015A968C915A9781113EC0529632
:1002B000ED91FC915397A0910806B09109061F9605
:1002C000FC93EE931E97A0910806B09109068481D5
:1002D000958151969C938E935097809108069091AA
:1002E0000906A481B5810C9613969C938E93129760
:1002F00080910806909109060C9695838483E0917D
:100300000806F0910906C8014196958B848BF80187
:1003100081898F5F818B611104C0C7018C199D0990
:1003200002C08FEF9FEF0E94E716C8010E94A21043
:100330000E94790E811188C00E94F31485C00E942A
:10034000790E82C0811109C080916D058E838091E4
:10035000BE059091BF0598878F830F900FBE0E94B6
:1003600044100FB6F8940F92F801858D8F3F09F471
:10037000158ED8015E968C915E978F3F11F45E9634
:100380001C920F900FBEBE01675F7F4FCE01069695
:100390000E946A178111F3C0C8010E949710882338
:1003A00009F4E7C069857A85C6010E945E0EC8011E
:1003B0000E94A2100E94790E882309F4D7C081E020
:1003C0000FB6F8940F92D8015A96FC905A97FF20D6
:1003D00009F4C4C05C964C915C97411141C0FA94F9
:1003E000D8015A96FC925A9718968C91811159C04F
:1003F0000F900FBED980D7FC27C00C811D81D8017A
:100400001A968D919C911B97892B21F0C801029619
:100410000E94B8150E946F0E7C0180917205909128
:100420007305E816F90610F40E948C16F092730515
:10043000E09272058D2DDD0C990BAA0BBB0BFC0114
:100440003197E930F105B8F10091BC051091BD0577
:100450001A86198680E06801F1E1CF0ED11CB0CF79
:1004600050E016968D919C911797840F951F1796C3
:100470009C938E93169714962D913C911597821705
:10048000930738F08D919C91119717969C938E93BA
:100490001697F80166817781CE0101960E94BE1EF3
:1004A0009ECFC80108960E949E17882309F4A0CF0A
:1004B0000E94F3149DCFD80152969C918827EE5844
:1004C000FF4F8F4F0C94B61E9160F801928BCA803B
:1004D000DB80648575856C0D7D1D9601A701C801C3
:1004E0000E941416882309F4AFCFD80152968C913C
:1004F000529782FF0BC01C966D917C911D976C0DDD
:100500007D1DA701C8010E943E1603C08E7FF80121
:10051000828BD8015096ED91FC915197C8011995A5
:1005200093CF9160D80152969C9352976A817B81B8
:100530001D967C936E931C976E0D7F1D9701A701EE
:10054000C8010E94141680CF91FD04C0C8010E940A
:10055000B8167ACF9E7FF801928B76CF29853A859F
:10056000232B09F0EFCE0F900FBE4BCE0E94F31459
:1005700026CFC8010E94A2100E94790E20CFC80188
:100580000E94A2100E94790EC8010E949710882331
:1005900009F415CF36CE11241FBECFEFD1E2DEBF56
:1005A000CDBF00E00CBF15E0A0E0B2E0E2E7F3E46D
:1005B00000E00BBF02C007900D92A834B107D9F735
:1005C00026E0A8E4B5E001C01D92A835B207E1F726
:1005D0000E949A190C94B7210C9400000F931F935A
:1005E000CF93DF93CDB7DEB7C054D1090FB6F894DF
:1005F000DEBF0FBECDBF9F938F938E010F5F1F4F46
:100600001F930F930E94CE1E0F900F900F900F908C
:1006100086EA95E00E94A10DF80101900020E9F71B
:100620003197E01BF10B90E08E179F0728F480E0D4
:1006300090E00E944A10ECCFB80181E00E94CA0B02
:10064000C05CDF4F0FB6F894DEBF0FBECDBFDF91A9
:10065000CF911F910F9108950F931F93CF93DF9325
:1006600040E051EE60E070E080E00E94270B40E047
:1006700051EE60E070E081E00E94270B8FEF81B9BE
:1006800012B88DE192E00E94EE0287E492E00E94AF
:10069000EE0281E792E00E94EE028BE992E00E9476
:1006A000EE0285EC92E00E94EE028DE192E00E9463
:1006B000EE028FEE92E00E94EE028FE39CE901973A
:1006C000F1F700C0000083E093E00E94EE028FE3A8
:1006D0009CE90197F1F700C00000279B279A2F980B
:1006E0008FE396E09093A7008093A6001092A90054
:1006F0001092A8001092AB001092AA001092AD00C8
:100700001092AC008EEF8093A00089E18093A1004D
:100710008091A6009091A70090934B0580934A0585
:1007200087E193E00E94EE0280E393E00E94EE02F4
:1007300000E010E021E040E850E066E473E089E189
:1007400096E00E944A188CE493E00E94EE0280E555
:1007500093E00E94EE0221E040E850E069E673E099
:1007600089E195E00E944A188CE493E00E94EE0231
:1007700082E793E00E94EE0221E040E850E06DE95C
:1007800073E089EE99E00E944A188CE493E00E949D
:10079000EE0286EA93E00E94EE0221E040E850E09B
:1007A00060ED73E080E29AE00E944A188CE493E0E6
:1007B0000E94EE0289ED93E00E94EE0221E040E803
:1007C00050E066EF73E081E794E00E944A188CE401
:1007D00093E00E94EE028CEF93E00E94EE0221E093
:1007E00040E052E060E174E086E497E00E944A183D
:1007F0008CE493E00E94EE0284E194E00E94EE0219
:1008000023E040E051E06BE274E083EA96E00E946E
:100810004A188CE493E00E94EE020FB6F8940F920F
:10082000C0910806D09109068E010E5F1F4FC801C6
:100830000E94B8158C899D89892B21F0CE010C96D8
:100840000E94B815809106068F5F809306068091FE
:10085000080690910906C817D90709F5E091D00557
:10086000F091D105FD83EC83848195819F838E83F4
:10087000A481B58113961C930E931297158304835C
:100880008FEC95E09B878A878091CF058F5F80935F
:10089000CF0580916C058F5F80936C050EC08091B1
:1008A0000A06815080930A068F89988D0E94B81697
:1008B000CE010E94B8160E94DB140F900FBE8091EB
:1008C0000706882349F08091080690910906C81709
:1008D000D90711F40E94F314DF91CF911F910F916A
:1008E0000895CF93DF93CDB7DEB72C970FB6F8946A
:1008F000DEBF0FBECDBF0E946F0E9C878B87C0905E
:100900005105B09050058AE090E00E944A1082E3C1
:10091000E82E84E0F82E8E010F5F1F4F149AD090BE
:100920005105CD14E1F1D090510580914C05909185
:100930004D05A0914E05B0914F050A96A11DB11D20
:1009400080934C0590934D05A0934E05B0934F05B1
:10095000BF93AF939F938F93FF92EF921F930F9349
:100960000E94CE1E0FB6F894DEBF0FBECDBF80EA48
:1009700095E00E94A10DF80101900020E9F7319760
:10098000E01BF10B90E08E179F0728F481E090E0C8
:100990000E944A10ECCFB80180E00E94CA0BC090C0
:1009A0005005BC14E1F1C090500580914C05909128
:1009B0004D05A0914E05B0914F050A96A11DB11DA0
:1009C00080934C0590934D05A0934E05B0934F0531
:1009D000BF93AF939F938F93FF92EF921F930F93C9
:1009E0000E94CE1E0FB6F894DEBF0FBECDBF80EAC8
:1009F00095E00E94A10DF80101900020E9F73197E0
:100A0000E01BF10B90E08E179F0728F481E090E047
:100A10000E944A10ECCFB80180E00E94CA0B1498E3
:100A200066E070E0CE010B960E945F10BC2CCD2CCE
:100A300075CFCF93DF931F921F92CDB7DEB70E9481
:100A40006F0E9A838983809104018E7F80930401C5
:100A5000809104018D7F8093040180910501816064
:100A6000809305018091050182608093050180914A
:100A7000680082608093680080916C00866080933B
:100A80006C008091010182608093010180910201DC
:100A90008D7F809302018091010188608093010124
:100AA0008091010180618093010180910101806248
:100AB0008093010100915105F09050058AE090E08B
:100AC0000E944A10119A80915105882309F44BC065
:100AD00080915105081761F080914A0590914B056E
:100AE0009093A9008093A800009151051AE042C09C
:100AF000112311F011503EC0C090A800D090A90061
:100B000060914A0570914B0580E090E00E94EB1CDB
:100B10002DEC3CEC4CE45EE30E94CE1D4B015C01ED
:100B2000B60180E090E00E94EB1CA50194010E94B8
:100B3000791D18167CF46091A8007091A90080E0DE
:100B400090E00E94EB1C20E030E040E05FE30E9478
:100B5000CE1D02C0C501B4010E94BC1C7093A90047
:100B60006093A80007C01092A9001092A8000091FD
:100B7000510510E080915005882309F44CC0809104
:100B80005005F81669F080914A0590914B059093B5
:100B9000AD008093AC00F09050058AE0E82E41C093
:100BA000EE2011F0EA943DC0C090AC00D090AD00B2
:100BB00060914A0570914B0580E090E00E94EB1C2B
:100BC0002DEC3CEC4CE45EE30E94CE1D4B015C013D
:100BD000B60180E090E00E94EB1CA50194010E9408
:100BE000791D18167CF46091AC007091AD0080E026
:100BF00090E00E94EB1C20E030E040E05FE30E94C8
:100C0000CE1D02C0C501B4010E94BC1C7093AD0092
:100C10006093AC0006C01092AD001092AC00F09052
:100C20005005119863E070E0CE0101960E945F10BC
:100C300049CFCF93DF93CDB7DEB7E4970FB6F894E3
:100C4000DEBF0FBECDBF269A0E946F0E9CAB8BAB52
:100C50008AE090E00E944A1080E4B82E97E3E92EE3
:100C600094E0F92E8E010F5F1F4F139A85B18B25EB
:100C700085B90E946F0ED82EC92E20E030E048ECD6
:100C800052E4609152057091530580915405909102
:100C900055050E94CE1D0E94B51C7F936F9320E0E6
:100CA00030E048EC52E46091560570915705809110
:100CB0005805909159050E94CE1D0E94B51C7F9346
:100CC0006F9320E030E048EC52E460915A05709157
:100CD0005B0580915C0590915D050E94CE1D0E9490
:100CE000B51C7F936F9360915E0570915F05809155
:100CF0006005909161050E94B51C7F936F93609190
:100D000062057091630580916405909165050E946C
:100D1000B51C7F936F93CF92DF92FF92EF921F9358
:100D20000F930E94CE1EC8010E94EE0213986CE041
:100D300070E0CE01C3960E945F100FB6F894DEBF3C
:100D40000FBECDBF92CFCF93DF93CDB7DEB7C554E3
:100D5000D1090FB6F894DEBF0FBECDBF839A8B9A30
:100D600083E1E3E6F4E0DE01D39601900D928A95EB
:100D7000E1F787E1E6E7F4E0DE015C9601900D9291
:100D80008A95E1F78BE1EDE8F4E0DE011196019040
:100D90000D928A95E1F78EE190E00E944A1011E0F1
:100DA0006EE370E080916605909167050E94E41003
:100DB000109A813009F060C020E030E04CE852E445
:100DC000609162057091630580916405909165055D
:100DD0000E94791D181684F020E030E04CE852E4BF
:100DE00060915E0570915F0580916005909161054D
:100DF0000E94791D18163CF48B98112309F443C006
:100E0000CE014C963EC023E333E343E350E46091CC
:100E10005A0570915B0580915C0590915D050E947B
:100E2000791D181604F123E333E343E350E46091A2
:100E300056057091570580915805909159050E946B
:100E4000791D181684F023E333E343E350E4609103
:100E500052057091530580915405909155050E945B
:100E6000791D181634F48B98112369F0CE01C396BE
:100E700008C08B9A11E008C08B98112321F0CE0195
:100E800001960E94EE0210E010988ACFCF93DF9374
:100E9000CDB7DEB727970FB6F894DEBF0FBECDBF34
:100EA00043E060E081E00E94BD129093670580936B
:100EB0006605892B29F488EA94E00E94EE02FFCFB0
:100EC00043E060E081E00E94BD129093750580933D
:100ED0007405892B29F483ED94E00E94EE02FFCF84
:100EE0000E946F0E9F838E838AE090E00E944A10DA
:100EF00080917A00806880937A0080E480937C00FF
:100F000080917C008F7D80937C0080917A008E6040
:100F100080937A0080917D00886180937D0080912C
:100F20007D00806E80937D0080919E050E94AC0DB7
:100F300080917A00806480937A0084E0C82ED12C5E
:100F400099E0B92E6FEF7FEF809174059091750550
:100F50000E94E410129A80919F05811115C0609142
:100F60008A0570918B0560908C0570908D0580903E
:100F70008E0590908F05E0909005F090910500917E
:100F800092051091930514C06091760570917705D4
:100F9000609078057090790580907A0590907B0537
:100FA000E0907C05F0907D0500917E0510917F0515
:100FB0006F5F7F4F80E090E00E94EB1C9B01AC01D3
:100FC00060E070EC8FE794E40E94431C20E030E086
:100FD00040E85FE30E94D61B9B01AC0160E070E437
:100FE0008CE196E40E94431C20E030E44CE156E49E
:100FF0000E94431C0E94861D20E030ED47E755E427
:101000000E94431C2FE03FEC4BE55BE30E94D71BA3
:101010009B01AC0160E070E080E89FE30E94431C0C
:1010200023E333E948E853E40E94D61B609362054A
:10103000709363058093640590936505B3016F5FBA
:101040007F4F80E090E00E94EB1C9B01AC0160E0D0
:1010500070EC8FE794E40E94431C20E030E040E80D
:101060005FE30E94D61B9B01AC0160E070E48CE161
:1010700096E40E94431C20E030E44CE156E40E94D8
:10108000431C0E94861D20E030ED47E755E40E9496
:10109000431C2FE03FEC4BE55BE30E94D71B9B0119
:1010A000AC0160E070E080E89FE30E94431C23E312
:1010B00033E948E853E40E94D61B60935E057093C1
:1010C0005F058093600590936105B4016F5F7F4F6A
:1010D00080E090E00E94EB1C9B01AC0160E070ECB2
:1010E0008FE794E40E94431C20E030E040EA50E4A3
:1010F0000E94CE1D20E030E040E351E40E94431CFA
:1011000060935A0570935B0580935C0590935D0531
:10111000B7016F5F7F4F80E090E00E94EB1C9B0166
:10112000AC0160E070EC8FE794E40E94431C20E087
:1011300030E040EA50E40E94CE1D20E030E040E381
:1011400051E40E94431C60935605709357058093A9
:10115000580590935905B8016F5F7F4F80E090E08C
:101160000E94EB1C9B01AC0160E070EC8FE794E403
:101170000E94431C20E030E040EA50E40E94CE1D73
:1011800020E030E040E351E40E94431C60935205AC
:10119000709353058093540590935505009166050F
:1011A000109167051D821C8280E0780198E0E90EAD
:1011B000F11C0FB6F8940F92D8015A962C915A97B9
:1011C0005B969C915B97291708F09DC05A969C905E
:1011D0005A975C964C915C97411167C08D919C9198
:1011E000892B09F07DC0F801E480F580E114F10459
:1011F00011F480E056C0D70192968C91929781505D
:1012000092968C93929756962C91569791969C9184
:10121000291779F38111EDCF3701B2E06B0E711C04
:10122000C3010E94B815F70181A1868B282F30E0F9
:10123000A601421B530B55874487909105069817CA
:1012400010F480930506B29EF001B39EF00D1124B8
:10125000EF51FA4F0180F281E02DD7011596FC93F2
:10126000EE9314978481958117969C938E9316978D
:10127000A481B58113967C926E92129775826482D6
:10128000D7015696EC915697BE9EF0011124EF516E
:10129000FA4F1B96FC93EE931A9780818F5F8083A1
:1012A00081E0F801158214821CC050E060E070E01B
:1012B000D80112968D919C9113970E94BE1EF80141
:1012C000248D82819381820F911D93838283248157
:1012D00035818217930720F08081918193838283E7
:1012E00080E09394D8015A969C925A9751969C917B
:1012F000992321F0C80141960E949E17882339F056
:101300000E94F31404C02C813D81232B19F40F900B
:101310000FBE50C0811109C080916D0589838091F5
:10132000BE059091BF059B838A830F900FBE0E94DC
:1013300044100FB6F8940F92F801858D8F3F09F491
:10134000158ED8015E968C915E978F3F11F45E9654
:101350001C920F900FBEBE016C5F7F4FCE010196B5
:101360000E946A17811121C00FB6F8940F92F801FC
:10137000928D838D0F900FBE981311C06C817D816B
:10138000C7010E945E0EC8010E94A2100E94790E41
:10139000882311F081E00DCF0E94F314FBCFC80128
:1013A0000E94A2100E94790EF5CFC8010E94A210DF
:1013B0000E94790E129860E070E0CE0106960E94BD
:1013C0005F10129A80917A00806480937A0012985C
:1013D000B9CDCF93DF931F921F92CDB7DEB743E015
:1013E00060E081E00E94BD129093690580936805DA
:1013F000892B29F483E095E00E94EE02FFCF0E9442
:101400006F0E9A8389838AE090E00E944A1011E06F
:101410006FEF7FEF80916805909169050E94E4105D
:10142000169A63E070E0CE0101960E945F108091F1
:101430000301869581708127809350051698E8CF27
:10144000CF93DF931F921F92CDB7DEB743E060E0EA
:1014500081E00E94BD1290936B0580936A05892BF1
:1014600029F483E095E00E94EE02FFCF0E946F0E08
:101470009A8389838AE090E00E944A1011E06FEF1E
:101480007FEF80916A0590916B050E94E410159A98
:1014900063E070E0CE0101960E945F10809103012D
:1014A00081708127809351051598E9CF1F920F9283
:1014B0000FB60F9211240BB60F922F933F934F93B9
:1014C0005F936F937F938F939F93AF93BF93CF93CC
:1014D000EF93FF93809103018170C0910301C2706B
:1014E00090910102891741F08093010280916A0571
:1014F00090916B050E947E1980910002C81741F0FF
:10150000C093000280916805909169050E947E1940
:10151000FF91EF91CF91BF91AF919F918F917F916B
:101520006F915F914F913F912F910F900BBE0F9054
:101530000FBE0F901F9018950F931F9300E010E0BF
:1015400021E040E051E065E375E08CE293E00E9429
:101550004A181F910F910895FC014FB7F894238109
:1015600030E02F5F3F4F2F733327828190E02817A1
:10157000390739F0A081B181A20FB31F8C91238369
:1015800001C080E04FBF0895FC018FB7F8949281AD
:101590002381921779F0A081B181A90FB11D6C93BD
:1015A000228130E02F5F3F4F2F73332722838FBF7D
:1015B00081E008958FBF80E008951F920F920FB6CB
:1015C0000F9211242F933F938F939F93AF93BF93C9
:1015D00080913E0690913F06A0914006B091410651
:1015E00030913D0623E0230F2D3720F40196A11DF5
:1015F000B11D05C026E8230F0296A11DB11D209341
:101600003D0680933E0690933F06A0934006B0931C
:1016100041068091390690913A06A0913B06B0911F
:101620003C060196A11DB11D8093390690933A06A0
:10163000A0933B06B0933C06BF91AF919F918F91D1
:101640003F912F910F900FBE0F901F901895EF9222
:10165000FF920F931F93CF93DF939A01AB01082F53
:1016600010E0C6E0C09FB001C19F700D1124FB01C6
:10167000E056FA4F9481913009F482C0FB01E55F96
:10168000F94F9481913009F47BC0813051F1B8F069
:101690008230C9F1833009F075C060E472E48FE0F4
:1016A00090E00E94941E215031093093350120931F
:1016B000340188ED80933101C093320135C060E47C
:1016C00072E48FE090E00E94941E21503109309323
:1016D000C5002093C40088ED8093C100C093C20070
:1016E00023C060E472E48FE090E00E94941E2150D9
:1016F00031093093CD002093CC0088ED8093C90050
:10170000C093CA0011C060E472E48FE090E00E94D0
:10171000941E215031093093D5002093D40088EDD8
:101720008093D100C093D20080E490E00E94B51A6B
:101730007C01892B39F186E0809FE001819FD00DEB
:101740001124FE01E056FA4FF182E08212820FE38B
:10175000038311E01483158280E490E00E94B51A9F
:10176000009751F0FE01E55FF94F9183808312826B
:1017700003831483158204C0C7010E944D1B02C05D
:1017800081E001C080E0DF91CF911F910F91FF9028
:10179000EF9008958F929F92AF92BF92CF92DF9277
:1017A000EF92FF920F931F93CF93DF93982E8B01AD
:1017B0006B0181E4C80ED11CE6E09E9EE00111247D
:1017C000C056DA4F5E01F4E0AF0EB11C7E0185E039
:1017D000E80EF11C88248394F80161918F0166233F
:1017E00079F1E3E0E91548F1F5018081811108C044
:1017F00040EA51ED61E070E0892D0E94270B1DC089
:10180000F7018081811116C08082F2E09F1661F09D
:1018100083E0981661F0E1E09E1619F06093C6002F
:101820000CC06093CE0009C06093D60006C06093E0
:10183000360103C0CE010E94C40A0C151D0561F6D5
:10184000DF91CF911F910F91FF90EF90DF90CF909C
:10185000BF90AF909F908F9008951F920F920FB6F8
:101860000F9211240BB60F922F933F934F935F93D8
:101870006F937F938F939F93AF93BF93EF93FF9358
:10188000609136018DE196E00E94C40AFF91EF91CC
:10189000BF91AF919F918F917F916F915F914F9188
:1018A0003F912F910F900BBE0F900FBE0F901F9086
:1018B00018951F920F920FB60F9211240BB60F922C
:1018C0002F933F934F935F936F937F938F939F9348
:1018D000AF93BF93EF93FF9382EB95E00E94AC0A26
:1018E000811103C01092B70502C080933601FF91A9
:1018F000EF91BF91AF919F918F917F916F915F9188
:101900004F913F912F910F900BBE0F900FBE0F90F4
:101910001F9018951F920F920FB60F9211240BB6BD
:101920000F922F933F934F935F936F937F938F9378
:101930009F93AF93BF93EF93FF936091D60087E19E
:1019400096E00E94C40AFF91EF91BF91AF919F91E1
:101950008F917F916F915F914F913F912F910F9058
:101960000BBE0F900FBE0F901F9018951F920F92F5
:101970000FB60F9211240BB60F922F933F934F93F4
:101980005F936F937F938F939F93AF93BF93EF93E7
:10199000FF938CEA95E00E94AC0A811103C010927B
:1019A000B10502C08093D600FF91EF91BF91AF9136
:1019B0009F918F917F916F915F914F913F912F9167
:1019C0000F900BBE0F900FBE0F901F9018951F9297
:1019D0000F920FB60F9211240BB60F922F933F93D5
:1019E0004F935F936F937F938F939F93AF93BF9327
:1019F000EF93FF936091CE0081E196E00E94C40ACC
:101A0000FF91EF91BF91AF919F918F917F916F91D6
:101A10005F914F913F912F910F900BBE0F900FBE92
:101A20000F901F9018951F920F920FB60F921124CE
:101A30000BB60F922F933F934F935F936F937F93C8
:101A40008F939F93AF93BF93EF93FF9386EA95E0B5
:101A50000E94AC0A811103C01092AB0502C08093B2
:101A6000CE00FF91EF91BF91AF919F918F917F91A8
:101A70006F915F914F913F912F910F900BBE0F90FF
:101A80000FBE0F901F9018951F920F920FB60F92D6
:101A900011240BB60F922F933F934F935F936F9345
:101AA0007F938F939F93AF93BF93EF93FF93609137
:101AB000C6008BE096E00E94C40AFF91EF91BF91AF
:101AC000AF919F918F917F916F915F914F913F91D6
:101AD0002F910F900BBE0F900FBE0F901F90189577
:101AE0001F920F920FB60F9211240BB60F922F93E5
:101AF0003F934F935F936F937F938F939F93AF9396
:101B0000BF93EF93FF9380EA95E00E94AC0A8111A6
:101B100003C01092A50502C08093C600FF91EF910B
:101B2000BF91AF919F918F917F916F915F914F91F5
:101B30003F912F910F900BBE0F900FBE0F901F90F3
:101B40001895FC01F89493818281981708F4905CB1
:101B5000981B892F7894089590E0009779F0FC0104
:101B6000EE0FFF1FEF5EFD4F408151814130510567
:101B700039F04230510531F0452B29F4889803C0E3
:101B8000899801C08A98880F991FFC01ED5EFD4F6E
:101B9000408151814F3F6FEF560769F04130510549
:101BA00039F04230510531F0452B29F4889A03C0B1
:101BB000899A01C08A9A40917C00407E40937C00C3
:101BC00040917C00FC01E75FFD4F80818F71842B89
:101BD00080937C0080917B00877F80937B00809145
:101BE0007B00908195FB222720F930E093E0220FC3
:101BF000331F9A95E1F7282B20937B0008951F92BD
:101C00000F920FB60F9211240BB60F922F933F93A2
:101C10004F935F936F937F938F939F93AF93BF93F4
:101C2000EF93FF93809178009091790020919F0528
:101C3000E0919E05F0E0EE0FFF1F222319F0E6571A
:101C4000FA4F02C0EA58FA4F9183808380919E0533
:101C50008F5F80939E0580919E058A3049F4909114
:101C60009F0581E0911180E080939F0510929E0571
:101C700080917405909175050E947E1980919E0552
:101C80000E94AC0D80919E05882329F080917A00F6
:101C9000806480937A00FF91EF91BF91AF919F9103
:101CA0008F917F916F915F914F913F912F910F9005
:101CB0000BBE0F900FBE0F901F901895CF93DF9320
:101CC000EB016091080670910906645F7F4F0E94E6
:101CD000DC1561E0CE01DF91CF910C94E7160FB6D1
:101CE000F8940F928091BE059091BF050F900FBEA2
:101CF00008958F929F92BF92CF92DF92EF92FF92C0
:101D00000F931F93CF93DF930FB6F8940F928091A8
:101D1000710581508093710580917105882311F0C0
:101D200080E0A4C180910A068823D1F3E090DD050C
:101D3000F090DE05E0E0F0E039E041E08091D80588
:101D4000882309F480C0D7011696ED91FC9117976E
:101D5000A489B5896685778580899189EB019D8302
:101D60008C8380899189EC017B836A83BF01645FE6
:101D70007F4F11960D911C9112970617170721F4AA
:101D800012969C938E931197158A148A8C91815088
:101D90008C93A285B3858481958166817781EC01DE
:101DA0007D836C8366817781EB019B838A83CF017E
:101DB000029611960D911C9112970817190721F49C
:101DC00012967C936E931197138612862C91215054
:101DD0002C93A689209105062A1710F4A0930506D6
:101DE0003A9FD0011124AF51BA4F11960D90BC917A
:101DF000A02DB583A48314966D917C91159777835C
:101E0000668314966D917C911597EB019B838A8371
:101E100015969C938E9314979689399FD00111241F
:101E2000AF51BA4FB387A2878C918F5F8C93A091EB
:101E30000806B091090656968C91981708F47ECF43
:101E4000409370057BCFEF2B11F00E94DB14E090E4
:101E50006E05F0906F05E114F10409F4FFC089E00C
:101E6000D82ECC24C3940FEF1FEF80917105811100
:101E7000DFC0C091BE05D091BF054E018FEF881A1B
:101E8000980A9092BF058092BE0581149104B9F41E
:101E90008091C4059091C5052091C2053091C3057C
:101EA0003093C5052093C4059093C3058093C20564
:101EB00080916D058F5F80936D050E94DB1480918A
:101EC000C0059091C105B12C8816990608F49CC0F4
:101ED000E091C405F091C5058081811105C0109382
:101EE000C1050093C00590C0E091C405F091C505FF
:101EF0000580F681E02D0680F781E02D82819381B7
:101F00008816990628F49093C1058093C0057CC07B
:101F1000C285D3858481958126813781DC01159620
:101F20003C932E93149726813781D90113969C9365
:101F30008E931297CF01029649815A81481759070B
:101F400011F43A832983138612862881215028832D
:101F5000A489B5891097F9F026853785408951897C
:101F6000E9015D834C8340895189EA013B832A83DF
:101F700011966D917C9112979F01245F3F4F6217DC
:101F8000730721F412965C934E931197158A148A65
:101F90002C9121502C93A689209105062A1710F424
:101FA000A0930506DA9ED0011124AF51BA4F1196C5
:101FB0000D90BC91A02DB583A48314962D913C91D6
:101FC00015973783268314962D913C911597E90137
:101FD0009B838A8315969C938E9314979689D99E9A
:101FE000D0011124AF51BA4FB387A2878C918F5F74
:101FF0008C93E0910806F09109068689981708F4F9
:1020000067CFBB24B39464CFE0910806F091090632
:10201000E689DE9EF0011124EF51FA4F8081823073
:1020200010F0BB24B3948091700581110CC00AC0DC
:1020300080916E0590916F05019690936F05809346
:102040006E0503C0B110C0927005D1E0ED1AF10821
:1020500009F00BCF10926F0510926E0580917005FC
:10206000882309F45DCE0E94F31481E00F900FBE27
:10207000DF91CF911F910F91FF90EF90DF90CF9064
:10208000BF909F908F900895809171058F5F80938E
:1020900071050895CF93DF93EC01892B19F40E9409
:1020A000F3140AC00E94441060E0CE010E94E716BB
:1020B0000E94790E882399F3DF91CF9108950F93B1
:1020C0001F93CF93DF938C01EB010E94441020916A
:1020D000BE053091BF05F80140815181CA018C0FC6
:1020E0009D1F2417350728F48417950748F4C1E08D
:1020F00004C0C1E08417950720F02817390708F0BD
:10210000C0E0F80191838083CC2329F060E0821B3A
:10211000930B0E94E7160E94790E811102C00E9463
:10212000F3148C2FDF91CF911F910F9108950FB66B
:10213000F8940F92FC01928D0F900FBE81E09111E7
:1021400080E00895EF92FF920F931F93CF93DF9358
:10215000EC010FB6F8940F921E8D7C0181E1E80E20
:10216000F11C01E011165CF48989882341F0C70154
:102170000E949E178111009370051150F3CF8FEFCD
:102180008E8F0F900FBE0FB6F8940F921D8D7E01AB
:1021900088E0E80EF11C01E011165CF488858823C4
:1021A00041F0C7010E949E178111009370051150E4
:1021B000F3CF8FEF8D8F0F900FBEDF91CF911F91D7
:1021C0000F91FF90EF9008957F928F929F92AF9220
:1021D000BF92CF92DF92EF92FF920F931F93CF9314
:1021E000DF9300D01F921F92CDB7DEB78C017D83A5
:1021F0006C83D12C90E0580121E1A20EB11C89E042
:10220000782E24E0822E912C0FB6F8940F92D801EC
:102210005A968C915A97882361F181505A968C93E3
:102220005A978D919C91892BA1F4809108069091E9
:102230000906892B39F0E0910806F091090682A180
:102240008F5F82A38091080690910906F80195831B
:102250008483D80118968C91882339F0C801089698
:102260000E949E1781110E94F3140F900FBE81E00F
:1022700071C12C813D81232B09F469C1911109C0E1
:1022800080916D0589838091BE059091BF059B83E8
:102290008A830F900FBE0E9444100FB6F8940F92DD
:1022A000F801858D8F3F09F4158ED8015E968C91CB
:1022B0005E978F3F11F45E961C920F900FBEBE0189
:1022C0006C5F7F4FCE0101960E946A178111AFC0EB
:1022D000C8010E949710882309F4A3C0F8018081E7
:1022E0009181892B09F08CC00FB6F8940F92E4808D
:1022F000F580E114F10409F480C0F7018689E091CA
:102300000806F09109069689891708F06AC0D70176
:102310001C962D913C911D9737FD0CC0E09108064D
:10232000F091090696899401291B31091D963C9369
:102330002E931C97789EC00111248F519A4FF7015C
:10234000228533852817390709F041C06701F2E07B
:10235000CF0ED11CC6010E94B815E0910806F0917D
:102360000906E689D7015696EC93809105068E17EB
:1023700010F4E09305067E9EF0011124EF51FA4F10
:102380000180F281E02DD7011596FC93EE9314970E
:102390008481958117969C938E931697A481B5811D
:1023A0001396DC92CE921297D582C482D7015696AC
:1023B000EC9156977E9EF0011124EF51FA4F1B9637
:1023C000FC93EE931A9780818F5F808307C0E09122
:1023D0000806F09109068689F701868BDD24D394DF
:1023E0000DC0E0910806F0910906DD24D394D701D1
:1023F00091969C918689981708F0D12C0F900FBE6A
:102400006C817D81C5010E945E0EC8010E94A210F0
:102410000E94790E882311F091E0F6CE0E94F31409
:10242000FBCFC8010E94A2100E94790EF5CFC8010F
:102430000E94A2100E94790EC8010E949710882362
:1024400059F3DD2009F485C00FB6F8940F92F80116
:102450008189882339F00688F789E02D908184E00E
:10246000891B01C080E0D80114960D911C9115972D
:102470000115110509F46BC0F80191A1981708F432
:10248000982FD80156968C915697981709F45FC0EB
:1024900092962C919297213009F059C056969C93B0
:1024A00056971C962D913C911D9737FD08C024E04E
:1024B00030E0291B31091D963C932E931C97B9E0FF
:1024C0008B9FC00111248F519A4FF80122853385CB
:1024D00028173907E1F57801F2E0EF0EF11CC7018A
:1024E0000E94B815D8015696EC91809105068E177A
:1024F00010F4E093050689E08E9FF0011124EF515E
:10250000FA4F0180F281E02DD8011596FC93EE93ED
:1025100014972481358117963C932E931697A481A6
:10252000B5811396FC92EE921297F582E482D8015F
:102530005696EC9156978E9FF0011124EF51FA4F69
:102540001B96FC93EE931A9780818F5F80830F9088
:102550000FBE80E00F900F900F900F900F90DF91C3
:10256000CF911F910F91FF90EF90DF90CF90BF9090
:10257000AF909F908F907F9008950F931F93CF936C
:10258000DF93811103C0C0E0D0E03FC0162F082FB9
:10259000869FC00111244F960E94C916EC01009736
:1025A00091F3111103C09983888303C04F969983D7
:1025B00088830B8F1C8F0FB6F8940F924881598136
:1025C0008B8D6C8D9A01869F200D311D11243D83CA
:1025D0002C831A8E5B834A8390E00197689F900159
:1025E000699F300D1124CA01820F931F9F838E8330
:1025F0008FEF8D8F8E8FCE0108960E94AA16CE0186
:1026000041960E94AA160F900FBECE01DF91CF9186
:102610001F910F9108950F920FB6F8940F920BB679
:102620000F920CB60F921F9211242F923F924F924D
:102630005F926F927F928F929F92AF92BF92CF9252
:10264000DF92EF92FF920F931F932F933F934F933D
:102650005F936F937F938F939F93AF93BF93CF932A
:10266000DF93EF93FF93A0910806B09109060DB692
:102670000D920EB60D9213BE809171058111F9C0B5
:102680008091BE059091BF0501969093BF05809300
:10269000BE05009781F52091C4053091C505409194
:1026A000C2055091C3055093C5054093C4053093AE
:1026B000C3052093C20520916D052F5F20936D0502
:1026C000E091C405F091C5052081211107C02FEFCD
:1026D0003FEF3093C1052093C0050DC0E091C405C4
:1026E000F091C5050580F681E02D20813181309380
:1026F000C1052093C0052091C0053091C105821706
:10270000930708F4A1C020E039E0D32EE091C4057E
:10271000F091C5053081311107C08FEF9FEF909385
:10272000C1058093C00591C0E091C405F091C50535
:102730000580F681E02D0680F781E02D42815381EE
:102740008417950728F45093C1054093C0057DC0B8
:10275000A285B3854481558166817781EA017D83B5
:102760006C8366817781EB015B834A83AF014E5FA7
:102770005F4F11960D911C9112970417150721F4C4
:1027800012967C936E931197138612863C9131506A
:102790003C93A489B5891097F9F0668577850089FF
:1027A0001189EB011D830C8300891189E8017B836A
:1027B0006A831196ED90FC901297BF01645F7F4F82
:1027C000E616F70621F412961C930E931197158ABC
:1027D000148A3C9131503C93A689309105063A17F2
:1027E00010F4A0930506DA9ED0011124AF51BA4F20
:1027F00011960D90BC91A02DB583A48314966D9174
:102800007C9115977783668314966D917C911597CB
:10281000EB015B834A8315965C934E93149746892C
:10282000D49ED0011124AF51BA4FB387A2873C91F7
:102830003F5F3C93E0910806F09109063689431703
:1028400008F464CF21E062CF20E0E0910806F09127
:102850000906E689D9E0ED9FF0011124EF51FA4F06
:102860008081823008F021E08091700581110EC0D6
:102870000AC080916E0590916F05019690936F0547
:1028800080936E0569C0222309F466C080917105AA
:10289000882321F081E0809370055EC0109270055E
:1028A000A0910806B0910906E0910806F09109068A
:1028B0002D913C918789908D82179307A8F0809184
:1028C0000806909109068091080690910906279ABA
:1028D0002F9A2FEF87EA91E6215080409040E1F750
:1028E00000C000001F9AF5CF8091050669E001C085
:1028F0008150482F50E0649F9001659F300D112456
:10290000F901EF51FA4F9081992391F3A181B2819E
:1029100012960D90BC91A02DB283A1832C513A4FF9
:10292000A217B30731F412962D913C91139732837D
:10293000218399E0949FF001959FF00D1124EF51B0
:10294000FA4F0180F281E02D26813781309309060C
:102950002093080680930506A0910806B091090609
:10296000CD91CDBFDD91DEBFFF91EF91DF91CF9192
:10297000BF91AF919F918F917F916F915F914F9197
:102980003F912F911F910F91FF90EF90DF90CF908B
:10299000BF90AF909F908F907F906F905F904F907F
:1029A0003F902F901F900F900CBE0F900BBE0F907A
:1029B0000FBE0F900895E091C405F091C505808188
:1029C000811103C08FEF9FEF09C0E091C405F09122
:1029D000C5050580F681E02D808191819093C10528
:1029E0008093C00508950F920FB6F8940F920BB61E
:1029F0000F920CB60F921F9211242F923F924F927A
:102A00005F926F927F928F929F92AF92BF92CF927E
:102A1000DF92EF92FF920F931F932F933F934F9369
:102A20005F936F937F938F939F93AF93BF93CF9356
:102A3000DF93EF93FF93A0910806B09109060DB6BE
:102A40000D920EB60D9280917105882321F081E0E0
:102A5000809370055EC010927005A0910806B09139
:102A60000906E0910806F09109062D913C918789AD
:102A7000908D82179307A8F080910806909109061F
:102A80008091080690910906279A2F9A2FEF87EADE
:102A900091E6215080409040E1F700C000001F9A6D
:102AA000F5CF8091050669E001C08150482F50E0C4
:102AB000649F9001659F300D1124F901EF51FA4F89
:102AC0009081992391F3A181B28112960D90BC91CE
:102AD000A02DB283A1832C513A4FA217B30731F432
:102AE00012962D913C9113973283218399E0949F04
:102AF000F001959FF00D1124EF51FA4F0180F28102
:102B0000E02D2681378130930906209308068093B3
:102B10000506A0910806B0910906CD91CDBFDD91C3
:102B2000DEBFFF91EF91DF91CF91BF91AF919F9168
:102B30008F917F916F915F914F913F912F911F9155
:102B40000F91FF90EF90DF90CF90BF90AF909F904C
:102B50008F907F906F905F904F903F902F901F903D
:102B60000F900CBE0F900BBE0F900FBE0F900895EC
:102B7000CF93DF93FC01A085B1858281938124816D
:102B80003581EC013D832C83C481D5819B838A836D
:102B900011968D919C911297E817F90721F41296DE
:102BA000DC93CE931197118610868C9181508C9373
:102BB0008C91DF91CF9108950F931F93CF93DF9363
:102BC0008C01FB01808191818F3F2FEF920721F4CF
:102BD000E801AF81B8850EC0D801139612962D91E9
:102BE0003C911397E901488159818417950710F0AA
:102BF000D901F4CF12968D919C9113979383828380
:102C0000EC01FD83EC83B583A4831396FC93EE93D0
:102C1000129711870087F80180818F5F8083DF9191
:102C2000CF911F910F910895FC0173836283918767
:102C300080874617570778F0421B530B848595858C
:102C400048175907C8F4BF016E5F7F4F8091B805E0
:102C50009091B9050DC04217530718F46217730716
:102C600058F4BF016E5F7F4F8091BA059091BB050C
:102C70000E94DC1580E0089581E00895EF92FF92B4
:102C80000F931F93CF93DF93EC018B017A016C8537
:102C90007D85600F711F9801A701CE010E94141657
:102CA000882349F08C859D85080F191FE889F989CB
:102CB000CE011995ECCFDF91CF911F910F91FF902D
:102CC000EF900895EF92FF920F931F93CF93DF93AE
:102CD0008C017B01E091BA05F091BB050580F6817E
:102CE000E02DC681D781CE0102960E94B8158A894F
:102CF00082FF06C0A701B801CE010E943E1602C0A5
:102D00008E7F8A8BE889F989CE01DF91CF911F915F
:102D10000F91FF90EF901994E091BA05F091BB05E7
:102D20008081882351F00580F681E02D6FEF7FEFE1
:102D3000808191810E946216EFCF8091B8059091B9
:102D4000B9059093BB058093BA05F093B905E0935C
:102D5000B8050895FC010396928381832FEF3FEF1E
:102D60003483238396838583908787831082089595
:102D7000CF93DF93009751F0EC010E944410CE01F5
:102D80000E944D1BDF91CF910C94790EDF91CF9172
:102D90000895CF93DF93EC010E944410CE010E946E
:102DA000B51AEC010E94790E209769F4279A2F9AA0
:102DB0002FEF80E792E0215080409040E1F700C083
:102DC00000001F9AF5CFCE01DF91CF910895FF92B9
:102DD0000F931F93CF93DF93EC01F62E0091BE0566
:102DE0001091BF05809108069091090602960E94F5
:102DF000B815CF3F8FEFD807C1F5FF20B1F1E091B3
:102E0000C705F091C805A0910806B091090615966E
:102E1000FC93EE931497A0910806B0910906848163
:102E2000958117969C938E931697809108069091A2
:102E30000906A481B581029613969C938E931297EE
:102E40008091080690910906029695838483E0910B
:102E50000806F091090686EC95E0938782878091B9
:102E6000C6058F5F8093C6052FC0C00FD11FE091AC
:102E70000806F0910906D383C28360910806709119
:102E80000906C017D10768F48091C2059091C30567
:102E90006E5F7F4FDF91CF911F910F91FF900C9448
:102EA000DC158091C4059091C5056E5F7F4F0E942F
:102EB000DC158091C0059091C105C817D90720F491
:102EC000D093C105C093C005DF91CF911F910F91A1
:102ED000FF900895FC01DB010FB6F8940F9240912A
:102EE000BE055091BF052D913C9111972F3F8FEF5B
:102EF000380701F18181928160916D0570817617AB
:102F000039F04817590720F01D921C9281E013C038
:102F1000481B590B42175307B8F7241B350B2D9349
:102F20003C9380916D0580838091BE059091BF0593
:102F30009283818380E00F900FBE0895CF93DF933B
:102F4000DC011596ED91FC9116970680F781E02D36
:102F5000A489B5898685978520893189EC013D83CF
:102F60002C83C089D1899B838A83CF010C961196CB
:102F70002D913C9112972817390721F41296DC9372
:102F8000CE931197158A148A2C9121502C9320915D
:102F9000710521114FC0A285B38584819581268159
:102FA0003781EC013D832C83C681D7819B838A8343
:102FB0009F012E5F3F4F11968D919C911297821722
:102FC000930721F41296DC93CE9311971386128601
:102FD0008C9181508C93A689809105068A1710F4F4
:102FE000A093050689E08A9FD0011124AF51BA4F02
:102FF00011960D90BC91A02DB583A48314964D918C
:103000005C911597578346831496CD91DC91159763
:103010003B832A8315963C932E931497A6898A9F07
:10302000D0011124AF51BA4FB387A2878C918F5F23
:103030008C931FC0A091D905B091DA05B787A687F8
:1030400014962D913C911597318B208B1496CD9130
:10305000DC9115979B838A8315969C938E93149786
:1030600088ED95E0958B848B8091D8058F5F809358
:10307000D805A0910806B0910906968956968C91BC
:10308000891720F481E08093700501C080E0DF9112
:10309000CF9108957F928F929F92AF92BF92CF92DD
:1030A000DF92EF92FF920F931F93CF93DF93782ECF
:1030B000A92E6B017A01B22ECA010E94C9164C01D9
:1030C000892B09F40CC188E290E00E94C916EC013A
:1030D000892BC1F0988E8F8AA70165EA70E0C40140
:1030E0000E94C71E41E0E41AF108EF89F88DEE0D49
:1030F000FF1DC114D104D1F0CE0149969601285F7D
:103100003F4F07C0C4010E94B816E9C0C216D306DB
:1031100059F0A601D6016D916D01DC016D93CD01D1
:10312000DA014C914111F2CF18A201C0198E8B2DFA
:10313000843008F083E08E8B89A31AA21B861A863E
:103140001D8A1C8AD987C88724E030E0A901481B62
:1031500051095D874C87DB8BCA8B84E09E012D5D16
:103160003F4FD9011D928A95E9F71FA27082DF01B6
:103170001197AC9211971C9211971C92119780E8AD
:103180008C9311971C9211971C9211971C92579730
:103190001C9211971C92B697F983E88301151105CB
:1031A00019F0F801D183C0830FB6F8940F92809183
:1031B0000A068F5F80930A0680910806909109069F
:1031C000892BD1F5D0930906C093080680910A0691
:1031D000813009F041C081EE95E00E94AA168AEE86
:1031E00095E00E94AA1683EF95E00E94AA168CEF44
:1031F00095E00E94AA168BE496E00E94AA1682E44B
:1032000096E00E94AA1688ED95E00E94AA168FEC1F
:1032100095E00E94AA1686EC95E00E94AA168BE41F
:1032200096E09093C5058093C40582E496E0909360
:10323000C3058093C20510C08091070681110CC0A0
:10324000E0910806F091090696898E89891720F089
:10325000D0930906C0930806809106068F5F80937D
:103260000606EE89809105068E1710F4E093050698
:1032700089E08E9FF0011124EF51FA4F0180F28115
:10328000E02DFD83EC83248135813F832E83A4814F
:10329000B5819E012E5F3F4F13963C932E9312975C
:1032A00035832483EE898E9FF0011124EF51FA4F6C
:1032B000FB87EA8780818F5F80830F900FBE8091AC
:1032C0000706882351F0E0910806F09109069689D7
:1032D0008E89981710F40E94F31481E001C08FEFDB
:1032E000DF91CF911F910F91FF90EF90DF90CF90E2
:1032F000BF90AF909F908F907F900895FC01928D2A
:10330000838D981780F4868D9F5F928F8F3F41F455
:103310008189882351F0CF0141960E949E1705C0F4
:103320008F5F868F02C080E0089581E008950E943B
:103330000B131895789484B5826084BD84B5816040
:1033400084BD85B5826085BD85B5816085BD809170
:103350006E00816080936E001092810080918100E8
:1033600082608093810080918100816080938100E0
:10337000809180008160809380008091B1008460A2
:103380008093B1008091B00081608093B000809103
:103390009100826080939100809191008160809380
:1033A0009100809190008160809390008091A100B5
:1033B00082608093A1008091A10081608093A10030
:1033C0008091A00081608093A000809121018260A3
:1033D000809321018091210181608093210180915E
:1033E000200181608093200180917A008460809325
:1033F0007A0080917A00826080937A0080917A00CE
:10340000816080937A0080917A00806880937A004E
:103410001092C10020910702309108028FEF91E2D3
:10342000821B930B90930402809303020E949C0AD8
:1034300007E316E020E040EC50E06AE375E084EC3E
:1034400090E00E944A18813009F084C00FB6F894C9
:103450000F928091BC059091BD05892BE9F48CE217
:1034600096E00E94AA1683E296E00E94AA168CE2D9
:1034700096E09093BB058093BA0583E296E0909323
:10348000B9058093B80540E065E08AE00E94BD126E
:103490009093BD058093BC050F900FBE8091BC0535
:1034A0009091BD05892B09F455C005E316E023E092
:1034B00045E550E06FE375E087EF90E00E944A1821
:1034C000813009F047C0F8942FEF3FEF3093C105EA
:1034D0002093C005809307061092BF051092BE0589
:1034E000A89590EC88E10FB6F894A89580936000B9
:1034F0000FBE90936000A0910806B0910906CD918F
:10350000CDBFDD91DEBFFF91EF91DF91CF91BF91F4
:10351000AF919F918F917F916F915F914F913F916B
:103520002F911F910F91FF90EF90DF90CF90BF9060
:10353000AF909F908F907F906F905F904F903F9053
:103540002F901F900F900CBE0F900BBE0F900FBED0
:103550000F900895809102020E949C0AC0E0D0E082
:103560002097F1F30E940000FBCF0F931F93CF939E
:10357000DF938230910510F482E090E0E0915606EE
:10358000F091570620E030E0A0E0B0E0309719F16C
:10359000408151810281138148175907C8F084176F
:1035A000950769F4109731F012960C9312971396C1
:1035B0001C9327C0009356061093570622C021156E
:1035C000310519F04217530718F49A01BD01EF01B4
:1035D000DF01F801DBCF21153105F9F0281B390B8C
:1035E0002430310580F48A819B816115710521F0B9
:1035F000FB019383828304C0909357068093560601
:10360000FE01329644C0FE01E20FF31F81939193B5
:1036100022503109398328833AC0209154063091D1
:103620005506232B41F42091050230910602309378
:10363000550620935406209103023091040221156F
:10364000310541F42DB73EB7409107025091080271
:10365000241B350BE0915406F0915506E217F30751
:10366000A0F42E1B3F0B2817390778F0AC014E5FF2
:103670005F4F2417350748F04E0F5F1F50935506D4
:10368000409354068193919302C0E0E0F0E0CF01B3
:10369000DF91CF911F910F910895CF93DF93009702
:1036A00009F481C0FC01329713821282A091560660
:1036B000B0915706109781F420813181820F931FBA
:1036C00020915406309155062817390751F5F0938B
:1036D0005506E093540667C0ED0120E030E0CE17B8
:1036E000DF0740F44A815B819E0141155105F1F0ED
:1036F000EA01F5CFD383C28340815181840F951FA6
:10370000C817D90759F488819981840F951F0296AB
:10371000918380838A819B819383828321153105E4
:1037200029F4F0935706E09356063DC0E901FB8368
:10373000EA8349915991C40FD51FEC17FD0761F435
:1037400080819181840F951F0296E9019983888376
:10375000828193819B838A83E0E0F0E012968D91D1
:103760009C911397009719F0FD01DC01F7CF8D9123
:103770009C9111979D012E5F3F4F820F931F2091C7
:103780005406309155062817390769F4309729F403
:10379000109257061092560602C013821282B093FE
:1037A0005506A0935406DF91CF9108955058BB273A
:1037B000AA270E94EE1B0C943F1D0E94311D38F079
:1037C0000E94381D20F039F49F3F19F426F40C9420
:1037D0002E1D0EF4E095E7FB0C94281DE92F0E94A6
:1037E000501D58F3BA17620773078407950720F036
:1037F00079F4A6F50C94721D0EF4E0950B2EBA2FF9
:10380000A02D0B01B90190010C01CA01A0011124E6
:10381000FF27591B99F0593F50F4503E68F11A1692
:10382000F040A22F232F342F4427585FF3CF469523
:1038300037952795A795F0405395C9F77EF41F1645
:10384000BA0B620B730B840BBAF09150A1F0FF0F0F
:10385000BB1F661F771F881FC2F70EC0BA0F621FFB
:10386000731F841F48F4879577956795B795F795EB
:103870009E3F08F0B0CF9395880F08F09927EE0F80
:103880009795879508950E94571C0C943F1D0E94A0
:10389000381D58F00E94311D40F029F45F3F29F097
:1038A0000C94281D51110C94731D0C942E1D0E9414
:1038B000501D68F39923B1F3552391F3951B550BD4
:1038C000BB27AA2762177307840738F09F5F5F4FF3
:1038D000220F331F441FAA1FA9F335D00E2E3AF032
:1038E000E0E832D091505040E695001CCAF72BD04A
:1038F000FE2F29D0660F771F881FBB1F261737079B
:103900004807AB07B0E809F0BB0B802DBF01FF27CC
:1039100093585F4F3AF09E3F510578F00C94281D64
:103920000C94731D5F3FE4F3983ED4F3869577952E
:103930006795B795F7959F5FC9F7880F911D969585
:10394000879597F90895E1E0660F771F881FBB1FE1
:10395000621773078407BA0720F0621B730B840B8E
:10396000BA0BEE1F88F7E09508950E94BC1C68947E
:10397000B1110C94731D08950E94581D88F09F5733
:1039800098F0B92F9927B751B0F0E1F0660F771F83
:10399000881F991F1AF0BA95C9F714C0B13091F079
:1039A0000E94721DB1E008950C94721D672F782F4C
:1039B0008827B85F39F0B93FCCF38695779567953E
:1039C000B395D9F73EF490958095709561957F4FAA
:1039D0008F4F9F4F0895E89409C097FB3EF4909550
:1039E0008095709561957F4F8F4F9F4F9923A9F0D8
:1039F000F92F96E9BB279395F69587957795679567
:103A0000B795F111F8CFFAF4BB0F11F460FF1BC0AA
:103A10006F5F7F4F8F4F9F4F16C0882311F096E93D
:103A200011C0772321F09EE8872F762F05C06623EB
:103A300071F096E8862F70E060E02AF09A95660FA4
:103A4000771F881FDAF7880F9695879597F908955D
:103A500097F99F6780E870E060E008959FEF80EC41
:103A6000089500240A9416161706180609060895E4
:103A700000240A9412161306140605060895092E4A
:103A80000394000C11F4882352F0BB0F40F4BF2BB9
:103A900011F460FF04C06F5F7F4F8F4F9F4F0895F9
:103AA00057FD9058440F551F59F05F3F71F04795EF
:103AB000880F97FB991F61F09F3F79F087950895D4
:103AC000121613061406551FF2CF4695F1DF08C0F3
:103AD000161617061806991FF1CF86957105610510
:103AE00008940895E894BB2766277727CB0197F9B8
:103AF00008950E943B1E08F48FEF089516F00C9471
:103B00005F1E0C942E1D68940C94281D0E94581D55
:103B1000A8F39923C1F3AEF3DF93CF931F930F93D1
:103B2000FF92C92FDD2788232AF02197660F771F80
:103B3000881FDAF720E030E040E85FEB9FE3883948
:103B400020F0803E38F021968F770E94D71BE6EF59
:103B5000F0E004C00E94D71BE3E2F1E00E946D1E7A
:103B60008B01BE01EC01FB2E6F5771097595771F14
:103B7000880B990B0E94ED1C28E132E741E35FE3DB
:103B80000E94E11DAF2D9801AE01FF900F911F9192
:103B9000CF91DF910E94EE1B0C943F1D0E94E11D0E
:103BA0000C943F1D0E94311D38F00E94381D20F0FA
:103BB000952311F00C94281D0C942E1D11240C94A7
:103BC000731D0E94501D70F3959FC1F3950F50E037
:103BD000551F629FF001729FBB27F00DB11D639FBF
:103BE000AA27F00DB11DAA1F649F6627B00DA11D65
:103BF000661F829F2227B00DA11D621F739FB00D0B
:103C0000A11D621F839FA00D611D221F749F33277A
:103C1000A00D611D231F849F600D211D822F762F13
:103C20006A2F11249F5750409AF0F1F088234AF0F0
:103C3000EE0FFF1FBB1F661F771F881F915050405C
:103C4000A9F79E3F510580F00C94281D0C94731D1C
:103C50005F3FE4F3983ED4F3869577956795B795E3
:103C6000F795E7959F5FC1F7FE2B880F911D9695FD
:103C7000879597F90895990F0008550FAA0BE0E86A
:103C8000FEEF16161706E807F907C0F0121613061E
:103C9000E407F50798F0621B730B840B950B39F45E
:103CA0000A2661F0232B242B252B21F408950A26C4
:103CB00009F4A140A6958FEF811D811D08959F3FB6
:103CC00031F0915020F4879577956795B795880FD7
:103CD000911D9695879597F90895DF93CF931F933C
:103CE0000F93FF92EF92DF927B018C01689406C0E4
:103CF000DA2EEF010E94E11DFE01E894A5912591C5
:103D0000359145915591A6F3EF010E94EE1BFE01FE
:103D10009701A801DA9469F7DF90EF90FF900F9177
:103D20001F91CF91DF910895A1E21A2EAA1BBB1B10
:103D3000FD010DC0AA1FBB1FEE1FFF1FA217B30777
:103D4000E407F50720F0A21BB30BE40BF50B661F8D
:103D5000771F881F991F1A9469F760957095809551
:103D600090959B01AC01BD01CF010895EE0FFF1F9F
:103D7000881F8BBF0790F691E02D1994FB01DC01A1
:103D800002C001900D9241505040D8F70895DC01D7
:103D900001C06D9341505040E0F708950F931F9379
:103DA000CF93DF93CDB7DEB72E970FB6F894DEBF73
:103DB0000FBECDBF0E891F8986E08C831A830983CD
:103DC0008FEF9FE79E838D83AE01465E5F4F688DC8
:103DD000798DCE0101960E94FD1EEF81F885E00FDE
:103DE000F11F10822E960FB6F894DEBF0FBECDBF26
:103DF000DF91CF911F910F9108952F923F924F9293
:103E00005F926F927F928F929F92AF92BF92CF926A
:103E1000DF92EF92FF920F931F93CF93DF93CDB773
:103E2000DEB72B970FB6F894DEBF0FBECDBF6C0187
:103E30007B018A01FC0117821682838181FFCCC13C
:103E4000CE0101963C01F6019381F70193FD859126
:103E500093FF81917F01882309F4BAC1853239F437
:103E600093FD859193FF81917F01853229F4B601FD
:103E700090E00E941D21E7CF912C212C312CFFE1F5
:103E8000F315D8F08B3279F038F4803279F0833240
:103E9000A1F4232D20611DC08D3261F0803369F4BF
:103EA000232D216016C0832D8260382EE32DE4601F
:103EB0003E2E2AC0F32DF8601DC037FC2DC020ED2A
:103EC000280F2A3040F08E32B9F436FC81C1232D00
:103ED0002064322E19C036FE06C08AE0989E200D5E
:103EE0001124922E11C0EAE02E9E200D1124222EC4
:103EF000F32DF0623F2E08C08C3621F4832D8068AC
:103F0000382E02C0883641F4F70193FD859193FF66
:103F100081917F018111B3CF982F9F7D955493306C
:103F200028F40C5F1F4F9FE399830DC0833631F057
:103F3000833771F0833509F059C021C0F8018081C1
:103F400089830E5F1F4F88248394912C530113C0E3
:103F50002801F2E04F0E511CF801A080B18036FE1E
:103F600003C0692D70E002C06FEF7FEFC5010E94B2
:103F700012214C018201F32DFF773F2E16C028013C
:103F800022E0420E511CF801A080B18036FE03C031
:103F9000692D70E002C06FEF7FEFC5010E9407211D
:103FA0004C01F32DF0683F2E820133FC1BC0822DA3
:103FB00090E088169906B0F4B60180E290E00E9485
:103FC0001D212A94F4CFF50137FC859137FE8191AC
:103FD0005F01B60190E00E941D2121102A9421E08A
:103FE000821A91088114910471F7E8C0843611F0A7
:103FF000893641F5F80137FE07C060817181828101
:1040000093810C5F1F4F08C060817181072E000CE7
:10401000880B990B0E5F1F4FF32DFF763F2E97FFF6
:1040200009C090958095709561957F4F8F4F9F4FF8
:10403000F0683F2E2AE030E0A3010E945921882E2B
:10404000861845C0853731F4232D2F7EB22E2AE005
:1040500030E025C0932D997FB92E8F36C1F018F42A
:10406000883579F0B5C0803719F0883721F0B0C0B5
:10407000E92FE061BE2EB4FE0DC0FB2DF460BF2E13
:1040800009C034FE0AC0292F2660B22E06C028E0DF
:1040900030E005C020E130E002C020E132E0F8016C
:1040A000B7FE07C060817181828193810C5F1F4FD1
:1040B00006C06081718180E090E00E5F1F4FA30118
:1040C0000E945921882E8618FB2DFF773F2E36FE41
:1040D0000DC0232D2E7FA22E891458F434FE0BC060
:1040E00032FC09C0832D8E7EA82E05C0B82CA32CCF
:1040F00003C0B82C01C0B92CA4FE0FC0FE01E80D0E
:10410000F11D8081803321F49A2D997EA92E09C05A
:10411000A2FE06C0B394B39404C08A2D867809F039
:10412000B394A3FC11C0A0FE06C0B21488F4280CFE
:10413000922C9B180EC0B21460F4B60180E290E09D
:104140000E941D21B394F7CFB21418F42B1802C0AB
:10415000982C212CA4FE10C0B60180E390E00E94B0
:104160001D21A2FE17C0A1FC03C088E790E002C099
:1041700088E590E0B6010CC08A2D867859F0A1FE42
:1041800002C08BE201C080E2A7FC8DE2B60190E0A4
:104190000E941D21891438F4B60180E390E00E944A
:1041A0001D219A94F7CF8A94F301E80DF11D8081C7
:1041B000B60190E00E941D218110F5CF222009F464
:1041C00042CEB60180E290E00E941D212A94F6CFF3
:1041D000F6018681978102C08FEF9FEF2B960FB675
:1041E000F894DEBF0FBECDBFDF91CF911F910F912D
:1041F000FF90EF90DF90CF90BF90AF909F908F9007
:104200007F906F905F904F903F902F900895FC01AA
:104210000590615070400110D8F7809590958E0FF1
:104220009F1F0895FC016150704001900110D8F764
:10423000809590958E0F9F1F08950F931F93CF9396
:10424000DF93FB01238121FD03C08FEF9FEF2CC083
:1042500022FF16C0468157812481358142175307BA
:1042600044F4A081B1819D012F5F3F4F31832083B2
:104270008C93268137812F5F3F4F3783268314C06D
:104280008B01EC01FB010084F185E02D1995892B50
:10429000E1F6D80116968D919C9117970196179685
:1042A0009C938E931697CE01DF91CF911F910F9122
:1042B0000895FA01AA27283051F1203181F1E894BC
:1042C0006F936E7F6E5F7F4F8F4F9F4FAF4FB1E009
:1042D0003ED0B4E03CD0670F781F891F9A1FA11D04
:1042E000680F791F8A1F911DA11D6A0F711D811D05
:1042F000911DA11D20D009F468943F912AE0269FCA
:1043000011243019305D3193DEF6CF010895462F28
:104310004770405D4193B3E00FD0C9F7F6CF462F09
:104320004F70405D4A3318F0495D31FD4052419372
:1043300002D0A9F7EACFB4E0A6959795879577952F
:104340006795BA95C9F700976105710508959B01B6
:10435000AC010A2E06945795479537952795BA953F
:10436000C9F7620F731F841F951FA01D0895F8944D
:02437000FFCF7D
:104372000201030000580620002300240025002625
:10438200002700FFFFFFFFFFFFFFFFFFFF3D3D3D57
:104392003D3D3D3D3D3D3D3D3D3D3D3D3D3D3D3D4B
:1043A2003D3D3D3D3D3D3D3D3D3D3D3D3D3D3D3D3B
:1043B2003D3D3D3D3D0A007C7C20202020202020E8
:1043C20020202020204D61696E20436F6E74726F31
:1043D2006C2020202020202020202020207C7C0AED
:1043E200007C7C2020202020202020202020202033
:1043F2002020426F61726420202020202020202073
:10440200202020202020207C7C0A007C7C2D2D2D49
:104412002D2D2D2D2D2D2D2D2D2D2D2D2D2D2D2DCA
:104422002D2D2D2D2D2D2D2D2D2D2D2D2D2D2D2DBA
:104432002D7C7C0A007C7C2020202020202020460D
:1044420069726D776172653A20323032312D3131C5
:104452002D323220202020202020207C7C0A005572
:10446200415254303A20696E697469616C697A65A7
:10447200640A0055415254313A20696E6974696187
:104482006C697A65640A0050574D206D6F64756CD3
:10449200653A20696E697469616C697A65640A00BB
:1044A20063726561746520626C696E6B20746173FE
:1044B2006B2E2E2E2000426C696E6B004F4B0A0051
:1044C20063726561746520736F6C656E6F696420D9
:1044D2007461736B2E2E2E2000536F6C656E6F69A4
:1044E200640063726561746520627574746F6E2016
:1044F200696E7075742068616E646C657220746197
:10450200736B2072696768742E2E2E2000427574B8
:10451200746F6E5F72006372656174652062757498
:10452200746F6E20696E7075742068616E646C655C
:1045320072207461736B206C6566742E2E2E2000BF
:10454200427574746F6E5F6C00637265617465208E
:1045520073636F7265207570646174652074617332
:104562006B2E2E2E200053636F726500637265619D
:10457200746520616463207461736B2E2E2E20009B
:1045820041444300637265617465207361666574BA
:1045920079207461736B2E2E2E2000536166657430
:1045A2007900256C750A0025643A20746C3A20253E
:1045B200642C2074723A2025642C2063313A202521
:1045C200642C2063323A2025642C2063333A202560
:1045D200640A004552523A2068696768206375721E
:1045E20072656E740A004552523A20686967682003
:1045F20074656D70657261747572650A0057524E0A
:104602003A2063616E6E6F74206765742073656D06
:104612006170686F72650A006661696C6564207416
:104622006F206372656174652073656D6170686F78
:10463200726520696E207361666574795F74617357
:104642006B0A006661696C656420746F2063726531
:104652006174652073656D6170686F726520696E43
:104662002070726F636573735F6164635F746173FB
:104672006B0A006661696C656420746F2063726501
:104682006174652073656D6170686F726520696E13
:1046920020636865636B5F696E7075745F6C5F74CD
:1046A20061736B0A00494E49540049444C45005419
:0846B2006D72205376630000D5
:00000001FF
